{
  "contractName": "BonafydeToken",
  "abi": [
    {
      "inputs": [],
      "stateMutability": "nonpayable",
      "type": "constructor"
    },
    {
      "anonymous": false,
      "inputs": [
        {
          "indexed": true,
          "internalType": "address",
          "name": "owner",
          "type": "address"
        },
        {
          "indexed": true,
          "internalType": "address",
          "name": "approved",
          "type": "address"
        },
        {
          "indexed": true,
          "internalType": "uint256",
          "name": "tokenId",
          "type": "uint256"
        }
      ],
      "name": "Approval",
      "type": "event"
    },
    {
      "anonymous": false,
      "inputs": [
        {
          "indexed": true,
          "internalType": "address",
          "name": "owner",
          "type": "address"
        },
        {
          "indexed": true,
          "internalType": "address",
          "name": "operator",
          "type": "address"
        },
        {
          "indexed": false,
          "internalType": "bool",
          "name": "approved",
          "type": "bool"
        }
      ],
      "name": "ApprovalForAll",
      "type": "event"
    },
    {
      "anonymous": false,
      "inputs": [
        {
          "indexed": true,
          "internalType": "address",
          "name": "previousOwner",
          "type": "address"
        },
        {
          "indexed": true,
          "internalType": "address",
          "name": "newOwner",
          "type": "address"
        }
      ],
      "name": "OwnershipTransferred",
      "type": "event"
    },
    {
      "anonymous": false,
      "inputs": [
        {
          "indexed": false,
          "internalType": "address",
          "name": "account",
          "type": "address"
        }
      ],
      "name": "Paused",
      "type": "event"
    },
    {
      "anonymous": false,
      "inputs": [
        {
          "indexed": true,
          "internalType": "bytes32",
          "name": "role",
          "type": "bytes32"
        },
        {
          "indexed": true,
          "internalType": "bytes32",
          "name": "previousAdminRole",
          "type": "bytes32"
        },
        {
          "indexed": true,
          "internalType": "bytes32",
          "name": "newAdminRole",
          "type": "bytes32"
        }
      ],
      "name": "RoleAdminChanged",
      "type": "event"
    },
    {
      "anonymous": false,
      "inputs": [
        {
          "indexed": true,
          "internalType": "bytes32",
          "name": "role",
          "type": "bytes32"
        },
        {
          "indexed": true,
          "internalType": "address",
          "name": "account",
          "type": "address"
        },
        {
          "indexed": true,
          "internalType": "address",
          "name": "sender",
          "type": "address"
        }
      ],
      "name": "RoleGranted",
      "type": "event"
    },
    {
      "anonymous": false,
      "inputs": [
        {
          "indexed": true,
          "internalType": "bytes32",
          "name": "role",
          "type": "bytes32"
        },
        {
          "indexed": true,
          "internalType": "address",
          "name": "account",
          "type": "address"
        },
        {
          "indexed": true,
          "internalType": "address",
          "name": "sender",
          "type": "address"
        }
      ],
      "name": "RoleRevoked",
      "type": "event"
    },
    {
      "anonymous": false,
      "inputs": [
        {
          "indexed": false,
          "internalType": "uint256",
          "name": "tokenId",
          "type": "uint256"
        },
        {
          "components": [
            {
              "internalType": "address payable",
              "name": "account",
              "type": "address"
            },
            {
              "internalType": "uint96",
              "name": "value",
              "type": "uint96"
            }
          ],
          "indexed": false,
          "internalType": "struct LibPart.Part[]",
          "name": "royalties",
          "type": "tuple[]"
        }
      ],
      "name": "RoyaltiesSet",
      "type": "event"
    },
    {
      "anonymous": false,
      "inputs": [
        {
          "indexed": false,
          "internalType": "uint256",
          "name": "tokenId",
          "type": "uint256"
        },
        {
          "indexed": false,
          "internalType": "address",
          "name": "unlockerAddress",
          "type": "address"
        }
      ],
      "name": "TokenUnlocked",
      "type": "event"
    },
    {
      "anonymous": false,
      "inputs": [
        {
          "indexed": true,
          "internalType": "address",
          "name": "from",
          "type": "address"
        },
        {
          "indexed": true,
          "internalType": "address",
          "name": "to",
          "type": "address"
        },
        {
          "indexed": true,
          "internalType": "uint256",
          "name": "tokenId",
          "type": "uint256"
        }
      ],
      "name": "Transfer",
      "type": "event"
    },
    {
      "anonymous": false,
      "inputs": [
        {
          "indexed": false,
          "internalType": "address",
          "name": "account",
          "type": "address"
        }
      ],
      "name": "Unpaused",
      "type": "event"
    },
    {
      "inputs": [],
      "name": "DEFAULT_ADMIN_ROLE",
      "outputs": [
        {
          "internalType": "bytes32",
          "name": "",
          "type": "bytes32"
        }
      ],
      "stateMutability": "view",
      "type": "function"
    },
    {
      "inputs": [],
      "name": "MINTER_ROLE",
      "outputs": [
        {
          "internalType": "bytes32",
          "name": "",
          "type": "bytes32"
        }
      ],
      "stateMutability": "view",
      "type": "function"
    },
    {
      "inputs": [],
      "name": "PAUSER_ROLE",
      "outputs": [
        {
          "internalType": "bytes32",
          "name": "",
          "type": "bytes32"
        }
      ],
      "stateMutability": "view",
      "type": "function"
    },
    {
      "inputs": [
        {
          "internalType": "address",
          "name": "to",
          "type": "address"
        },
        {
          "internalType": "uint256",
          "name": "tokenId",
          "type": "uint256"
        }
      ],
      "name": "approve",
      "outputs": [],
      "stateMutability": "nonpayable",
      "type": "function"
    },
    {
      "inputs": [
        {
          "internalType": "address",
          "name": "owner",
          "type": "address"
        }
      ],
      "name": "balanceOf",
      "outputs": [
        {
          "internalType": "uint256",
          "name": "",
          "type": "uint256"
        }
      ],
      "stateMutability": "view",
      "type": "function"
    },
    {
      "inputs": [
        {
          "internalType": "uint256",
          "name": "tokenId",
          "type": "uint256"
        }
      ],
      "name": "burn",
      "outputs": [],
      "stateMutability": "nonpayable",
      "type": "function"
    },
    {
      "inputs": [
        {
          "internalType": "uint256",
          "name": "tokenId",
          "type": "uint256"
        }
      ],
      "name": "getApproved",
      "outputs": [
        {
          "internalType": "address",
          "name": "",
          "type": "address"
        }
      ],
      "stateMutability": "view",
      "type": "function"
    },
    {
      "inputs": [
        {
          "internalType": "uint256",
          "name": "id",
          "type": "uint256"
        }
      ],
      "name": "getRaribleV2Royalties",
      "outputs": [
        {
          "components": [
            {
              "internalType": "address payable",
              "name": "account",
              "type": "address"
            },
            {
              "internalType": "uint96",
              "name": "value",
              "type": "uint96"
            }
          ],
          "internalType": "struct LibPart.Part[]",
          "name": "",
          "type": "tuple[]"
        }
      ],
      "stateMutability": "view",
      "type": "function"
    },
    {
      "inputs": [
        {
          "internalType": "bytes32",
          "name": "role",
          "type": "bytes32"
        }
      ],
      "name": "getRoleAdmin",
      "outputs": [
        {
          "internalType": "bytes32",
          "name": "",
          "type": "bytes32"
        }
      ],
      "stateMutability": "view",
      "type": "function"
    },
    {
      "inputs": [
        {
          "internalType": "bytes32",
          "name": "role",
          "type": "bytes32"
        },
        {
          "internalType": "uint256",
          "name": "index",
          "type": "uint256"
        }
      ],
      "name": "getRoleMember",
      "outputs": [
        {
          "internalType": "address",
          "name": "",
          "type": "address"
        }
      ],
      "stateMutability": "view",
      "type": "function"
    },
    {
      "inputs": [
        {
          "internalType": "bytes32",
          "name": "role",
          "type": "bytes32"
        }
      ],
      "name": "getRoleMemberCount",
      "outputs": [
        {
          "internalType": "uint256",
          "name": "",
          "type": "uint256"
        }
      ],
      "stateMutability": "view",
      "type": "function"
    },
    {
      "inputs": [
        {
          "internalType": "bytes32",
          "name": "role",
          "type": "bytes32"
        },
        {
          "internalType": "address",
          "name": "account",
          "type": "address"
        }
      ],
      "name": "grantRole",
      "outputs": [],
      "stateMutability": "nonpayable",
      "type": "function"
    },
    {
      "inputs": [
        {
          "internalType": "bytes32",
          "name": "role",
          "type": "bytes32"
        },
        {
          "internalType": "address",
          "name": "account",
          "type": "address"
        }
      ],
      "name": "hasRole",
      "outputs": [
        {
          "internalType": "bool",
          "name": "",
          "type": "bool"
        }
      ],
      "stateMutability": "view",
      "type": "function"
    },
    {
      "inputs": [
        {
          "internalType": "address",
          "name": "owner",
          "type": "address"
        },
        {
          "internalType": "address",
          "name": "operator",
          "type": "address"
        }
      ],
      "name": "isApprovedForAll",
      "outputs": [
        {
          "internalType": "bool",
          "name": "",
          "type": "bool"
        }
      ],
      "stateMutability": "view",
      "type": "function"
    },
    {
      "inputs": [],
      "name": "name",
      "outputs": [
        {
          "internalType": "string",
          "name": "",
          "type": "string"
        }
      ],
      "stateMutability": "view",
      "type": "function"
    },
    {
      "inputs": [],
      "name": "owner",
      "outputs": [
        {
          "internalType": "address",
          "name": "",
          "type": "address"
        }
      ],
      "stateMutability": "view",
      "type": "function"
    },
    {
      "inputs": [
        {
          "internalType": "uint256",
          "name": "tokenId",
          "type": "uint256"
        }
      ],
      "name": "ownerOf",
      "outputs": [
        {
          "internalType": "address",
          "name": "",
          "type": "address"
        }
      ],
      "stateMutability": "view",
      "type": "function"
    },
    {
      "inputs": [],
      "name": "pause",
      "outputs": [],
      "stateMutability": "nonpayable",
      "type": "function"
    },
    {
      "inputs": [],
      "name": "paused",
      "outputs": [
        {
          "internalType": "bool",
          "name": "",
          "type": "bool"
        }
      ],
      "stateMutability": "view",
      "type": "function"
    },
    {
      "inputs": [],
      "name": "renounceOwnership",
      "outputs": [],
      "stateMutability": "nonpayable",
      "type": "function"
    },
    {
      "inputs": [
        {
          "internalType": "bytes32",
          "name": "role",
          "type": "bytes32"
        },
        {
          "internalType": "address",
          "name": "account",
          "type": "address"
        }
      ],
      "name": "renounceRole",
      "outputs": [],
      "stateMutability": "nonpayable",
      "type": "function"
    },
    {
      "inputs": [
        {
          "internalType": "bytes32",
          "name": "role",
          "type": "bytes32"
        },
        {
          "internalType": "address",
          "name": "account",
          "type": "address"
        }
      ],
      "name": "revokeRole",
      "outputs": [],
      "stateMutability": "nonpayable",
      "type": "function"
    },
    {
      "inputs": [
        {
          "internalType": "uint256",
          "name": "",
          "type": "uint256"
        },
        {
          "internalType": "uint256",
          "name": "",
          "type": "uint256"
        }
      ],
      "name": "royalties",
      "outputs": [
        {
          "internalType": "address payable",
          "name": "account",
          "type": "address"
        },
        {
          "internalType": "uint96",
          "name": "value",
          "type": "uint96"
        }
      ],
      "stateMutability": "view",
      "type": "function"
    },
    {
      "inputs": [
        {
          "internalType": "address",
          "name": "from",
          "type": "address"
        },
        {
          "internalType": "address",
          "name": "to",
          "type": "address"
        },
        {
          "internalType": "uint256",
          "name": "tokenId",
          "type": "uint256"
        }
      ],
      "name": "safeTransferFrom",
      "outputs": [],
      "stateMutability": "nonpayable",
      "type": "function"
    },
    {
      "inputs": [
        {
          "internalType": "address",
          "name": "from",
          "type": "address"
        },
        {
          "internalType": "address",
          "name": "to",
          "type": "address"
        },
        {
          "internalType": "uint256",
          "name": "tokenId",
          "type": "uint256"
        },
        {
          "internalType": "bytes",
          "name": "data",
          "type": "bytes"
        }
      ],
      "name": "safeTransferFrom",
      "outputs": [],
      "stateMutability": "nonpayable",
      "type": "function"
    },
    {
      "inputs": [
        {
          "internalType": "address",
          "name": "operator",
          "type": "address"
        },
        {
          "internalType": "bool",
          "name": "approved",
          "type": "bool"
        }
      ],
      "name": "setApprovalForAll",
      "outputs": [],
      "stateMutability": "nonpayable",
      "type": "function"
    },
    {
      "inputs": [],
      "name": "symbol",
      "outputs": [
        {
          "internalType": "string",
          "name": "",
          "type": "string"
        }
      ],
      "stateMutability": "view",
      "type": "function"
    },
    {
      "inputs": [
        {
          "internalType": "uint256",
          "name": "index",
          "type": "uint256"
        }
      ],
      "name": "tokenByIndex",
      "outputs": [
        {
          "internalType": "uint256",
          "name": "",
          "type": "uint256"
        }
      ],
      "stateMutability": "view",
      "type": "function"
    },
    {
      "inputs": [
        {
          "internalType": "uint256",
          "name": "",
          "type": "uint256"
        }
      ],
      "name": "tokenLockedFromTimestamp",
      "outputs": [
        {
          "internalType": "uint256",
          "name": "",
          "type": "uint256"
        }
      ],
      "stateMutability": "view",
      "type": "function"
    },
    {
      "inputs": [
        {
          "internalType": "address",
          "name": "owner",
          "type": "address"
        },
        {
          "internalType": "uint256",
          "name": "index",
          "type": "uint256"
        }
      ],
      "name": "tokenOfOwnerByIndex",
      "outputs": [
        {
          "internalType": "uint256",
          "name": "",
          "type": "uint256"
        }
      ],
      "stateMutability": "view",
      "type": "function"
    },
    {
      "inputs": [
        {
          "internalType": "uint256",
          "name": "",
          "type": "uint256"
        }
      ],
      "name": "tokenUnlockCodeHashes",
      "outputs": [
        {
          "internalType": "bytes32",
          "name": "",
          "type": "bytes32"
        }
      ],
      "stateMutability": "view",
      "type": "function"
    },
    {
      "inputs": [
        {
          "internalType": "uint256",
          "name": "",
          "type": "uint256"
        }
      ],
      "name": "tokenUnlocked",
      "outputs": [
        {
          "internalType": "bool",
          "name": "",
          "type": "bool"
        }
      ],
      "stateMutability": "view",
      "type": "function"
    },
    {
      "inputs": [
        {
          "internalType": "uint256",
          "name": "",
          "type": "uint256"
        }
      ],
      "name": "tokenUnlockedFromTimestamp",
      "outputs": [
        {
          "internalType": "uint256",
          "name": "",
          "type": "uint256"
        }
      ],
      "stateMutability": "view",
      "type": "function"
    },
    {
      "inputs": [],
      "name": "totalSupply",
      "outputs": [
        {
          "internalType": "uint256",
          "name": "",
          "type": "uint256"
        }
      ],
      "stateMutability": "view",
      "type": "function"
    },
    {
      "inputs": [
        {
          "internalType": "address",
          "name": "from",
          "type": "address"
        },
        {
          "internalType": "address",
          "name": "to",
          "type": "address"
        },
        {
          "internalType": "uint256",
          "name": "tokenId",
          "type": "uint256"
        }
      ],
      "name": "transferFrom",
      "outputs": [],
      "stateMutability": "nonpayable",
      "type": "function"
    },
    {
      "inputs": [
        {
          "internalType": "address",
          "name": "newOwner",
          "type": "address"
        }
      ],
      "name": "transferOwnership",
      "outputs": [],
      "stateMutability": "nonpayable",
      "type": "function"
    },
    {
      "inputs": [],
      "name": "unpause",
      "outputs": [],
      "stateMutability": "nonpayable",
      "type": "function"
    },
    {
      "inputs": [
        {
          "internalType": "bytes32",
          "name": "unlockHash",
          "type": "bytes32"
        },
        {
          "internalType": "uint256",
          "name": "tokenId",
          "type": "uint256"
        }
      ],
      "name": "unlockToken",
      "outputs": [],
      "stateMutability": "nonpayable",
      "type": "function"
    },
    {
      "inputs": [
        {
          "internalType": "address",
          "name": "to",
          "type": "address"
        },
        {
          "internalType": "uint256",
          "name": "lockedFromTimestamp",
          "type": "uint256"
        },
        {
          "internalType": "bytes32",
          "name": "unlockHash",
          "type": "bytes32"
        }
      ],
      "name": "mint",
      "outputs": [],
      "stateMutability": "nonpayable",
      "type": "function"
    },
    {
      "inputs": [
        {
          "internalType": "address",
          "name": "to",
          "type": "address"
        }
      ],
      "name": "mint",
      "outputs": [],
      "stateMutability": "nonpayable",
      "type": "function"
    },
    {
      "inputs": [
        {
          "internalType": "uint256",
          "name": "tokenId",
          "type": "uint256"
        }
      ],
      "name": "tokenURI",
      "outputs": [
        {
          "internalType": "string",
          "name": "",
          "type": "string"
        }
      ],
      "stateMutability": "view",
      "type": "function"
    },
    {
      "inputs": [
        {
          "internalType": "uint256",
          "name": "_tokenId",
          "type": "uint256"
        },
        {
          "internalType": "address payable",
          "name": "_royaltiesReceipientAddress",
          "type": "address"
        },
        {
          "internalType": "uint96",
          "name": "_percentageBasisPoints",
          "type": "uint96"
        }
      ],
      "name": "setRoyalties",
      "outputs": [],
      "stateMutability": "nonpayable",
      "type": "function"
    },
    {
      "inputs": [
        {
          "internalType": "uint256",
          "name": "_tokenId",
          "type": "uint256"
        },
        {
          "internalType": "uint256",
          "name": "_salePrice",
          "type": "uint256"
        }
      ],
      "name": "royaltyInfo",
      "outputs": [
        {
          "internalType": "address",
          "name": "receiver",
          "type": "address"
        },
        {
          "internalType": "uint256",
          "name": "royaltyAmount",
          "type": "uint256"
        }
      ],
      "stateMutability": "view",
      "type": "function"
    },
    {
      "inputs": [
        {
          "internalType": "bytes4",
          "name": "interfaceId",
          "type": "bytes4"
        }
      ],
      "name": "supportsInterface",
      "outputs": [
        {
          "internalType": "bool",
          "name": "",
          "type": "bool"
        }
      ],
      "stateMutability": "view",
      "type": "function"
    }
  ],
  "bytecode": "0x60806040523480156200001157600080fd5b506040518060400160405280600e81526020017f426f6e614679646520546f6b656e0000000000000000000000000000000000008152506040518060400160405280600381526020017f42465400000000000000000000000000000000000000000000000000000000008152506040518060400160405280601d81526020017f68747470733a2f2f626f6e61667964652e696f2f6d657461646174612f00000081525082828160029080519060200190620000ce92919062000549565b508060039080519060200190620000e792919062000549565b5050506000600c60006101000a81548160ff02191690831515021790555080600e90805190602001906200011d92919062000549565b50620001426000801b62000136620001ed60201b60201c565b620001f560201b60201c565b620001837f9f2df0fed2c77648de5860a4cc508cd0818c85b8b8a1ab4ceeef8d981c8956a662000177620001ed60201b60201c565b620001f560201b60201c565b620001c47f65d7a28e3265b37a6474929f336521b332c1681b933f6cb9f3376673440d862a620001b8620001ed60201b60201c565b620001f560201b60201c565b505050620001e7620001db620001ed60201b60201c565b6200020b60201b60201c565b6200065e565b600033905090565b620002078282620002d160201b60201c565b5050565b6000600f60009054906101000a900473ffffffffffffffffffffffffffffffffffffffff16905081600f60006101000a81548173ffffffffffffffffffffffffffffffffffffffff021916908373ffffffffffffffffffffffffffffffffffffffff1602179055508173ffffffffffffffffffffffffffffffffffffffff168173ffffffffffffffffffffffffffffffffffffffff167f8be0079c531659141344cd1fd0a4f28419497f9722a3daafe3b4186f6b6457e060405160405180910390a35050565b620002e882826200031960201b62001c531760201c565b6200031481600160008581526020019081526020016000206200040a60201b62001d331790919060201c565b505050565b6200032b82826200044260201b60201c565b6200040657600160008084815260200190815260200160002060000160008373ffffffffffffffffffffffffffffffffffffffff1673ffffffffffffffffffffffffffffffffffffffff16815260200190815260200160002060006101000a81548160ff021916908315150217905550620003ab620001ed60201b60201c565b73ffffffffffffffffffffffffffffffffffffffff168173ffffffffffffffffffffffffffffffffffffffff16837f2f8788117e7eff1d82e926ec794901d17c78024a50270940304540a733656f0d60405160405180910390a45b5050565b60006200043a836000018373ffffffffffffffffffffffffffffffffffffffff1660001b620004ac60201b60201c565b905092915050565b600080600084815260200190815260200160002060000160008373ffffffffffffffffffffffffffffffffffffffff1673ffffffffffffffffffffffffffffffffffffffff16815260200190815260200160002060009054906101000a900460ff16905092915050565b6000620004c083836200052660201b60201c565b6200051b57826000018290806001815401808255809150506001900390600052602060002001600090919091909150558260000180549050836001016000848152602001908152602001600020819055506001905062000520565b600090505b92915050565b600080836001016000848152602001908152602001600020541415905092915050565b8280546200055790620005f9565b90600052602060002090601f0160209004810192826200057b5760008555620005c7565b82601f106200059657805160ff1916838001178555620005c7565b82800160010185558215620005c7579182015b82811115620005c6578251825591602001919060010190620005a9565b5b509050620005d69190620005da565b5090565b5b80821115620005f5576000816000905550600101620005db565b5090565b600060028204905060018216806200061257607f821691505b602082108114156200062957620006286200062f565b5b50919050565b7f4e487b7100000000000000000000000000000000000000000000000000000000600052602260045260246000fd5b615fb9806200066e6000396000f3fe608060405234801561001057600080fd5b50600436106102745760003560e01c80636f533f2711610151578063a3c3e1bd116100c3578063cad96cca11610087578063cad96cca146107cd578063d5391393146107fd578063d547741f1461081b578063e63ab1e914610837578063e985e9c514610855578063f2fde38b1461088557610274565b8063a3c3e1bd14610705578063b88d4fde14610721578063c4d271be1461073d578063c87b56dd1461076d578063ca15c8731461079d57610274565b80638da5cb5b116101155780638da5cb5b1461062f5780639010d07c1461064d57806391d148541461067d57806395d89b41146106ad578063a217fddf146106cb578063a22cb465146106e957610274565b80636f533f271461058a57806370a08231146105ba578063715018a6146105ea5780638456cb59146105f45780638924af74146105fe57610274565b80632f2ff15d116101ea57806342966c68116101ae57806342966c68146104a45780634f6ccce7146104c057806351f6b2e8146104f05780635c975abb146105205780636352211e1461053e5780636a6278421461056e57610274565b80632f2ff15d146104165780632f745c591461043257806336568abe146104625780633f4ba83a1461047e57806342842e0e1461048857610274565b8063143094db1161023c578063143094db1461034357806318160ddd1461035f5780631e458bee1461037d57806323b872dd14610399578063248a9ca3146103b55780632a55205a146103e557610274565b806301ffc9a71461027957806303017e42146102a957806306fdde03146102d9578063081812fc146102f7578063095ea7b314610327575b600080fd5b610293600480360381019061028e91906144f2565b6108a1565b6040516102a09190614d96565b60405180910390f35b6102c360048036038101906102be9190614544565b610960565b6040516102d09190614db1565b60405180910390f35b6102e1610978565b6040516102ee9190614dcc565b60405180910390f35b610311600480360381019061030c9190614544565b610a0a565b60405161031e9190614cbb565b60405180910390f35b610341600480360381019061033c91906143c6565b610a50565b005b61035d6004803603810190610358919061456d565b610b68565b005b610367610ce1565b60405161037491906151ae565b60405180910390f35b61039760048036038101906103929190614402565b610cee565b005b6103b360048036038101906103ae91906142c0565b610d50565b005b6103cf60048036038101906103ca9190614451565b610db0565b6040516103dc9190614db1565b60405180910390f35b6103ff60048036038101906103fa91906145bc565b610dcf565b60405161040d929190614d4b565b60405180910390f35b610430600480360381019061042b919061447a565b610fa5565b005b61044c600480360381019061044791906143c6565b610fc6565b60405161045991906151ae565b60405180910390f35b61047c6004803603810190610477919061447a565b61106b565b005b6104866110ee565b005b6104a2600480360381019061049d91906142c0565b611168565b005b6104be60048036038101906104b99190614544565b611188565b005b6104da60048036038101906104d59190614544565b6111e4565b6040516104e791906151ae565b60405180910390f35b61050a60048036038101906105059190614544565b61127b565b60405161051791906151ae565b60405180910390f35b610528611293565b6040516105359190614d96565b60405180910390f35b61055860048036038101906105539190614544565b6112aa565b6040516105659190614cbb565b60405180910390f35b6105886004803603810190610583919061425b565b61135c565b005b6105a4600480360381019061059f9190614544565b6113ec565b6040516105b191906151ae565b60405180910390f35b6105d460048036038101906105cf919061425b565b611404565b6040516105e191906151ae565b60405180910390f35b6105f26114bc565b005b6105fc6114d0565b005b610618600480360381019061061391906145bc565b61154a565b604051610626929190614cd6565b60405180910390f35b6106376115bf565b6040516106449190614cbb565b60405180910390f35b610667600480360381019061066291906144b6565b6115e9565b6040516106749190614cbb565b60405180910390f35b6106976004803603810190610692919061447a565b611618565b6040516106a49190614d96565b60405180910390f35b6106b5611682565b6040516106c29190614dcc565b60405180910390f35b6106d3611714565b6040516106e09190614db1565b60405180910390f35b61070360048036038101906106fe919061438a565b61171b565b005b61071f600480360381019061071a91906144b6565b611731565b005b61073b6004803603810190610736919061430f565b6118b1565b005b61075760048036038101906107529190614544565b611913565b6040516107649190614d96565b60405180910390f35b61078760048036038101906107829190614544565b611933565b6040516107949190614dcc565b60405180910390f35b6107b760048036038101906107b29190614451565b6119ac565b6040516107c491906151ae565b60405180910390f35b6107e760048036038101906107e29190614544565b6119d0565b6040516107f49190614d74565b60405180910390f35b610805611ad2565b6040516108129190614db1565b60405180910390f35b6108356004803603810190610830919061447a565b611af6565b005b61083f611b17565b60405161084c9190614db1565b60405180910390f35b61086f600480360381019061086a9190614284565b611b3b565b60405161087c9190614d96565b60405180910390f35b61089f600480360381019061089a919061425b565b611bcf565b005b600063cad96cca60e01b7bffffffffffffffffffffffffffffffffffffffffffffffffffffffff1916827bffffffffffffffffffffffffffffffffffffffffffffffffffffffff191614156108f9576001905061095b565b632a55205a60e01b7bffffffffffffffffffffffffffffffffffffffffffffffffffffffff1916827bffffffffffffffffffffffffffffffffffffffffffffffffffffffff1916141561094f576001905061095b565b61095882611d63565b90505b919050565b60146020528060005260406000206000915090505481565b6060600280546109879061551d565b80601f01602080910402602001604051908101604052809291908181526020018280546109b39061551d565b8015610a005780601f106109d557610100808354040283529160200191610a00565b820191906000526020600020905b8154815290600101906020018083116109e357829003601f168201915b5050505050905090565b6000610a1582611d75565b6006600083815260200190815260200160002060009054906101000a900473ffffffffffffffffffffffffffffffffffffffff169050919050565b6000610a5b826112aa565b90508073ffffffffffffffffffffffffffffffffffffffff168373ffffffffffffffffffffffffffffffffffffffff161415610acc576040517f08c379a0000000000000000000000000000000000000000000000000000000008152600401610ac3906150ae565b60405180910390fd5b8073ffffffffffffffffffffffffffffffffffffffff16610aeb611dc0565b73ffffffffffffffffffffffffffffffffffffffff161480610b1a5750610b1981610b14611dc0565b611b3b565b5b610b59576040517f08c379a0000000000000000000000000000000000000000000000000000000008152600401610b509061500e565b60405180910390fd5b610b638383611dc8565b505050565b610b70611e81565b6000600167ffffffffffffffff811115610bb3577f4e487b7100000000000000000000000000000000000000000000000000000000600052604160045260246000fd5b604051908082528060200260200182016040528015610bec57816020015b610bd961410d565b815260200190600190039081610bd15790505b5090508181600081518110610c2a577f4e487b7100000000000000000000000000000000000000000000000000000000600052603260045260246000fd5b6020026020010151602001906bffffffffffffffffffffffff1690816bffffffffffffffffffffffff16815250508281600081518110610c93577f4e487b7100000000000000000000000000000000000000000000000000000000600052603260045260246000fd5b60200260200101516000019073ffffffffffffffffffffffffffffffffffffffff16908173ffffffffffffffffffffffffffffffffffffffff1681525050610cdb8482611eff565b50505050565b6000600a80549050905090565b610cf6611e81565b8160126000610d056011612170565b8152602001908152602001600020819055508060146000610d266011612170565b815260200190815260200160002081905550610d42601161217e565b610d4b8361135c565b505050565b610d61610d5b611dc0565b82612194565b610da0576040517f08c379a0000000000000000000000000000000000000000000000000000000008152600401610d979061510e565b60405180910390fd5b610dab838383612229565b505050565b6000806000838152602001908152602001600020600101549050919050565b600080600060106000868152602001908152602001600020805480602002602001604051908101604052809291908181526020016000905b82821015610ec9578382906000526020600020016040518060400160405290816000820160009054906101000a900473ffffffffffffffffffffffffffffffffffffffff1673ffffffffffffffffffffffffffffffffffffffff1673ffffffffffffffffffffffffffffffffffffffff1681526020016000820160149054906101000a90046bffffffffffffffffffffffff166bffffffffffffffffffffffff166bffffffffffffffffffffffff168152505081526020019060010190610e07565b505050509050600081511115610f955780600081518110610f13577f4e487b7100000000000000000000000000000000000000000000000000000000600052603260045260246000fd5b60200260200101516000015161271082600081518110610f5c577f4e487b7100000000000000000000000000000000000000000000000000000000600052603260045260246000fd5b6020026020010151602001516bffffffffffffffffffffffff1686610f81919061537b565b610f8b919061534a565b9250925050610f9e565b60008092509250505b9250929050565b610fae82610db0565b610fb781612490565b610fc183836124a4565b505050565b6000610fd183611404565b8210611012576040517f08c379a000000000000000000000000000000000000000000000000000000000815260040161100990614e6e565b60405180910390fd5b600860008473ffffffffffffffffffffffffffffffffffffffff1673ffffffffffffffffffffffffffffffffffffffff168152602001908152602001600020600083815260200190815260200160002054905092915050565b611073611dc0565b73ffffffffffffffffffffffffffffffffffffffff168173ffffffffffffffffffffffffffffffffffffffff16146110e0576040517f08c379a00000000000000000000000000000000000000000000000000000000081526004016110d79061518e565b60405180910390fd5b6110ea82826124d8565b5050565b61111f7f65d7a28e3265b37a6474929f336521b332c1681b933f6cb9f3376673440d862a61111a611dc0565b611618565b61115e576040517f08c379a00000000000000000000000000000000000000000000000000000000081526004016111559061514e565b60405180910390fd5b61116661250c565b565b611183838383604051806020016040528060008152506118b1565b505050565b611199611193611dc0565b82612194565b6111d8576040517f08c379a00000000000000000000000000000000000000000000000000000000081526004016111cf9061510e565b60405180910390fd5b6111e18161256f565b50565b60006111ee610ce1565b821061122f576040517f08c379a0000000000000000000000000000000000000000000000000000000008152600401611226906150ce565b60405180910390fd5b600a8281548110611269577f4e487b7100000000000000000000000000000000000000000000000000000000600052603260045260246000fd5b90600052602060002001549050919050565b60126020528060005260406000206000915090505481565b6000600c60009054906101000a900460ff16905090565b6000806004600084815260200190815260200160002060009054906101000a900473ffffffffffffffffffffffffffffffffffffffff169050600073ffffffffffffffffffffffffffffffffffffffff168173ffffffffffffffffffffffffffffffffffffffff161415611353576040517f08c379a000000000000000000000000000000000000000000000000000000000815260040161134a9061508e565b60405180910390fd5b80915050919050565b61138d7f9f2df0fed2c77648de5860a4cc508cd0818c85b8b8a1ab4ceeef8d981c8956a6611388611dc0565b611618565b6113cc576040517f08c379a00000000000000000000000000000000000000000000000000000000081526004016113c3906150ee565b60405180910390fd5b6113df816113da600d612170565b61268c565b6113e9600d61217e565b50565b60136020528060005260406000206000915090505481565b60008073ffffffffffffffffffffffffffffffffffffffff168273ffffffffffffffffffffffffffffffffffffffff161415611475576040517f08c379a000000000000000000000000000000000000000000000000000000000815260040161146c90614fee565b60405180910390fd5b600560008373ffffffffffffffffffffffffffffffffffffffff1673ffffffffffffffffffffffffffffffffffffffff168152602001908152602001600020549050919050565b6114c4611e81565b6114ce6000612866565b565b6115017f65d7a28e3265b37a6474929f336521b332c1681b933f6cb9f3376673440d862a6114fc611dc0565b611618565b611540576040517f08c379a000000000000000000000000000000000000000000000000000000000815260040161153790614f2e565b60405180910390fd5b61154861292c565b565b6010602052816000526040600020818154811061156657600080fd5b90600052602060002001600091509150508060000160009054906101000a900473ffffffffffffffffffffffffffffffffffffffff16908060000160149054906101000a90046bffffffffffffffffffffffff16905082565b6000600f60009054906101000a900473ffffffffffffffffffffffffffffffffffffffff16905090565b6000611610826001600086815260200190815260200160002061298f90919063ffffffff16565b905092915050565b600080600084815260200190815260200160002060000160008373ffffffffffffffffffffffffffffffffffffffff1673ffffffffffffffffffffffffffffffffffffffff16815260200190815260200160002060009054906101000a900460ff16905092915050565b6060600380546116919061551d565b80601f01602080910402602001604051908101604052809291908181526020018280546116bd9061551d565b801561170a5780601f106116df5761010080835404028352916020019161170a565b820191906000526020600020905b8154815290600101906020018083116116ed57829003601f168201915b5050505050905090565b6000801b81565b61172d611726611dc0565b83836129a9565b5050565b61173a816112aa565b73ffffffffffffffffffffffffffffffffffffffff163373ffffffffffffffffffffffffffffffffffffffff16146117a7576040517f08c379a000000000000000000000000000000000000000000000000000000000815260040161179e90614e0e565b60405180910390fd5b6014600082815260200190815260200160002054826040516020016117cc9190614db1565b6040516020818303038152906040528051906020012014611822576040517f08c379a000000000000000000000000000000000000000000000000000000000815260040161181990614f0e565b60405180910390fd5b60016015600083815260200190815260200160002060006101000a81548160ff021916908315150217905550620151804261185d91906152f4565b60136000838152602001908152602001600020819055507f0fe7d9801197f79ef3b1595d19379eb58f0fff5f98b0f6d6f34c03cae5306c3781336040516118a59291906151c9565b60405180910390a15050565b6118c26118bc611dc0565b83612194565b611901576040517f08c379a00000000000000000000000000000000000000000000000000000000081526004016118f89061510e565b60405180910390fd5b61190d84848484612b16565b50505050565b60156020528060005260406000206000915054906101000a900460ff1681565b606061193e82612b72565b61197d576040517f08c379a00000000000000000000000000000000000000000000000000000000081526004016119749061506e565b60405180910390fd5b61198682612bde565b6040516020016119969190614c5f565b6040516020818303038152906040529050919050565b60006119c960016000848152602001908152602001600020612c46565b9050919050565b606060106000838152602001908152602001600020805480602002602001604051908101604052809291908181526020016000905b82821015611ac7578382906000526020600020016040518060400160405290816000820160009054906101000a900473ffffffffffffffffffffffffffffffffffffffff1673ffffffffffffffffffffffffffffffffffffffff1673ffffffffffffffffffffffffffffffffffffffff1681526020016000820160149054906101000a90046bffffffffffffffffffffffff166bffffffffffffffffffffffff166bffffffffffffffffffffffff168152505081526020019060010190611a05565b505050509050919050565b7f9f2df0fed2c77648de5860a4cc508cd0818c85b8b8a1ab4ceeef8d981c8956a681565b611aff82610db0565b611b0881612490565b611b1283836124d8565b505050565b7f65d7a28e3265b37a6474929f336521b332c1681b933f6cb9f3376673440d862a81565b6000600760008473ffffffffffffffffffffffffffffffffffffffff1673ffffffffffffffffffffffffffffffffffffffff16815260200190815260200160002060008373ffffffffffffffffffffffffffffffffffffffff1673ffffffffffffffffffffffffffffffffffffffff16815260200190815260200160002060009054906101000a900460ff16905092915050565b611bd7611e81565b600073ffffffffffffffffffffffffffffffffffffffff168173ffffffffffffffffffffffffffffffffffffffff161415611c47576040517f08c379a0000000000000000000000000000000000000000000000000000000008152600401611c3e90614eae565b60405180910390fd5b611c5081612866565b50565b611c5d8282611618565b611d2f57600160008084815260200190815260200160002060000160008373ffffffffffffffffffffffffffffffffffffffff1673ffffffffffffffffffffffffffffffffffffffff16815260200190815260200160002060006101000a81548160ff021916908315150217905550611cd4611dc0565b73ffffffffffffffffffffffffffffffffffffffff168173ffffffffffffffffffffffffffffffffffffffff16837f2f8788117e7eff1d82e926ec794901d17c78024a50270940304540a733656f0d60405160405180910390a45b5050565b6000611d5b836000018373ffffffffffffffffffffffffffffffffffffffff1660001b612c5b565b905092915050565b6000611d6e82612ccb565b9050919050565b611d7e81612b72565b611dbd576040517f08c379a0000000000000000000000000000000000000000000000000000000008152600401611db49061508e565b60405180910390fd5b50565b600033905090565b816006600083815260200190815260200160002060006101000a81548173ffffffffffffffffffffffffffffffffffffffff021916908373ffffffffffffffffffffffffffffffffffffffff160217905550808273ffffffffffffffffffffffffffffffffffffffff16611e3b836112aa565b73ffffffffffffffffffffffffffffffffffffffff167f8c5be1e5ebec7d5bd14f71427d1e84f3dd0314c0f7b2291e5b200ac8c7c3b92560405160405180910390a45050565b611e89611dc0565b73ffffffffffffffffffffffffffffffffffffffff16611ea76115bf565b73ffffffffffffffffffffffffffffffffffffffff1614611efd576040517f08c379a0000000000000000000000000000000000000000000000000000000008152600401611ef49061504e565b60405180910390fd5b565b60005b815181101561216157600073ffffffffffffffffffffffffffffffffffffffff16828281518110611f5c577f4e487b7100000000000000000000000000000000000000000000000000000000600052603260045260246000fd5b60200260200101516000015173ffffffffffffffffffffffffffffffffffffffff161415611fbf576040517f08c379a0000000000000000000000000000000000000000000000000000000008152600401611fb69061512e565b60405180910390fd5b6000828281518110611ffa577f4e487b7100000000000000000000000000000000000000000000000000000000600052603260045260246000fd5b6020026020010151602001516bffffffffffffffffffffffff161415612055576040517f08c379a000000000000000000000000000000000000000000000000000000000815260040161204c90614fae565b60405180910390fd5b601060008481526020019081526020016000208282815181106120a1577f4e487b7100000000000000000000000000000000000000000000000000000000600052603260045260246000fd5b60200260200101519080600181540180825580915050600190039060005260206000200160009091909190915060008201518160000160006101000a81548173ffffffffffffffffffffffffffffffffffffffff021916908373ffffffffffffffffffffffffffffffffffffffff16021790555060208201518160000160146101000a8154816bffffffffffffffffffffffff02191690836bffffffffffffffffffffffff1602179055505050808061215990615580565b915050611f02565b5061216c8282612d45565b5050565b600081600001549050919050565b6001816000016000828254019250508190555050565b6000806121a0836112aa565b90508073ffffffffffffffffffffffffffffffffffffffff168473ffffffffffffffffffffffffffffffffffffffff1614806121e257506121e18185611b3b565b5b8061222057508373ffffffffffffffffffffffffffffffffffffffff1661220884610a0a565b73ffffffffffffffffffffffffffffffffffffffff16145b91505092915050565b8273ffffffffffffffffffffffffffffffffffffffff16612249826112aa565b73ffffffffffffffffffffffffffffffffffffffff161461229f576040517f08c379a000000000000000000000000000000000000000000000000000000000815260040161229690614ece565b60405180910390fd5b600073ffffffffffffffffffffffffffffffffffffffff168273ffffffffffffffffffffffffffffffffffffffff16141561230f576040517f08c379a000000000000000000000000000000000000000000000000000000000815260040161230690614f4e565b60405180910390fd5b61231a838383612d82565b612325600082611dc8565b6001600560008573ffffffffffffffffffffffffffffffffffffffff1673ffffffffffffffffffffffffffffffffffffffff168152602001908152602001600020600082825461237591906153d5565b925050819055506001600560008473ffffffffffffffffffffffffffffffffffffffff1673ffffffffffffffffffffffffffffffffffffffff16815260200190815260200160002060008282546123cc91906152f4565b92505081905550816004600083815260200190815260200160002060006101000a81548173ffffffffffffffffffffffffffffffffffffffff021916908373ffffffffffffffffffffffffffffffffffffffff160217905550808273ffffffffffffffffffffffffffffffffffffffff168473ffffffffffffffffffffffffffffffffffffffff167fddf252ad1be2c89b69c2b068fc378daa952ba7f163c4a11628f55a4df523b3ef60405160405180910390a461248b838383612e90565b505050565b6124a18161249c611dc0565b612e95565b50565b6124ae8282611c53565b6124d38160016000858152602001908152602001600020611d3390919063ffffffff16565b505050565b6124e28282612f32565b612507816001600085815260200190815260200160002061301390919063ffffffff16565b505050565b612514613043565b6000600c60006101000a81548160ff0219169083151502179055507f5db9ee0a495bf2e6ff9c91a7834c1ba4fdd244a5e8aa4e537bd38aeae4b073aa612558611dc0565b6040516125659190614cbb565b60405180910390a1565b600061257a826112aa565b905061258881600084612d82565b612593600083611dc8565b6001600560008373ffffffffffffffffffffffffffffffffffffffff1673ffffffffffffffffffffffffffffffffffffffff16815260200190815260200160002060008282546125e391906153d5565b925050819055506004600083815260200190815260200160002060006101000a81549073ffffffffffffffffffffffffffffffffffffffff021916905581600073ffffffffffffffffffffffffffffffffffffffff168273ffffffffffffffffffffffffffffffffffffffff167fddf252ad1be2c89b69c2b068fc378daa952ba7f163c4a11628f55a4df523b3ef60405160405180910390a461268881600084612e90565b5050565b600073ffffffffffffffffffffffffffffffffffffffff168273ffffffffffffffffffffffffffffffffffffffff1614156126fc576040517f08c379a00000000000000000000000000000000000000000000000000000000081526004016126f39061502e565b60405180910390fd5b61270581612b72565b15612745576040517f08c379a000000000000000000000000000000000000000000000000000000000815260040161273c90614eee565b60405180910390fd5b61275160008383612d82565b6001600560008473ffffffffffffffffffffffffffffffffffffffff1673ffffffffffffffffffffffffffffffffffffffff16815260200190815260200160002060008282546127a191906152f4565b92505081905550816004600083815260200190815260200160002060006101000a81548173ffffffffffffffffffffffffffffffffffffffff021916908373ffffffffffffffffffffffffffffffffffffffff160217905550808273ffffffffffffffffffffffffffffffffffffffff16600073ffffffffffffffffffffffffffffffffffffffff167fddf252ad1be2c89b69c2b068fc378daa952ba7f163c4a11628f55a4df523b3ef60405160405180910390a461286260008383612e90565b5050565b6000600f60009054906101000a900473ffffffffffffffffffffffffffffffffffffffff16905081600f60006101000a81548173ffffffffffffffffffffffffffffffffffffffff021916908373ffffffffffffffffffffffffffffffffffffffff1602179055508173ffffffffffffffffffffffffffffffffffffffff168173ffffffffffffffffffffffffffffffffffffffff167f8be0079c531659141344cd1fd0a4f28419497f9722a3daafe3b4186f6b6457e060405160405180910390a35050565b61293461308c565b6001600c60006101000a81548160ff0219169083151502179055507f62e78cea01bee320cd4e420270b5ea74000d11b0c9f74754ebdbfc544b05a258612978611dc0565b6040516129859190614cbb565b60405180910390a1565b600061299e83600001836130d6565b60001c905092915050565b8173ffffffffffffffffffffffffffffffffffffffff168373ffffffffffffffffffffffffffffffffffffffff161415612a18576040517f08c379a0000000000000000000000000000000000000000000000000000000008152600401612a0f90614f6e565b60405180910390fd5b80600760008573ffffffffffffffffffffffffffffffffffffffff1673ffffffffffffffffffffffffffffffffffffffff16815260200190815260200160002060008473ffffffffffffffffffffffffffffffffffffffff1673ffffffffffffffffffffffffffffffffffffffff16815260200190815260200160002060006101000a81548160ff0219169083151502179055508173ffffffffffffffffffffffffffffffffffffffff168373ffffffffffffffffffffffffffffffffffffffff167f17307eab39ab6107e8899845ad3d59bd9653f200f220920489ca2b5937696c3183604051612b099190614d96565b60405180910390a3505050565b612b21848484612229565b612b2d84848484613127565b612b6c576040517f08c379a0000000000000000000000000000000000000000000000000000000008152600401612b6390614e8e565b60405180910390fd5b50505050565b60008073ffffffffffffffffffffffffffffffffffffffff166004600084815260200190815260200160002060009054906101000a900473ffffffffffffffffffffffffffffffffffffffff1673ffffffffffffffffffffffffffffffffffffffff1614159050919050565b6060612be982611d75565b6000612bf36132be565b90506000815111612c135760405180602001604052806000815250612c3e565b80612c1d84613350565b604051602001612c2e929190614c3b565b6040516020818303038152906040525b915050919050565b6000612c54826000016134fd565b9050919050565b6000612c67838361350e565b612cc0578260000182908060018154018082558091505060019003906000526020600020016000909190919091505582600001805490508360010160008481526020019081526020016000208190555060019050612cc5565b600090505b92915050565b60007f780e9d63000000000000000000000000000000000000000000000000000000007bffffffffffffffffffffffffffffffffffffffffffffffffffffffff1916827bffffffffffffffffffffffffffffffffffffffffffffffffffffffff19161480612d3e5750612d3d82613531565b5b9050919050565b7f3fa96d7b6bcbfe71ef171666d84db3cf52fa2d1c8afdb1cc8e486177f208b7df8282604051612d769291906151f2565b60405180910390a15050565b4260126000838152602001908152602001600020541180612dc057506015600082815260200190815260200160002060009054906101000a900460ff165b612dff576040517f08c379a0000000000000000000000000000000000000000000000000000000008152600401612df69061516e565b60405180910390fd5b42601360008381526020019081526020016000205410612e54576040517f08c379a0000000000000000000000000000000000000000000000000000000008152600401612e4b90614f8e565b60405180910390fd5b60006015600083815260200190815260200160002060006101000a81548160ff021916908315150217905550612e8b838383613613565b505050565b505050565b612e9f8282611618565b612f2e57612ec48173ffffffffffffffffffffffffffffffffffffffff166014613623565b612ed28360001c6020613623565b604051602001612ee3929190614c81565b6040516020818303038152906040526040517f08c379a0000000000000000000000000000000000000000000000000000000008152600401612f259190614dcc565b60405180910390fd5b5050565b612f3c8282611618565b1561300f57600080600084815260200190815260200160002060000160008373ffffffffffffffffffffffffffffffffffffffff1673ffffffffffffffffffffffffffffffffffffffff16815260200190815260200160002060006101000a81548160ff021916908315150217905550612fb4611dc0565b73ffffffffffffffffffffffffffffffffffffffff168173ffffffffffffffffffffffffffffffffffffffff16837ff6391f5c32d9c69d2a47ea670b442974b53935d1edc7fd64eb21e047a839171b60405160405180910390a45b5050565b600061303b836000018373ffffffffffffffffffffffffffffffffffffffff1660001b61391d565b905092915050565b61304b611293565b61308a576040517f08c379a000000000000000000000000000000000000000000000000000000000815260040161308190614e4e565b60405180910390fd5b565b613094611293565b156130d4576040517f08c379a00000000000000000000000000000000000000000000000000000000081526004016130cb90614fce565b60405180910390fd5b565b6000826000018281548110613114577f4e487b7100000000000000000000000000000000000000000000000000000000600052603260045260246000fd5b9060005260206000200154905092915050565b60006131488473ffffffffffffffffffffffffffffffffffffffff16613aa3565b156132b1578373ffffffffffffffffffffffffffffffffffffffff1663150b7a02613171611dc0565b8786866040518563ffffffff1660e01b81526004016131939493929190614cff565b602060405180830381600087803b1580156131ad57600080fd5b505af19250505080156131de57506040513d601f19601f820116820180604052508101906131db919061451b565b60015b613261573d806000811461320e576040519150601f19603f3d011682016040523d82523d6000602084013e613213565b606091505b50600081511415613259576040517f08c379a000000000000000000000000000000000000000000000000000000000815260040161325090614e8e565b60405180910390fd5b805181602001fd5b63150b7a0260e01b7bffffffffffffffffffffffffffffffffffffffffffffffffffffffff1916817bffffffffffffffffffffffffffffffffffffffffffffffffffffffff1916149150506132b6565b600190505b949350505050565b6060600e80546132cd9061551d565b80601f01602080910402602001604051908101604052809291908181526020018280546132f99061551d565b80156133465780601f1061331b57610100808354040283529160200191613346565b820191906000526020600020905b81548152906001019060200180831161332957829003601f168201915b5050505050905090565b60606000821415613398576040518060400160405280600181526020017f300000000000000000000000000000000000000000000000000000000000000081525090506134f8565b600082905060005b600082146133ca5780806133b390615580565b915050600a826133c3919061534a565b91506133a0565b60008167ffffffffffffffff81111561340c577f4e487b7100000000000000000000000000000000000000000000000000000000600052604160045260246000fd5b6040519080825280601f01601f19166020018201604052801561343e5781602001600182028036833780820191505090505b5090505b600085146134f15760018261345791906153d5565b9150600a8561346691906155c9565b603061347291906152f4565b60f81b8183815181106134ae577f4e487b7100000000000000000000000000000000000000000000000000000000600052603260045260246000fd5b60200101907effffffffffffffffffffffffffffffffffffffffffffffffffffffffffffff1916908160001a905350600a856134ea919061534a565b9450613442565b8093505050505b919050565b600081600001805490509050919050565b600080836001016000848152602001908152602001600020541415905092915050565b60007f80ac58cd000000000000000000000000000000000000000000000000000000007bffffffffffffffffffffffffffffffffffffffffffffffffffffffff1916827bffffffffffffffffffffffffffffffffffffffffffffffffffffffff191614806135fc57507f5b5e139f000000000000000000000000000000000000000000000000000000007bffffffffffffffffffffffffffffffffffffffffffffffffffffffff1916827bffffffffffffffffffffffffffffffffffffffffffffffffffffffff1916145b8061360c575061360b82613ac6565b5b9050919050565b61361e838383613b40565b505050565b606060006002836002613636919061537b565b61364091906152f4565b67ffffffffffffffff81111561367f577f4e487b7100000000000000000000000000000000000000000000000000000000600052604160045260246000fd5b6040519080825280601f01601f1916602001820160405280156136b15781602001600182028036833780820191505090505b5090507f30000000000000000000000000000000000000000000000000000000000000008160008151811061370f577f4e487b7100000000000000000000000000000000000000000000000000000000600052603260045260246000fd5b60200101907effffffffffffffffffffffffffffffffffffffffffffffffffffffffffffff1916908160001a9053507f780000000000000000000000000000000000000000000000000000000000000081600181518110613799577f4e487b7100000000000000000000000000000000000000000000000000000000600052603260045260246000fd5b60200101907effffffffffffffffffffffffffffffffffffffffffffffffffffffffffffff1916908160001a905350600060018460026137d9919061537b565b6137e391906152f4565b90505b60018111156138cf577f3031323334353637383961626364656600000000000000000000000000000000600f86166010811061384b577f4e487b7100000000000000000000000000000000000000000000000000000000600052603260045260246000fd5b1a60f81b828281518110613888577f4e487b7100000000000000000000000000000000000000000000000000000000600052603260045260246000fd5b60200101907effffffffffffffffffffffffffffffffffffffffffffffffffffffffffffff1916908160001a905350600485901c9450806138c8906154f3565b90506137e6565b5060008414613913576040517f08c379a000000000000000000000000000000000000000000000000000000000815260040161390a90614dee565b60405180910390fd5b8091505092915050565b60008083600101600084815260200190815260200160002054905060008114613a9757600060018261394f91906153d5565b905060006001866000018054905061396791906153d5565b9050818114613a225760008660000182815481106139ae577f4e487b7100000000000000000000000000000000000000000000000000000000600052603260045260246000fd5b90600052602060002001549050808760000184815481106139f8577f4e487b7100000000000000000000000000000000000000000000000000000000600052603260045260246000fd5b90600052602060002001819055508387600101600083815260200190815260200160002081905550505b85600001805480613a5c577f4e487b7100000000000000000000000000000000000000000000000000000000600052603160045260246000fd5b600190038181906000526020600020016000905590558560010160008681526020019081526020016000206000905560019350505050613a9d565b60009150505b92915050565b6000808273ffffffffffffffffffffffffffffffffffffffff163b119050919050565b60007f5a05180f000000000000000000000000000000000000000000000000000000007bffffffffffffffffffffffffffffffffffffffffffffffffffffffff1916827bffffffffffffffffffffffffffffffffffffffffffffffffffffffff19161480613b395750613b3882613b98565b5b9050919050565b613b4b838383613c12565b613b53611293565b15613b93576040517f08c379a0000000000000000000000000000000000000000000000000000000008152600401613b8a90614e2e565b60405180910390fd5b505050565b60007f7965db0b000000000000000000000000000000000000000000000000000000007bffffffffffffffffffffffffffffffffffffffffffffffffffffffff1916827bffffffffffffffffffffffffffffffffffffffffffffffffffffffff19161480613c0b5750613c0a82613d26565b5b9050919050565b613c1d838383613d90565b600073ffffffffffffffffffffffffffffffffffffffff168373ffffffffffffffffffffffffffffffffffffffff161415613c6057613c5b81613d95565b613c9f565b8173ffffffffffffffffffffffffffffffffffffffff168373ffffffffffffffffffffffffffffffffffffffff1614613c9e57613c9d8382613dde565b5b5b600073ffffffffffffffffffffffffffffffffffffffff168273ffffffffffffffffffffffffffffffffffffffff161415613ce257613cdd81613f4b565b613d21565b8273ffffffffffffffffffffffffffffffffffffffff168273ffffffffffffffffffffffffffffffffffffffff1614613d2057613d1f828261408e565b5b5b505050565b60007f01ffc9a7000000000000000000000000000000000000000000000000000000007bffffffffffffffffffffffffffffffffffffffffffffffffffffffff1916827bffffffffffffffffffffffffffffffffffffffffffffffffffffffff1916149050919050565b505050565b600a80549050600b600083815260200190815260200160002081905550600a81908060018154018082558091505060019003906000526020600020016000909190919091505550565b60006001613deb84611404565b613df591906153d5565b9050600060096000848152602001908152602001600020549050818114613eda576000600860008673ffffffffffffffffffffffffffffffffffffffff1673ffffffffffffffffffffffffffffffffffffffff168152602001908152602001600020600084815260200190815260200160002054905080600860008773ffffffffffffffffffffffffffffffffffffffff1673ffffffffffffffffffffffffffffffffffffffff168152602001908152602001600020600084815260200190815260200160002081905550816009600083815260200190815260200160002081905550505b6009600084815260200190815260200160002060009055600860008573ffffffffffffffffffffffffffffffffffffffff1673ffffffffffffffffffffffffffffffffffffffff16815260200190815260200160002060008381526020019081526020016000206000905550505050565b60006001600a80549050613f5f91906153d5565b90506000600b60008481526020019081526020016000205490506000600a8381548110613fb5577f4e487b7100000000000000000000000000000000000000000000000000000000600052603260045260246000fd5b9060005260206000200154905080600a8381548110613ffd577f4e487b7100000000000000000000000000000000000000000000000000000000600052603260045260246000fd5b906000526020600020018190555081600b600083815260200190815260200160002081905550600b600085815260200190815260200160002060009055600a805480614072577f4e487b7100000000000000000000000000000000000000000000000000000000600052603160045260246000fd5b6001900381819060005260206000200160009055905550505050565b600061409983611404565b905081600860008573ffffffffffffffffffffffffffffffffffffffff1673ffffffffffffffffffffffffffffffffffffffff168152602001908152602001600020600083815260200190815260200160002081905550806009600084815260200190815260200160002081905550505050565b6040518060400160405280600073ffffffffffffffffffffffffffffffffffffffff16815260200160006bffffffffffffffffffffffff1681525090565b600061415e61415984615247565b615222565b90508281526020810184848401111561417657600080fd5b6141818482856154b1565b509392505050565b60008135905061419881615ee2565b92915050565b6000813590506141ad81615ef9565b92915050565b6000813590506141c281615f10565b92915050565b6000813590506141d781615f27565b92915050565b6000813590506141ec81615f3e565b92915050565b60008151905061420181615f3e565b92915050565b600082601f83011261421857600080fd5b813561422884826020860161414b565b91505092915050565b60008135905061424081615f55565b92915050565b60008135905061425581615f6c565b92915050565b60006020828403121561426d57600080fd5b600061427b84828501614189565b91505092915050565b6000806040838503121561429757600080fd5b60006142a585828601614189565b92505060206142b685828601614189565b9150509250929050565b6000806000606084860312156142d557600080fd5b60006142e386828701614189565b93505060206142f486828701614189565b925050604061430586828701614231565b9150509250925092565b6000806000806080858703121561432557600080fd5b600061433387828801614189565b945050602061434487828801614189565b935050604061435587828801614231565b925050606085013567ffffffffffffffff81111561437257600080fd5b61437e87828801614207565b91505092959194509250565b6000806040838503121561439d57600080fd5b60006143ab85828601614189565b92505060206143bc858286016141b3565b9150509250929050565b600080604083850312156143d957600080fd5b60006143e785828601614189565b92505060206143f885828601614231565b9150509250929050565b60008060006060848603121561441757600080fd5b600061442586828701614189565b935050602061443686828701614231565b9250506040614447868287016141c8565b9150509250925092565b60006020828403121561446357600080fd5b6000614471848285016141c8565b91505092915050565b6000806040838503121561448d57600080fd5b600061449b858286016141c8565b92505060206144ac85828601614189565b9150509250929050565b600080604083850312156144c957600080fd5b60006144d7858286016141c8565b92505060206144e885828601614231565b9150509250929050565b60006020828403121561450457600080fd5b6000614512848285016141dd565b91505092915050565b60006020828403121561452d57600080fd5b600061453b848285016141f2565b91505092915050565b60006020828403121561455657600080fd5b600061456484828501614231565b91505092915050565b60008060006060848603121561458257600080fd5b600061459086828701614231565b93505060206145a18682870161419e565b92505060406145b286828701614246565b9150509250925092565b600080604083850312156145cf57600080fd5b60006145dd85828601614231565b92505060206145ee85828601614231565b9150509250929050565b60006146048383614bdf565b60408301905092915050565b6146198161541b565b82525050565b6146288161541b565b82525050565b61463781615409565b82525050565b600061464882615288565b61465281856152b6565b935061465d83615278565b8060005b8381101561468e57815161467588826145f8565b9750614680836152a9565b925050600181019050614661565b5085935050505092915050565b6146a48161542d565b82525050565b6146b381615439565b82525050565b60006146c482615293565b6146ce81856152c7565b93506146de8185602086016154c0565b6146e7816156b6565b840191505092915050565b60006146fd8261529e565b61470781856152d8565b93506147178185602086016154c0565b614720816156b6565b840191505092915050565b60006147368261529e565b61474081856152e9565b93506147508185602086016154c0565b80840191505092915050565b60006147696020836152d8565b9150614774826156c7565b602082019050919050565b600061478c6032836152d8565b9150614797826156f0565b604082019050919050565b60006147af602b836152d8565b91506147ba8261573f565b604082019050919050565b60006147d26014836152d8565b91506147dd8261578e565b602082019050919050565b60006147f5602b836152d8565b9150614800826157b7565b604082019050919050565b60006148186032836152d8565b915061482382615806565b604082019050919050565b600061483b6026836152d8565b915061484682615855565b604082019050919050565b600061485e6025836152d8565b9150614869826158a4565b604082019050919050565b6000614881601c836152d8565b915061488c826158f3565b602082019050919050565b60006148a46024836152d8565b91506148af8261591c565b604082019050919050565b60006148c7603e836152d8565b91506148d28261596b565b604082019050919050565b60006148ea6024836152d8565b91506148f5826159ba565b604082019050919050565b600061490d6019836152d8565b915061491882615a09565b602082019050919050565b60006149306030836152d8565b915061493b82615a32565b604082019050919050565b60006149536020836152d8565b915061495e82615a81565b602082019050919050565b60006149766010836152d8565b915061498182615aaa565b602082019050919050565b60006149996029836152d8565b91506149a482615ad3565b604082019050919050565b60006149bc603e836152d8565b91506149c782615b22565b604082019050919050565b60006149df6020836152d8565b91506149ea82615b71565b602082019050919050565b6000614a026005836152e9565b9150614a0d82615b9a565b600582019050919050565b6000614a256020836152d8565b9150614a3082615bc3565b602082019050919050565b6000614a48602f836152d8565b9150614a5382615bec565b604082019050919050565b6000614a6b6018836152d8565b9150614a7682615c3b565b602082019050919050565b6000614a8e6021836152d8565b9150614a9982615c64565b604082019050919050565b6000614ab1602c836152d8565b9150614abc82615cb3565b604082019050919050565b6000614ad46017836152e9565b9150614adf82615d02565b601782019050919050565b6000614af7603d836152d8565b9150614b0282615d2b565b604082019050919050565b6000614b1a602e836152d8565b9150614b2582615d7a565b604082019050919050565b6000614b3d601b836152d8565b9150614b4882615dc9565b602082019050919050565b6000614b606040836152d8565b9150614b6b82615df2565b604082019050919050565b6000614b83601b836152d8565b9150614b8e82615e41565b602082019050919050565b6000614ba66011836152e9565b9150614bb182615e6a565b601182019050919050565b6000614bc9602f836152d8565b9150614bd482615e93565b604082019050919050565b604082016000820151614bf56000850182614610565b506020820151614c086020850182614c1d565b50505050565b614c178161548f565b82525050565b614c2681615499565b82525050565b614c3581615499565b82525050565b6000614c47828561472b565b9150614c53828461472b565b91508190509392505050565b6000614c6b828461472b565b9150614c76826149f5565b915081905092915050565b6000614c8c82614ac7565b9150614c98828561472b565b9150614ca382614b99565b9150614caf828461472b565b91508190509392505050565b6000602082019050614cd0600083018461462e565b92915050565b6000604082019050614ceb600083018561461f565b614cf86020830184614c2c565b9392505050565b6000608082019050614d14600083018761462e565b614d21602083018661462e565b614d2e6040830185614c0e565b8181036060830152614d4081846146b9565b905095945050505050565b6000604082019050614d60600083018561462e565b614d6d6020830184614c0e565b9392505050565b60006020820190508181036000830152614d8e818461463d565b905092915050565b6000602082019050614dab600083018461469b565b92915050565b6000602082019050614dc660008301846146aa565b92915050565b60006020820190508181036000830152614de681846146f2565b905092915050565b60006020820190508181036000830152614e078161475c565b9050919050565b60006020820190508181036000830152614e278161477f565b9050919050565b60006020820190508181036000830152614e47816147a2565b9050919050565b60006020820190508181036000830152614e67816147c5565b9050919050565b60006020820190508181036000830152614e87816147e8565b9050919050565b60006020820190508181036000830152614ea78161480b565b9050919050565b60006020820190508181036000830152614ec78161482e565b9050919050565b60006020820190508181036000830152614ee781614851565b9050919050565b60006020820190508181036000830152614f0781614874565b9050919050565b60006020820190508181036000830152614f2781614897565b9050919050565b60006020820190508181036000830152614f47816148ba565b9050919050565b60006020820190508181036000830152614f67816148dd565b9050919050565b60006020820190508181036000830152614f8781614900565b9050919050565b60006020820190508181036000830152614fa781614923565b9050919050565b60006020820190508181036000830152614fc781614946565b9050919050565b60006020820190508181036000830152614fe781614969565b9050919050565b600060208201905081810360008301526150078161498c565b9050919050565b60006020820190508181036000830152615027816149af565b9050919050565b60006020820190508181036000830152615047816149d2565b9050919050565b6000602082019050818103600083015261506781614a18565b9050919050565b6000602082019050818103600083015261508781614a3b565b9050919050565b600060208201905081810360008301526150a781614a5e565b9050919050565b600060208201905081810360008301526150c781614a81565b9050919050565b600060208201905081810360008301526150e781614aa4565b9050919050565b6000602082019050818103600083015261510781614aea565b9050919050565b6000602082019050818103600083015261512781614b0d565b9050919050565b6000602082019050818103600083015261514781614b30565b9050919050565b6000602082019050818103600083015261516781614b53565b9050919050565b6000602082019050818103600083015261518781614b76565b9050919050565b600060208201905081810360008301526151a781614bbc565b9050919050565b60006020820190506151c36000830184614c0e565b92915050565b60006040820190506151de6000830185614c0e565b6151eb602083018461462e565b9392505050565b60006040820190506152076000830185614c0e565b8181036020830152615219818461463d565b90509392505050565b600061522c61523d565b9050615238828261554f565b919050565b6000604051905090565b600067ffffffffffffffff82111561526257615261615687565b5b61526b826156b6565b9050602081019050919050565b6000819050602082019050919050565b600081519050919050565b600081519050919050565b600081519050919050565b6000602082019050919050565b600082825260208201905092915050565b600082825260208201905092915050565b600082825260208201905092915050565b600081905092915050565b60006152ff8261548f565b915061530a8361548f565b9250827fffffffffffffffffffffffffffffffffffffffffffffffffffffffffffffffff0382111561533f5761533e6155fa565b5b828201905092915050565b60006153558261548f565b91506153608361548f565b9250826153705761536f615629565b5b828204905092915050565b60006153868261548f565b91506153918361548f565b9250817fffffffffffffffffffffffffffffffffffffffffffffffffffffffffffffffff04831182151516156153ca576153c96155fa565b5b828202905092915050565b60006153e08261548f565b91506153eb8361548f565b9250828210156153fe576153fd6155fa565b5b828203905092915050565b60006154148261546f565b9050919050565b60006154268261546f565b9050919050565b60008115159050919050565b6000819050919050565b60007fffffffff0000000000000000000000000000000000000000000000000000000082169050919050565b600073ffffffffffffffffffffffffffffffffffffffff82169050919050565b6000819050919050565b60006bffffffffffffffffffffffff82169050919050565b82818337600083830152505050565b60005b838110156154de5780820151818401526020810190506154c3565b838111156154ed576000848401525b50505050565b60006154fe8261548f565b91506000821415615512576155116155fa565b5b600182039050919050565b6000600282049050600182168061553557607f821691505b6020821081141561554957615548615658565b5b50919050565b615558826156b6565b810181811067ffffffffffffffff8211171561557757615576615687565b5b80604052505050565b600061558b8261548f565b91507fffffffffffffffffffffffffffffffffffffffffffffffffffffffffffffffff8214156155be576155bd6155fa565b5b600182019050919050565b60006155d48261548f565b91506155df8361548f565b9250826155ef576155ee615629565b5b828206905092915050565b7f4e487b7100000000000000000000000000000000000000000000000000000000600052601160045260246000fd5b7f4e487b7100000000000000000000000000000000000000000000000000000000600052601260045260246000fd5b7f4e487b7100000000000000000000000000000000000000000000000000000000600052602260045260246000fd5b7f4e487b7100000000000000000000000000000000000000000000000000000000600052604160045260246000fd5b6000601f19601f8301169050919050565b7f537472696e67733a20686578206c656e67746820696e73756666696369656e74600082015250565b7f426f6e6166796465546f6b656e3a204f6e6c7920746865204f776e657220636160008201527f6e20756e6c6f636b2074686520546f6b656e0000000000000000000000000000602082015250565b7f4552433732315061757361626c653a20746f6b656e207472616e73666572207760008201527f68696c6520706175736564000000000000000000000000000000000000000000602082015250565b7f5061757361626c653a206e6f7420706175736564000000000000000000000000600082015250565b7f455243373231456e756d657261626c653a206f776e657220696e646578206f7560008201527f74206f6620626f756e6473000000000000000000000000000000000000000000602082015250565b7f4552433732313a207472616e7366657220746f206e6f6e20455243373231526560008201527f63656976657220696d706c656d656e7465720000000000000000000000000000602082015250565b7f4f776e61626c653a206e6577206f776e657220697320746865207a65726f206160008201527f6464726573730000000000000000000000000000000000000000000000000000602082015250565b7f4552433732313a207472616e736665722066726f6d20696e636f72726563742060008201527f6f776e6572000000000000000000000000000000000000000000000000000000602082015250565b7f4552433732313a20746f6b656e20616c7265616479206d696e74656400000000600082015250565b7f426f6e6166796465546f6b656e3a20556e6c6f636b20436f646520496e636f7260008201527f7265637400000000000000000000000000000000000000000000000000000000602082015250565b7f4552433732315072657365744d696e7465725061757365724175746f49643a2060008201527f6d75737420686176652070617573657220726f6c6520746f2070617573650000602082015250565b7f4552433732313a207472616e7366657220746f20746865207a65726f2061646460008201527f7265737300000000000000000000000000000000000000000000000000000000602082015250565b7f4552433732313a20617070726f766520746f2063616c6c657200000000000000600082015250565b7f426f6e61667964653a20556e6c6f636b2074696d6564206f75742e20506c656160008201527f736520756e6c6f636b20616761696e2e00000000000000000000000000000000602082015250565b7f526f79616c74792076616c75652073686f756c6420626520706f736974697665600082015250565b7f5061757361626c653a2070617573656400000000000000000000000000000000600082015250565b7f4552433732313a2061646472657373207a65726f206973206e6f74206120766160008201527f6c6964206f776e65720000000000000000000000000000000000000000000000602082015250565b7f4552433732313a20617070726f76652063616c6c6572206973206e6f7420746f60008201527f6b656e206f776e6572206e6f7220617070726f76656420666f7220616c6c0000602082015250565b7f4552433732313a206d696e7420746f20746865207a65726f2061646472657373600082015250565b7f2e6a736f6e000000000000000000000000000000000000000000000000000000600082015250565b7f4f776e61626c653a2063616c6c6572206973206e6f7420746865206f776e6572600082015250565b7f4552433732314d657461646174613a2055524920717565727920666f72206e6f60008201527f6e6578697374656e7420746f6b656e0000000000000000000000000000000000602082015250565b7f4552433732313a20696e76616c696420746f6b656e2049440000000000000000600082015250565b7f4552433732313a20617070726f76616c20746f2063757272656e74206f776e6560008201527f7200000000000000000000000000000000000000000000000000000000000000602082015250565b7f455243373231456e756d657261626c653a20676c6f62616c20696e646578206f60008201527f7574206f6620626f756e64730000000000000000000000000000000000000000602082015250565b7f416363657373436f6e74726f6c3a206163636f756e7420000000000000000000600082015250565b7f4552433732315072657365744d696e7465725061757365724175746f49643a2060008201527f6d7573742068617665206d696e74657220726f6c6520746f206d696e74000000602082015250565b7f4552433732313a2063616c6c6572206973206e6f7420746f6b656e206f776e6560008201527f72206e6f7220617070726f766564000000000000000000000000000000000000602082015250565b7f526563697069656e742073686f756c642062652070726573656e740000000000600082015250565b7f4552433732315072657365744d696e7465725061757365724175746f49643a2060008201527f6d75737420686176652070617573657220726f6c6520746f20756e7061757365602082015250565b7f426f6e6166796465546f6b656e3a20546f6b656e206c6f636b65640000000000600082015250565b7f206973206d697373696e6720726f6c6520000000000000000000000000000000600082015250565b7f416363657373436f6e74726f6c3a2063616e206f6e6c792072656e6f756e636560008201527f20726f6c657320666f722073656c660000000000000000000000000000000000602082015250565b615eeb81615409565b8114615ef657600080fd5b50565b615f028161541b565b8114615f0d57600080fd5b50565b615f198161542d565b8114615f2457600080fd5b50565b615f3081615439565b8114615f3b57600080fd5b50565b615f4781615443565b8114615f5257600080fd5b50565b615f5e8161548f565b8114615f6957600080fd5b50565b615f7581615499565b8114615f8057600080fd5b5056fea2646970667358221220d9f7625514065a78346743ac234a7996ffd593643255988fbe5790eb15778e9364736f6c63430008030033",
  "immutableReferences": {},
  "source": "// SPDX-License-Identifier: MIT\r\npragma solidity 0.8.3;\r\nimport \"@openzeppelin/contracts/token/ERC721/presets/ERC721PresetMinterPauserAutoId.sol\";\r\n// import \"@openzeppelin/contracts/token/ERC721/extensions/ERC721URIStorage.sol\";\r\nimport \"@openzeppelin/contracts/utils/Counters.sol\";\r\nimport \"@openzeppelin/contracts/access/Ownable.sol\";\r\n// import \"@openzeppelin/token/ERC721/ERC721.sol\";\r\nimport \"./@rarible/royalties/contracts/impl/RoyaltiesV2Impl.sol\";\r\nimport \"./@rarible/royalties/contracts/LibPart.sol\";\r\nimport \"./@rarible/royalties/contracts/LibRoyaltiesV2.sol\";\r\n\r\n// Need to implement gas costs adjustment (https://github.com/AboldUSER/ERC721A)\r\n// Deploy NFT on a test net (https://ropsten.rarible.com/) and use the Rarible Marketplace UI to make sure everything works properly\r\n// https://medium.com/rarible-dao/rarible-nft-royalties-in-your-custom-smart-contract-b07550e89ef4\r\n\r\n//https://wizard.openzeppelin.com/#erc721\r\n\r\ncontract BonafydeToken is ERC721PresetMinterPauserAutoId, Ownable, RoyaltiesV2Impl {\r\n    // uint256 private value;\r\n    using Counters for Counters.Counter;\r\n    Counters.Counter private _tokenIds;\r\n    mapping (uint => uint) public tokenLockedFromTimestamp;\r\n    mapping (uint => uint) public tokenUnlockedFromTimestamp;\r\n    mapping (uint => bytes32) public tokenUnlockCodeHashes;\r\n    mapping (uint => bool) public tokenUnlocked;\r\n    event TokenUnlocked(uint tokenId, address unlockerAddress);\r\n\r\n    //Mintable\r\n    bytes4 private constant _INTERFACE_ID_ERC2981 = 0x2a55205a;\r\n    constructor() ERC721PresetMinterPauserAutoId(\"BonaFyde Token\", \"BFT\", \"https://bonafyde.io/metadata/\") {}\r\n\r\n    function _beforeTokenTransfer(address from, address to, uint256 tokenId) internal override {\r\n        require(tokenLockedFromTimestamp[tokenId] > block.timestamp || tokenUnlocked[tokenId], \"BonafydeToken: Token locked\");\r\n        require(tokenUnlockedFromTimestamp[tokenId] < block.timestamp, \"Bonafyde: Unlock timed out. Please unlock again.\");\r\n        tokenUnlocked[tokenId] = false;\r\n        super._beforeTokenTransfer(from, to, tokenId);\r\n    }\r\n\r\n    //need to lock token after certain amount of time its been unlocked\r\n\r\n    function unlockToken(bytes32 unlockHash, uint256 tokenId) public {\r\n        require(msg.sender == ownerOf(tokenId), \"BonafydeToken: Only the Owner can unlock the Token\"); //not 100% sure about that one yet\r\n        require(keccak256(abi.encode(unlockHash)) == tokenUnlockCodeHashes[tokenId], \"BonafydeToken: Unlock Code Incorrect\");\r\n        tokenUnlocked[tokenId] = true;\r\n        //24 hours until relock\r\n        tokenUnlockedFromTimestamp[tokenId] = block.timestamp+86400;\r\n        emit TokenUnlocked(tokenId, msg.sender);\r\n    }\r\n\r\n    // function lockToken(uint256 tokenId) public {\r\n    //     require(msg.sender == ownerOf(tokenId), \"BonafydeToken: Only the Owner can lock the Token\"); //not 100% sure about that one yet\r\n    //     tokenUnlocked[tokenId] = false;\r\n    // }\r\n\r\n    /**\r\n    * This is the mint function that sets the unlock code, then calls the parent mint\r\n    */\r\n    //, string memory tokenuri\r\n    function mint(address to, uint lockedFromTimestamp, bytes32 unlockHash) public onlyOwner {\r\n        // _setTokenURI(_tokenIds.current(), tokenuri);\r\n        tokenLockedFromTimestamp[_tokenIds.current()] = lockedFromTimestamp;\r\n        tokenUnlockCodeHashes[_tokenIds.current()] = unlockHash;\r\n        _tokenIds.increment();\r\n        super.mint(to);\r\n        //call royalties\r\n    }\r\n\r\n    // function getCurrentID() public returns (uint256){\r\n    //     return _tokenIds.current();\r\n    // }\r\n\r\n    function tokenURI(uint256 tokenId) public view virtual override returns (string memory) {\r\n        require( _exists(tokenId), \"ERC721Metadata: URI query for nonexistent token\");\r\n        return string(abi.encodePacked(super.tokenURI(tokenId), \".json\"));\r\n        // return string.concat(string.strConcat(super._baseURI(), string.uint2str(tokenId)), \".json\");\r\n        //return Strings.strConcat(baseTokenURI(), Strings.uint2str(_tokenId));\r\n    }\r\n\r\n    //Royalties\r\n    function setRoyalties(uint _tokenId, address payable _royaltiesReceipientAddress, uint96 _percentageBasisPoints) public onlyOwner {\r\n        LibPart.Part[] memory _royalties = new LibPart.Part[](1);\r\n        _royalties[0].value = _percentageBasisPoints;\r\n        _royalties[0].account = _royaltiesReceipientAddress;\r\n        _saveRoyalties(_tokenId, _royalties);\r\n    }\r\n\r\n    //Mintable\r\n    function royaltyInfo(uint256 _tokenId, uint256 _salePrice) external view returns (address receiver, uint256 royaltyAmount) {\r\n        LibPart.Part[] memory _royalties = royalties[_tokenId];\r\n        if(_royalties.length > 0) {\r\n            return (_royalties[0].account, (_salePrice * _royalties[0].value)/10000);\r\n        }\r\n        return (address(0), 0);\r\n    }\r\n\r\n    function supportsInterface(bytes4 interfaceId) public view virtual override(ERC721PresetMinterPauserAutoId) returns (bool) {\r\n        if(interfaceId == LibRoyaltiesV2._INTERFACE_ID_ROYALTIES) {\r\n            return true;\r\n        }\r\n        //Mintable\r\n        if(interfaceId == _INTERFACE_ID_ERC2981) {\r\n            return true;\r\n        }\r\n        return super.supportsInterface(interfaceId);\r\n    } \r\n}",
  "sourcePath": "/mnt/c/Users/raymo/OneDrive/Documents/BonaFyde/BFT/contracts/BonafydeToken.sol",
  "compiler": {
    "name": "solc",
    "version": "0.8.3+commit.8d00100c.Emscripten.clang"
  },
  "schemaVersion": "3.4.11",
  "updatedAt": "2023-05-19T01:05:19.217Z",
  "devdoc": {
    "kind": "dev",
    "methods": {
      "approve(address,uint256)": {
        "details": "See {IERC721-approve}."
      },
      "balanceOf(address)": {
        "details": "See {IERC721-balanceOf}."
      },
      "burn(uint256)": {
        "details": "Burns `tokenId`. See {ERC721-_burn}. Requirements: - The caller must own `tokenId` or be an approved operator."
      },
      "getApproved(uint256)": {
        "details": "See {IERC721-getApproved}."
      },
      "getRoleAdmin(bytes32)": {
        "details": "Returns the admin role that controls `role`. See {grantRole} and {revokeRole}. To change a role's admin, use {_setRoleAdmin}."
      },
      "getRoleMember(bytes32,uint256)": {
        "details": "Returns one of the accounts that have `role`. `index` must be a value between 0 and {getRoleMemberCount}, non-inclusive. Role bearers are not sorted in any particular way, and their ordering may change at any point. WARNING: When using {getRoleMember} and {getRoleMemberCount}, make sure you perform all queries on the same block. See the following https://forum.openzeppelin.com/t/iterating-over-elements-on-enumerableset-in-openzeppelin-contracts/2296[forum post] for more information."
      },
      "getRoleMemberCount(bytes32)": {
        "details": "Returns the number of accounts that have `role`. Can be used together with {getRoleMember} to enumerate all bearers of a role."
      },
      "grantRole(bytes32,address)": {
        "details": "Grants `role` to `account`. If `account` had not been already granted `role`, emits a {RoleGranted} event. Requirements: - the caller must have ``role``'s admin role. May emit a {RoleGranted} event."
      },
      "hasRole(bytes32,address)": {
        "details": "Returns `true` if `account` has been granted `role`."
      },
      "isApprovedForAll(address,address)": {
        "details": "See {IERC721-isApprovedForAll}."
      },
      "mint(address)": {
        "details": "Creates a new token for `to`. Its token ID will be automatically assigned (and available on the emitted {IERC721-Transfer} event), and the token URI autogenerated based on the base URI passed at construction. See {ERC721-_mint}. Requirements: - the caller must have the `MINTER_ROLE`."
      },
      "name()": {
        "details": "See {IERC721Metadata-name}."
      },
      "owner()": {
        "details": "Returns the address of the current owner."
      },
      "ownerOf(uint256)": {
        "details": "See {IERC721-ownerOf}."
      },
      "pause()": {
        "details": "Pauses all token transfers. See {ERC721Pausable} and {Pausable-_pause}. Requirements: - the caller must have the `PAUSER_ROLE`."
      },
      "paused()": {
        "details": "Returns true if the contract is paused, and false otherwise."
      },
      "renounceOwnership()": {
        "details": "Leaves the contract without owner. It will not be possible to call `onlyOwner` functions anymore. Can only be called by the current owner. NOTE: Renouncing ownership will leave the contract without an owner, thereby removing any functionality that is only available to the owner."
      },
      "renounceRole(bytes32,address)": {
        "details": "Revokes `role` from the calling account. Roles are often managed via {grantRole} and {revokeRole}: this function's purpose is to provide a mechanism for accounts to lose their privileges if they are compromised (such as when a trusted device is misplaced). If the calling account had been revoked `role`, emits a {RoleRevoked} event. Requirements: - the caller must be `account`. May emit a {RoleRevoked} event."
      },
      "revokeRole(bytes32,address)": {
        "details": "Revokes `role` from `account`. If `account` had been granted `role`, emits a {RoleRevoked} event. Requirements: - the caller must have ``role``'s admin role. May emit a {RoleRevoked} event."
      },
      "safeTransferFrom(address,address,uint256)": {
        "details": "See {IERC721-safeTransferFrom}."
      },
      "safeTransferFrom(address,address,uint256,bytes)": {
        "details": "See {IERC721-safeTransferFrom}."
      },
      "setApprovalForAll(address,bool)": {
        "details": "See {IERC721-setApprovalForAll}."
      },
      "supportsInterface(bytes4)": {
        "details": "See {IERC165-supportsInterface}."
      },
      "symbol()": {
        "details": "See {IERC721Metadata-symbol}."
      },
      "tokenByIndex(uint256)": {
        "details": "See {IERC721Enumerable-tokenByIndex}."
      },
      "tokenOfOwnerByIndex(address,uint256)": {
        "details": "See {IERC721Enumerable-tokenOfOwnerByIndex}."
      },
      "tokenURI(uint256)": {
        "details": "See {IERC721Metadata-tokenURI}."
      },
      "totalSupply()": {
        "details": "See {IERC721Enumerable-totalSupply}."
      },
      "transferFrom(address,address,uint256)": {
        "details": "See {IERC721-transferFrom}."
      },
      "transferOwnership(address)": {
        "details": "Transfers ownership of the contract to a new account (`newOwner`). Can only be called by the current owner."
      },
      "unpause()": {
        "details": "Unpauses all token transfers. See {ERC721Pausable} and {Pausable-_unpause}. Requirements: - the caller must have the `PAUSER_ROLE`."
      }
    },
    "version": 1
  },
  "userdoc": {
    "kind": "user",
    "methods": {
      "mint(address,uint256,bytes32)": {
        "notice": "This is the mint function that sets the unlock code, then calls the parent mint"
      }
    },
    "version": 1
  }
}