{
  "contractName": "BonafydeToken",
  "abi": [
    {
      "inputs": [],
      "stateMutability": "nonpayable",
      "type": "constructor"
    },
    {
      "anonymous": false,
      "inputs": [
        {
          "indexed": true,
          "internalType": "address",
          "name": "owner",
          "type": "address"
        },
        {
          "indexed": true,
          "internalType": "address",
          "name": "approved",
          "type": "address"
        },
        {
          "indexed": true,
          "internalType": "uint256",
          "name": "tokenId",
          "type": "uint256"
        }
      ],
      "name": "Approval",
      "type": "event"
    },
    {
      "anonymous": false,
      "inputs": [
        {
          "indexed": true,
          "internalType": "address",
          "name": "owner",
          "type": "address"
        },
        {
          "indexed": true,
          "internalType": "address",
          "name": "operator",
          "type": "address"
        },
        {
          "indexed": false,
          "internalType": "bool",
          "name": "approved",
          "type": "bool"
        }
      ],
      "name": "ApprovalForAll",
      "type": "event"
    },
    {
      "anonymous": false,
      "inputs": [
        {
          "indexed": true,
          "internalType": "address",
          "name": "previousOwner",
          "type": "address"
        },
        {
          "indexed": true,
          "internalType": "address",
          "name": "newOwner",
          "type": "address"
        }
      ],
      "name": "OwnershipTransferred",
      "type": "event"
    },
    {
      "anonymous": false,
      "inputs": [
        {
          "indexed": false,
          "internalType": "address",
          "name": "account",
          "type": "address"
        }
      ],
      "name": "Paused",
      "type": "event"
    },
    {
      "anonymous": false,
      "inputs": [
        {
          "indexed": true,
          "internalType": "bytes32",
          "name": "role",
          "type": "bytes32"
        },
        {
          "indexed": true,
          "internalType": "bytes32",
          "name": "previousAdminRole",
          "type": "bytes32"
        },
        {
          "indexed": true,
          "internalType": "bytes32",
          "name": "newAdminRole",
          "type": "bytes32"
        }
      ],
      "name": "RoleAdminChanged",
      "type": "event"
    },
    {
      "anonymous": false,
      "inputs": [
        {
          "indexed": true,
          "internalType": "bytes32",
          "name": "role",
          "type": "bytes32"
        },
        {
          "indexed": true,
          "internalType": "address",
          "name": "account",
          "type": "address"
        },
        {
          "indexed": true,
          "internalType": "address",
          "name": "sender",
          "type": "address"
        }
      ],
      "name": "RoleGranted",
      "type": "event"
    },
    {
      "anonymous": false,
      "inputs": [
        {
          "indexed": true,
          "internalType": "bytes32",
          "name": "role",
          "type": "bytes32"
        },
        {
          "indexed": true,
          "internalType": "address",
          "name": "account",
          "type": "address"
        },
        {
          "indexed": true,
          "internalType": "address",
          "name": "sender",
          "type": "address"
        }
      ],
      "name": "RoleRevoked",
      "type": "event"
    },
    {
      "anonymous": false,
      "inputs": [
        {
          "indexed": false,
          "internalType": "uint256",
          "name": "tokenId",
          "type": "uint256"
        },
        {
          "components": [
            {
              "internalType": "address payable",
              "name": "account",
              "type": "address"
            },
            {
              "internalType": "uint96",
              "name": "value",
              "type": "uint96"
            }
          ],
          "indexed": false,
          "internalType": "struct LibPart.Part[]",
          "name": "royalties",
          "type": "tuple[]"
        }
      ],
      "name": "RoyaltiesSet",
      "type": "event"
    },
    {
      "anonymous": false,
      "inputs": [
        {
          "indexed": false,
          "internalType": "uint256",
          "name": "tokenId",
          "type": "uint256"
        },
        {
          "indexed": false,
          "internalType": "address",
          "name": "unlockerAddress",
          "type": "address"
        }
      ],
      "name": "TokenUnlocked",
      "type": "event"
    },
    {
      "anonymous": false,
      "inputs": [
        {
          "indexed": true,
          "internalType": "address",
          "name": "from",
          "type": "address"
        },
        {
          "indexed": true,
          "internalType": "address",
          "name": "to",
          "type": "address"
        },
        {
          "indexed": true,
          "internalType": "uint256",
          "name": "tokenId",
          "type": "uint256"
        }
      ],
      "name": "Transfer",
      "type": "event"
    },
    {
      "anonymous": false,
      "inputs": [
        {
          "indexed": false,
          "internalType": "address",
          "name": "account",
          "type": "address"
        }
      ],
      "name": "Unpaused",
      "type": "event"
    },
    {
      "inputs": [],
      "name": "DEFAULT_ADMIN_ROLE",
      "outputs": [
        {
          "internalType": "bytes32",
          "name": "",
          "type": "bytes32"
        }
      ],
      "stateMutability": "view",
      "type": "function"
    },
    {
      "inputs": [],
      "name": "MINTER_ROLE",
      "outputs": [
        {
          "internalType": "bytes32",
          "name": "",
          "type": "bytes32"
        }
      ],
      "stateMutability": "view",
      "type": "function"
    },
    {
      "inputs": [],
      "name": "PAUSER_ROLE",
      "outputs": [
        {
          "internalType": "bytes32",
          "name": "",
          "type": "bytes32"
        }
      ],
      "stateMutability": "view",
      "type": "function"
    },
    {
      "inputs": [
        {
          "internalType": "address",
          "name": "to",
          "type": "address"
        },
        {
          "internalType": "uint256",
          "name": "tokenId",
          "type": "uint256"
        }
      ],
      "name": "approve",
      "outputs": [],
      "stateMutability": "nonpayable",
      "type": "function"
    },
    {
      "inputs": [
        {
          "internalType": "address",
          "name": "owner",
          "type": "address"
        }
      ],
      "name": "balanceOf",
      "outputs": [
        {
          "internalType": "uint256",
          "name": "",
          "type": "uint256"
        }
      ],
      "stateMutability": "view",
      "type": "function"
    },
    {
      "inputs": [
        {
          "internalType": "uint256",
          "name": "tokenId",
          "type": "uint256"
        }
      ],
      "name": "burn",
      "outputs": [],
      "stateMutability": "nonpayable",
      "type": "function"
    },
    {
      "inputs": [
        {
          "internalType": "uint256",
          "name": "tokenId",
          "type": "uint256"
        }
      ],
      "name": "getApproved",
      "outputs": [
        {
          "internalType": "address",
          "name": "",
          "type": "address"
        }
      ],
      "stateMutability": "view",
      "type": "function"
    },
    {
      "inputs": [
        {
          "internalType": "uint256",
          "name": "id",
          "type": "uint256"
        }
      ],
      "name": "getRaribleV2Royalties",
      "outputs": [
        {
          "components": [
            {
              "internalType": "address payable",
              "name": "account",
              "type": "address"
            },
            {
              "internalType": "uint96",
              "name": "value",
              "type": "uint96"
            }
          ],
          "internalType": "struct LibPart.Part[]",
          "name": "",
          "type": "tuple[]"
        }
      ],
      "stateMutability": "view",
      "type": "function"
    },
    {
      "inputs": [
        {
          "internalType": "bytes32",
          "name": "role",
          "type": "bytes32"
        }
      ],
      "name": "getRoleAdmin",
      "outputs": [
        {
          "internalType": "bytes32",
          "name": "",
          "type": "bytes32"
        }
      ],
      "stateMutability": "view",
      "type": "function"
    },
    {
      "inputs": [
        {
          "internalType": "bytes32",
          "name": "role",
          "type": "bytes32"
        },
        {
          "internalType": "uint256",
          "name": "index",
          "type": "uint256"
        }
      ],
      "name": "getRoleMember",
      "outputs": [
        {
          "internalType": "address",
          "name": "",
          "type": "address"
        }
      ],
      "stateMutability": "view",
      "type": "function"
    },
    {
      "inputs": [
        {
          "internalType": "bytes32",
          "name": "role",
          "type": "bytes32"
        }
      ],
      "name": "getRoleMemberCount",
      "outputs": [
        {
          "internalType": "uint256",
          "name": "",
          "type": "uint256"
        }
      ],
      "stateMutability": "view",
      "type": "function"
    },
    {
      "inputs": [
        {
          "internalType": "bytes32",
          "name": "role",
          "type": "bytes32"
        },
        {
          "internalType": "address",
          "name": "account",
          "type": "address"
        }
      ],
      "name": "grantRole",
      "outputs": [],
      "stateMutability": "nonpayable",
      "type": "function"
    },
    {
      "inputs": [
        {
          "internalType": "bytes32",
          "name": "role",
          "type": "bytes32"
        },
        {
          "internalType": "address",
          "name": "account",
          "type": "address"
        }
      ],
      "name": "hasRole",
      "outputs": [
        {
          "internalType": "bool",
          "name": "",
          "type": "bool"
        }
      ],
      "stateMutability": "view",
      "type": "function"
    },
    {
      "inputs": [
        {
          "internalType": "address",
          "name": "owner",
          "type": "address"
        },
        {
          "internalType": "address",
          "name": "operator",
          "type": "address"
        }
      ],
      "name": "isApprovedForAll",
      "outputs": [
        {
          "internalType": "bool",
          "name": "",
          "type": "bool"
        }
      ],
      "stateMutability": "view",
      "type": "function"
    },
    {
      "inputs": [],
      "name": "name",
      "outputs": [
        {
          "internalType": "string",
          "name": "",
          "type": "string"
        }
      ],
      "stateMutability": "view",
      "type": "function"
    },
    {
      "inputs": [],
      "name": "owner",
      "outputs": [
        {
          "internalType": "address",
          "name": "",
          "type": "address"
        }
      ],
      "stateMutability": "view",
      "type": "function"
    },
    {
      "inputs": [
        {
          "internalType": "uint256",
          "name": "tokenId",
          "type": "uint256"
        }
      ],
      "name": "ownerOf",
      "outputs": [
        {
          "internalType": "address",
          "name": "",
          "type": "address"
        }
      ],
      "stateMutability": "view",
      "type": "function"
    },
    {
      "inputs": [],
      "name": "pause",
      "outputs": [],
      "stateMutability": "nonpayable",
      "type": "function"
    },
    {
      "inputs": [],
      "name": "paused",
      "outputs": [
        {
          "internalType": "bool",
          "name": "",
          "type": "bool"
        }
      ],
      "stateMutability": "view",
      "type": "function"
    },
    {
      "inputs": [],
      "name": "renounceOwnership",
      "outputs": [],
      "stateMutability": "nonpayable",
      "type": "function"
    },
    {
      "inputs": [
        {
          "internalType": "bytes32",
          "name": "role",
          "type": "bytes32"
        },
        {
          "internalType": "address",
          "name": "account",
          "type": "address"
        }
      ],
      "name": "renounceRole",
      "outputs": [],
      "stateMutability": "nonpayable",
      "type": "function"
    },
    {
      "inputs": [
        {
          "internalType": "bytes32",
          "name": "role",
          "type": "bytes32"
        },
        {
          "internalType": "address",
          "name": "account",
          "type": "address"
        }
      ],
      "name": "revokeRole",
      "outputs": [],
      "stateMutability": "nonpayable",
      "type": "function"
    },
    {
      "inputs": [
        {
          "internalType": "uint256",
          "name": "",
          "type": "uint256"
        },
        {
          "internalType": "uint256",
          "name": "",
          "type": "uint256"
        }
      ],
      "name": "royalties",
      "outputs": [
        {
          "internalType": "address payable",
          "name": "account",
          "type": "address"
        },
        {
          "internalType": "uint96",
          "name": "value",
          "type": "uint96"
        }
      ],
      "stateMutability": "view",
      "type": "function"
    },
    {
      "inputs": [
        {
          "internalType": "address",
          "name": "from",
          "type": "address"
        },
        {
          "internalType": "address",
          "name": "to",
          "type": "address"
        },
        {
          "internalType": "uint256",
          "name": "tokenId",
          "type": "uint256"
        }
      ],
      "name": "safeTransferFrom",
      "outputs": [],
      "stateMutability": "nonpayable",
      "type": "function"
    },
    {
      "inputs": [
        {
          "internalType": "address",
          "name": "from",
          "type": "address"
        },
        {
          "internalType": "address",
          "name": "to",
          "type": "address"
        },
        {
          "internalType": "uint256",
          "name": "tokenId",
          "type": "uint256"
        },
        {
          "internalType": "bytes",
          "name": "data",
          "type": "bytes"
        }
      ],
      "name": "safeTransferFrom",
      "outputs": [],
      "stateMutability": "nonpayable",
      "type": "function"
    },
    {
      "inputs": [
        {
          "internalType": "address",
          "name": "operator",
          "type": "address"
        },
        {
          "internalType": "bool",
          "name": "approved",
          "type": "bool"
        }
      ],
      "name": "setApprovalForAll",
      "outputs": [],
      "stateMutability": "nonpayable",
      "type": "function"
    },
    {
      "inputs": [],
      "name": "symbol",
      "outputs": [
        {
          "internalType": "string",
          "name": "",
          "type": "string"
        }
      ],
      "stateMutability": "view",
      "type": "function"
    },
    {
      "inputs": [
        {
          "internalType": "uint256",
          "name": "index",
          "type": "uint256"
        }
      ],
      "name": "tokenByIndex",
      "outputs": [
        {
          "internalType": "uint256",
          "name": "",
          "type": "uint256"
        }
      ],
      "stateMutability": "view",
      "type": "function"
    },
    {
      "inputs": [
        {
          "internalType": "uint256",
          "name": "",
          "type": "uint256"
        }
      ],
      "name": "tokenLockedFromTimestamp",
      "outputs": [
        {
          "internalType": "uint256",
          "name": "",
          "type": "uint256"
        }
      ],
      "stateMutability": "view",
      "type": "function"
    },
    {
      "inputs": [
        {
          "internalType": "address",
          "name": "owner",
          "type": "address"
        },
        {
          "internalType": "uint256",
          "name": "index",
          "type": "uint256"
        }
      ],
      "name": "tokenOfOwnerByIndex",
      "outputs": [
        {
          "internalType": "uint256",
          "name": "",
          "type": "uint256"
        }
      ],
      "stateMutability": "view",
      "type": "function"
    },
    {
      "inputs": [
        {
          "internalType": "uint256",
          "name": "",
          "type": "uint256"
        }
      ],
      "name": "tokenUnlockCodeHashes",
      "outputs": [
        {
          "internalType": "bytes32",
          "name": "",
          "type": "bytes32"
        }
      ],
      "stateMutability": "view",
      "type": "function"
    },
    {
      "inputs": [
        {
          "internalType": "uint256",
          "name": "",
          "type": "uint256"
        }
      ],
      "name": "tokenUnlocked",
      "outputs": [
        {
          "internalType": "bool",
          "name": "",
          "type": "bool"
        }
      ],
      "stateMutability": "view",
      "type": "function"
    },
    {
      "inputs": [],
      "name": "totalSupply",
      "outputs": [
        {
          "internalType": "uint256",
          "name": "",
          "type": "uint256"
        }
      ],
      "stateMutability": "view",
      "type": "function"
    },
    {
      "inputs": [
        {
          "internalType": "address",
          "name": "from",
          "type": "address"
        },
        {
          "internalType": "address",
          "name": "to",
          "type": "address"
        },
        {
          "internalType": "uint256",
          "name": "tokenId",
          "type": "uint256"
        }
      ],
      "name": "transferFrom",
      "outputs": [],
      "stateMutability": "nonpayable",
      "type": "function"
    },
    {
      "inputs": [
        {
          "internalType": "address",
          "name": "newOwner",
          "type": "address"
        }
      ],
      "name": "transferOwnership",
      "outputs": [],
      "stateMutability": "nonpayable",
      "type": "function"
    },
    {
      "inputs": [],
      "name": "unpause",
      "outputs": [],
      "stateMutability": "nonpayable",
      "type": "function"
    },
    {
      "inputs": [
        {
          "internalType": "bytes32",
          "name": "unlockHash",
          "type": "bytes32"
        },
        {
          "internalType": "uint256",
          "name": "tokenId",
          "type": "uint256"
        }
      ],
      "name": "unlockToken",
      "outputs": [],
      "stateMutability": "nonpayable",
      "type": "function"
    },
    {
      "inputs": [
        {
          "internalType": "address",
          "name": "to",
          "type": "address"
        },
        {
          "internalType": "uint256",
          "name": "lockedFromTimestamp",
          "type": "uint256"
        },
        {
          "internalType": "bytes32",
          "name": "unlockHash",
          "type": "bytes32"
        }
      ],
      "name": "mint",
      "outputs": [],
      "stateMutability": "nonpayable",
      "type": "function"
    },
    {
      "inputs": [
        {
          "internalType": "address",
          "name": "to",
          "type": "address"
        }
      ],
      "name": "mint",
      "outputs": [],
      "stateMutability": "nonpayable",
      "type": "function"
    },
    {
      "inputs": [
        {
          "internalType": "uint256",
          "name": "tokenId",
          "type": "uint256"
        }
      ],
      "name": "tokenURI",
      "outputs": [
        {
          "internalType": "string",
          "name": "",
          "type": "string"
        }
      ],
      "stateMutability": "view",
      "type": "function"
    },
    {
      "inputs": [
        {
          "internalType": "uint256",
          "name": "_tokenId",
          "type": "uint256"
        },
        {
          "internalType": "address payable",
          "name": "_royaltiesReceipientAddress",
          "type": "address"
        },
        {
          "internalType": "uint96",
          "name": "_percentageBasisPoints",
          "type": "uint96"
        }
      ],
      "name": "setRoyalties",
      "outputs": [],
      "stateMutability": "nonpayable",
      "type": "function"
    },
    {
      "inputs": [
        {
          "internalType": "uint256",
          "name": "_tokenId",
          "type": "uint256"
        },
        {
          "internalType": "uint256",
          "name": "_salePrice",
          "type": "uint256"
        }
      ],
      "name": "royaltyInfo",
      "outputs": [
        {
          "internalType": "address",
          "name": "receiver",
          "type": "address"
        },
        {
          "internalType": "uint256",
          "name": "royaltyAmount",
          "type": "uint256"
        }
      ],
      "stateMutability": "view",
      "type": "function"
    },
    {
      "inputs": [
        {
          "internalType": "bytes4",
          "name": "interfaceId",
          "type": "bytes4"
        }
      ],
      "name": "supportsInterface",
      "outputs": [
        {
          "internalType": "bool",
          "name": "",
          "type": "bool"
        }
      ],
      "stateMutability": "view",
      "type": "function"
    }
  ],
  "bytecode": "0x60806040523480156200001157600080fd5b506040518060400160405280600e81526020017f426f6e614679646520546f6b656e0000000000000000000000000000000000008152506040518060400160405280600381526020017f42465400000000000000000000000000000000000000000000000000000000008152506040518060400160405280601d81526020017f68747470733a2f2f626f6e61667964652e696f2f6d657461646174612f00000081525082828160029080519060200190620000ce92919062000549565b508060039080519060200190620000e792919062000549565b5050506000600c60006101000a81548160ff02191690831515021790555080600e90805190602001906200011d92919062000549565b50620001426000801b62000136620001ed60201b60201c565b620001f560201b60201c565b620001837f9f2df0fed2c77648de5860a4cc508cd0818c85b8b8a1ab4ceeef8d981c8956a662000177620001ed60201b60201c565b620001f560201b60201c565b620001c47f65d7a28e3265b37a6474929f336521b332c1681b933f6cb9f3376673440d862a620001b8620001ed60201b60201c565b620001f560201b60201c565b505050620001e7620001db620001ed60201b60201c565b6200020b60201b60201c565b6200065e565b600033905090565b620002078282620002d160201b60201c565b5050565b6000600f60009054906101000a900473ffffffffffffffffffffffffffffffffffffffff16905081600f60006101000a81548173ffffffffffffffffffffffffffffffffffffffff021916908373ffffffffffffffffffffffffffffffffffffffff1602179055508173ffffffffffffffffffffffffffffffffffffffff168173ffffffffffffffffffffffffffffffffffffffff167f8be0079c531659141344cd1fd0a4f28419497f9722a3daafe3b4186f6b6457e060405160405180910390a35050565b620002e882826200031960201b62001bda1760201c565b6200031481600160008581526020019081526020016000206200040a60201b62001cba1790919060201c565b505050565b6200032b82826200044260201b60201c565b6200040657600160008084815260200190815260200160002060000160008373ffffffffffffffffffffffffffffffffffffffff1673ffffffffffffffffffffffffffffffffffffffff16815260200190815260200160002060006101000a81548160ff021916908315150217905550620003ab620001ed60201b60201c565b73ffffffffffffffffffffffffffffffffffffffff168173ffffffffffffffffffffffffffffffffffffffff16837f2f8788117e7eff1d82e926ec794901d17c78024a50270940304540a733656f0d60405160405180910390a45b5050565b60006200043a836000018373ffffffffffffffffffffffffffffffffffffffff1660001b620004ac60201b60201c565b905092915050565b600080600084815260200190815260200160002060000160008373ffffffffffffffffffffffffffffffffffffffff1673ffffffffffffffffffffffffffffffffffffffff16815260200190815260200160002060009054906101000a900460ff16905092915050565b6000620004c083836200052660201b60201c565b6200051b57826000018290806001815401808255809150506001900390600052602060002001600090919091909150558260000180549050836001016000848152602001908152602001600020819055506001905062000520565b600090505b92915050565b600080836001016000848152602001908152602001600020541415905092915050565b8280546200055790620005f9565b90600052602060002090601f0160209004810192826200057b5760008555620005c7565b82601f106200059657805160ff1916838001178555620005c7565b82800160010185558215620005c7579182015b82811115620005c6578251825591602001919060010190620005a9565b5b509050620005d69190620005da565b5090565b5b80821115620005f5576000816000905550600101620005db565b5090565b600060028204905060018216806200061257607f821691505b602082108114156200062957620006286200062f565b5b50919050565b7f4e487b7100000000000000000000000000000000000000000000000000000000600052602260045260246000fd5b615e2d806200066e6000396000f3fe608060405234801561001057600080fd5b50600436106102695760003560e01c80636a62784211610151578063a3c3e1bd116100c3578063cad96cca11610087578063cad96cca14610792578063d5391393146107c2578063d547741f146107e0578063e63ab1e9146107fc578063e985e9c51461081a578063f2fde38b1461084a57610269565b8063a3c3e1bd146106ca578063b88d4fde146106e6578063c4d271be14610702578063c87b56dd14610732578063ca15c8731461076257610269565b80638da5cb5b116101155780638da5cb5b146105f45780639010d07c1461061257806391d148541461064257806395d89b4114610672578063a217fddf14610690578063a22cb465146106ae57610269565b80636a6278421461056357806370a082311461057f578063715018a6146105af5780638456cb59146105b95780638924af74146105c357610269565b80632a55205a116101ea57806342842e0e116101ae57806342842e0e1461047d57806342966c68146104995780634f6ccce7146104b557806351f6b2e8146104e55780635c975abb146105155780636352211e1461053357610269565b80632a55205a146103da5780632f2ff15d1461040b5780632f745c591461042757806336568abe146104575780633f4ba83a1461047357610269565b8063143094db11610231578063143094db1461033857806318160ddd146103545780631e458bee1461037257806323b872dd1461038e578063248a9ca3146103aa57610269565b806301ffc9a71461026e57806303017e421461029e57806306fdde03146102ce578063081812fc146102ec578063095ea7b31461031c575b600080fd5b610288600480360381019061028391906143f8565b610866565b6040516102959190614c79565b60405180910390f35b6102b860048036038101906102b3919061444a565b610925565b6040516102c59190614c94565b60405180910390f35b6102d661093d565b6040516102e39190614caf565b60405180910390f35b6103066004803603810190610301919061444a565b6109cf565b6040516103139190614b9e565b60405180910390f35b610336600480360381019061033191906142cc565b610a15565b005b610352600480360381019061034d9190614473565b610b2d565b005b61035c610ca6565b6040516103699190615071565b60405180910390f35b61038c60048036038101906103879190614308565b610cb3565b005b6103a860048036038101906103a391906141c6565b610d15565b005b6103c460048036038101906103bf9190614357565b610d75565b6040516103d19190614c94565b60405180910390f35b6103f460048036038101906103ef91906144c2565b610d94565b604051610402929190614c2e565b60405180910390f35b61042560048036038101906104209190614380565b610f6a565b005b610441600480360381019061043c91906142cc565b610f8b565b60405161044e9190615071565b60405180910390f35b610471600480360381019061046c9190614380565b611030565b005b61047b6110b3565b005b610497600480360381019061049291906141c6565b61112d565b005b6104b360048036038101906104ae919061444a565b61114d565b005b6104cf60048036038101906104ca919061444a565b6111a9565b6040516104dc9190615071565b60405180910390f35b6104ff60048036038101906104fa919061444a565b611240565b60405161050c9190615071565b60405180910390f35b61051d611258565b60405161052a9190614c79565b60405180910390f35b61054d6004803603810190610548919061444a565b61126f565b60405161055a9190614b9e565b60405180910390f35b61057d60048036038101906105789190614161565b611321565b005b61059960048036038101906105949190614161565b6113b1565b6040516105a69190615071565b60405180910390f35b6105b7611469565b005b6105c161147d565b005b6105dd60048036038101906105d891906144c2565b6114f7565b6040516105eb929190614bb9565b60405180910390f35b6105fc61156c565b6040516106099190614b9e565b60405180910390f35b61062c600480360381019061062791906143bc565b611596565b6040516106399190614b9e565b60405180910390f35b61065c60048036038101906106579190614380565b6115c5565b6040516106699190614c79565b60405180910390f35b61067a61162f565b6040516106879190614caf565b60405180910390f35b6106986116c1565b6040516106a59190614c94565b60405180910390f35b6106c860048036038101906106c39190614290565b6116c8565b005b6106e460048036038101906106df91906143bc565b6116de565b005b61070060048036038101906106fb9190614215565b611838565b005b61071c6004803603810190610717919061444a565b61189a565b6040516107299190614c79565b60405180910390f35b61074c6004803603810190610747919061444a565b6118ba565b6040516107599190614caf565b60405180910390f35b61077c60048036038101906107779190614357565b611933565b6040516107899190615071565b60405180910390f35b6107ac60048036038101906107a7919061444a565b611957565b6040516107b99190614c57565b60405180910390f35b6107ca611a59565b6040516107d79190614c94565b60405180910390f35b6107fa60048036038101906107f59190614380565b611a7d565b005b610804611a9e565b6040516108119190614c94565b60405180910390f35b610834600480360381019061082f919061418a565b611ac2565b6040516108419190614c79565b60405180910390f35b610864600480360381019061085f9190614161565b611b56565b005b600063cad96cca60e01b7bffffffffffffffffffffffffffffffffffffffffffffffffffffffff1916827bffffffffffffffffffffffffffffffffffffffffffffffffffffffff191614156108be5760019050610920565b632a55205a60e01b7bffffffffffffffffffffffffffffffffffffffffffffffffffffffff1916827bffffffffffffffffffffffffffffffffffffffffffffffffffffffff191614156109145760019050610920565b61091d82611cea565b90505b919050565b60136020528060005260406000206000915090505481565b60606002805461094c906153e0565b80601f0160208091040260200160405190810160405280929190818152602001828054610978906153e0565b80156109c55780601f1061099a576101008083540402835291602001916109c5565b820191906000526020600020905b8154815290600101906020018083116109a857829003601f168201915b5050505050905090565b60006109da82611cfc565b6006600083815260200190815260200160002060009054906101000a900473ffffffffffffffffffffffffffffffffffffffff169050919050565b6000610a208261126f565b90508073ffffffffffffffffffffffffffffffffffffffff168373ffffffffffffffffffffffffffffffffffffffff161415610a91576040517f08c379a0000000000000000000000000000000000000000000000000000000008152600401610a8890614f71565b60405180910390fd5b8073ffffffffffffffffffffffffffffffffffffffff16610ab0611d47565b73ffffffffffffffffffffffffffffffffffffffff161480610adf5750610ade81610ad9611d47565b611ac2565b5b610b1e576040517f08c379a0000000000000000000000000000000000000000000000000000000008152600401610b1590614ed1565b60405180910390fd5b610b288383611d4f565b505050565b610b35611e08565b6000600167ffffffffffffffff811115610b78577f4e487b7100000000000000000000000000000000000000000000000000000000600052604160045260246000fd5b604051908082528060200260200182016040528015610bb157816020015b610b9e614013565b815260200190600190039081610b965790505b5090508181600081518110610bef577f4e487b7100000000000000000000000000000000000000000000000000000000600052603260045260246000fd5b6020026020010151602001906bffffffffffffffffffffffff1690816bffffffffffffffffffffffff16815250508281600081518110610c58577f4e487b7100000000000000000000000000000000000000000000000000000000600052603260045260246000fd5b60200260200101516000019073ffffffffffffffffffffffffffffffffffffffff16908173ffffffffffffffffffffffffffffffffffffffff1681525050610ca08482611e86565b50505050565b6000600a80549050905090565b610cbb611e08565b8160126000610cca60116120f7565b8152602001908152602001600020819055508060136000610ceb60116120f7565b815260200190815260200160002081905550610d076011612105565b610d1083611321565b505050565b610d26610d20611d47565b8261211b565b610d65576040517f08c379a0000000000000000000000000000000000000000000000000000000008152600401610d5c90614fd1565b60405180910390fd5b610d708383836121b0565b505050565b6000806000838152602001908152602001600020600101549050919050565b600080600060106000868152602001908152602001600020805480602002602001604051908101604052809291908181526020016000905b82821015610e8e578382906000526020600020016040518060400160405290816000820160009054906101000a900473ffffffffffffffffffffffffffffffffffffffff1673ffffffffffffffffffffffffffffffffffffffff1673ffffffffffffffffffffffffffffffffffffffff1681526020016000820160149054906101000a90046bffffffffffffffffffffffff166bffffffffffffffffffffffff166bffffffffffffffffffffffff168152505081526020019060010190610dcc565b505050509050600081511115610f5a5780600081518110610ed8577f4e487b7100000000000000000000000000000000000000000000000000000000600052603260045260246000fd5b60200260200101516000015161271082600081518110610f21577f4e487b7100000000000000000000000000000000000000000000000000000000600052603260045260246000fd5b6020026020010151602001516bffffffffffffffffffffffff1686610f46919061523e565b610f50919061520d565b9250925050610f63565b60008092509250505b9250929050565b610f7382610d75565b610f7c81612417565b610f86838361242b565b505050565b6000610f96836113b1565b8210610fd7576040517f08c379a0000000000000000000000000000000000000000000000000000000008152600401610fce90614d51565b60405180910390fd5b600860008473ffffffffffffffffffffffffffffffffffffffff1673ffffffffffffffffffffffffffffffffffffffff168152602001908152602001600020600083815260200190815260200160002054905092915050565b611038611d47565b73ffffffffffffffffffffffffffffffffffffffff168173ffffffffffffffffffffffffffffffffffffffff16146110a5576040517f08c379a000000000000000000000000000000000000000000000000000000000815260040161109c90615051565b60405180910390fd5b6110af828261245f565b5050565b6110e47f65d7a28e3265b37a6474929f336521b332c1681b933f6cb9f3376673440d862a6110df611d47565b6115c5565b611123576040517f08c379a000000000000000000000000000000000000000000000000000000000815260040161111a90615011565b60405180910390fd5b61112b612493565b565b61114883838360405180602001604052806000815250611838565b505050565b61115e611158611d47565b8261211b565b61119d576040517f08c379a000000000000000000000000000000000000000000000000000000000815260040161119490614fd1565b60405180910390fd5b6111a6816124f6565b50565b60006111b3610ca6565b82106111f4576040517f08c379a00000000000000000000000000000000000000000000000000000000081526004016111eb90614f91565b60405180910390fd5b600a828154811061122e577f4e487b7100000000000000000000000000000000000000000000000000000000600052603260045260246000fd5b90600052602060002001549050919050565b60126020528060005260406000206000915090505481565b6000600c60009054906101000a900460ff16905090565b6000806004600084815260200190815260200160002060009054906101000a900473ffffffffffffffffffffffffffffffffffffffff169050600073ffffffffffffffffffffffffffffffffffffffff168173ffffffffffffffffffffffffffffffffffffffff161415611318576040517f08c379a000000000000000000000000000000000000000000000000000000000815260040161130f90614f51565b60405180910390fd5b80915050919050565b6113527f9f2df0fed2c77648de5860a4cc508cd0818c85b8b8a1ab4ceeef8d981c8956a661134d611d47565b6115c5565b611391576040517f08c379a000000000000000000000000000000000000000000000000000000000815260040161138890614fb1565b60405180910390fd5b6113a48161139f600d6120f7565b612613565b6113ae600d612105565b50565b60008073ffffffffffffffffffffffffffffffffffffffff168273ffffffffffffffffffffffffffffffffffffffff161415611422576040517f08c379a000000000000000000000000000000000000000000000000000000000815260040161141990614eb1565b60405180910390fd5b600560008373ffffffffffffffffffffffffffffffffffffffff1673ffffffffffffffffffffffffffffffffffffffff168152602001908152602001600020549050919050565b611471611e08565b61147b60006127ed565b565b6114ae7f65d7a28e3265b37a6474929f336521b332c1681b933f6cb9f3376673440d862a6114a9611d47565b6115c5565b6114ed576040517f08c379a00000000000000000000000000000000000000000000000000000000081526004016114e490614e11565b60405180910390fd5b6114f56128b3565b565b6010602052816000526040600020818154811061151357600080fd5b90600052602060002001600091509150508060000160009054906101000a900473ffffffffffffffffffffffffffffffffffffffff16908060000160149054906101000a90046bffffffffffffffffffffffff16905082565b6000600f60009054906101000a900473ffffffffffffffffffffffffffffffffffffffff16905090565b60006115bd826001600086815260200190815260200160002061291690919063ffffffff16565b905092915050565b600080600084815260200190815260200160002060000160008373ffffffffffffffffffffffffffffffffffffffff1673ffffffffffffffffffffffffffffffffffffffff16815260200190815260200160002060009054906101000a900460ff16905092915050565b60606003805461163e906153e0565b80601f016020809104026020016040519081016040528092919081815260200182805461166a906153e0565b80156116b75780601f1061168c576101008083540402835291602001916116b7565b820191906000526020600020905b81548152906001019060200180831161169a57829003601f168201915b5050505050905090565b6000801b81565b6116da6116d3611d47565b8383612930565b5050565b6116e78161126f565b73ffffffffffffffffffffffffffffffffffffffff163373ffffffffffffffffffffffffffffffffffffffff1614611754576040517f08c379a000000000000000000000000000000000000000000000000000000000815260040161174b90614cf1565b60405180910390fd5b6013600082815260200190815260200160002054826040516020016117799190614c94565b60405160208183030381529060405280519060200120146117cf576040517f08c379a00000000000000000000000000000000000000000000000000000000081526004016117c690614df1565b60405180910390fd5b60016014600083815260200190815260200160002060006101000a81548160ff0219169083151502179055507f0fe7d9801197f79ef3b1595d19379eb58f0fff5f98b0f6d6f34c03cae5306c37813360405161182c92919061508c565b60405180910390a15050565b611849611843611d47565b8361211b565b611888576040517f08c379a000000000000000000000000000000000000000000000000000000000815260040161187f90614fd1565b60405180910390fd5b61189484848484612a9d565b50505050565b60146020528060005260406000206000915054906101000a900460ff1681565b60606118c582612af9565b611904576040517f08c379a00000000000000000000000000000000000000000000000000000000081526004016118fb90614f31565b60405180910390fd5b61190d82612b65565b60405160200161191d9190614b42565b6040516020818303038152906040529050919050565b600061195060016000848152602001908152602001600020612bcd565b9050919050565b606060106000838152602001908152602001600020805480602002602001604051908101604052809291908181526020016000905b82821015611a4e578382906000526020600020016040518060400160405290816000820160009054906101000a900473ffffffffffffffffffffffffffffffffffffffff1673ffffffffffffffffffffffffffffffffffffffff1673ffffffffffffffffffffffffffffffffffffffff1681526020016000820160149054906101000a90046bffffffffffffffffffffffff166bffffffffffffffffffffffff166bffffffffffffffffffffffff16815250508152602001906001019061198c565b505050509050919050565b7f9f2df0fed2c77648de5860a4cc508cd0818c85b8b8a1ab4ceeef8d981c8956a681565b611a8682610d75565b611a8f81612417565b611a99838361245f565b505050565b7f65d7a28e3265b37a6474929f336521b332c1681b933f6cb9f3376673440d862a81565b6000600760008473ffffffffffffffffffffffffffffffffffffffff1673ffffffffffffffffffffffffffffffffffffffff16815260200190815260200160002060008373ffffffffffffffffffffffffffffffffffffffff1673ffffffffffffffffffffffffffffffffffffffff16815260200190815260200160002060009054906101000a900460ff16905092915050565b611b5e611e08565b600073ffffffffffffffffffffffffffffffffffffffff168173ffffffffffffffffffffffffffffffffffffffff161415611bce576040517f08c379a0000000000000000000000000000000000000000000000000000000008152600401611bc590614d91565b60405180910390fd5b611bd7816127ed565b50565b611be482826115c5565b611cb657600160008084815260200190815260200160002060000160008373ffffffffffffffffffffffffffffffffffffffff1673ffffffffffffffffffffffffffffffffffffffff16815260200190815260200160002060006101000a81548160ff021916908315150217905550611c5b611d47565b73ffffffffffffffffffffffffffffffffffffffff168173ffffffffffffffffffffffffffffffffffffffff16837f2f8788117e7eff1d82e926ec794901d17c78024a50270940304540a733656f0d60405160405180910390a45b5050565b6000611ce2836000018373ffffffffffffffffffffffffffffffffffffffff1660001b612be2565b905092915050565b6000611cf582612c52565b9050919050565b611d0581612af9565b611d44576040517f08c379a0000000000000000000000000000000000000000000000000000000008152600401611d3b90614f51565b60405180910390fd5b50565b600033905090565b816006600083815260200190815260200160002060006101000a81548173ffffffffffffffffffffffffffffffffffffffff021916908373ffffffffffffffffffffffffffffffffffffffff160217905550808273ffffffffffffffffffffffffffffffffffffffff16611dc28361126f565b73ffffffffffffffffffffffffffffffffffffffff167f8c5be1e5ebec7d5bd14f71427d1e84f3dd0314c0f7b2291e5b200ac8c7c3b92560405160405180910390a45050565b611e10611d47565b73ffffffffffffffffffffffffffffffffffffffff16611e2e61156c565b73ffffffffffffffffffffffffffffffffffffffff1614611e84576040517f08c379a0000000000000000000000000000000000000000000000000000000008152600401611e7b90614f11565b60405180910390fd5b565b60005b81518110156120e857600073ffffffffffffffffffffffffffffffffffffffff16828281518110611ee3577f4e487b7100000000000000000000000000000000000000000000000000000000600052603260045260246000fd5b60200260200101516000015173ffffffffffffffffffffffffffffffffffffffff161415611f46576040517f08c379a0000000000000000000000000000000000000000000000000000000008152600401611f3d90614ff1565b60405180910390fd5b6000828281518110611f81577f4e487b7100000000000000000000000000000000000000000000000000000000600052603260045260246000fd5b6020026020010151602001516bffffffffffffffffffffffff161415611fdc576040517f08c379a0000000000000000000000000000000000000000000000000000000008152600401611fd390614e71565b60405180910390fd5b60106000848152602001908152602001600020828281518110612028577f4e487b7100000000000000000000000000000000000000000000000000000000600052603260045260246000fd5b60200260200101519080600181540180825580915050600190039060005260206000200160009091909190915060008201518160000160006101000a81548173ffffffffffffffffffffffffffffffffffffffff021916908373ffffffffffffffffffffffffffffffffffffffff16021790555060208201518160000160146101000a8154816bffffffffffffffffffffffff02191690836bffffffffffffffffffffffff160217905550505080806120e090615443565b915050611e89565b506120f38282612ccc565b5050565b600081600001549050919050565b6001816000016000828254019250508190555050565b6000806121278361126f565b90508073ffffffffffffffffffffffffffffffffffffffff168473ffffffffffffffffffffffffffffffffffffffff16148061216957506121688185611ac2565b5b806121a757508373ffffffffffffffffffffffffffffffffffffffff1661218f846109cf565b73ffffffffffffffffffffffffffffffffffffffff16145b91505092915050565b8273ffffffffffffffffffffffffffffffffffffffff166121d08261126f565b73ffffffffffffffffffffffffffffffffffffffff1614612226576040517f08c379a000000000000000000000000000000000000000000000000000000000815260040161221d90614db1565b60405180910390fd5b600073ffffffffffffffffffffffffffffffffffffffff168273ffffffffffffffffffffffffffffffffffffffff161415612296576040517f08c379a000000000000000000000000000000000000000000000000000000000815260040161228d90614e31565b60405180910390fd5b6122a1838383612d09565b6122ac600082611d4f565b6001600560008573ffffffffffffffffffffffffffffffffffffffff1673ffffffffffffffffffffffffffffffffffffffff16815260200190815260200160002060008282546122fc9190615298565b925050819055506001600560008473ffffffffffffffffffffffffffffffffffffffff1673ffffffffffffffffffffffffffffffffffffffff168152602001908152602001600020600082825461235391906151b7565b92505081905550816004600083815260200190815260200160002060006101000a81548173ffffffffffffffffffffffffffffffffffffffff021916908373ffffffffffffffffffffffffffffffffffffffff160217905550808273ffffffffffffffffffffffffffffffffffffffff168473ffffffffffffffffffffffffffffffffffffffff167fddf252ad1be2c89b69c2b068fc378daa952ba7f163c4a11628f55a4df523b3ef60405160405180910390a4612412838383612d96565b505050565b61242881612423611d47565b612d9b565b50565b6124358282611bda565b61245a8160016000858152602001908152602001600020611cba90919063ffffffff16565b505050565b6124698282612e38565b61248e8160016000858152602001908152602001600020612f1990919063ffffffff16565b505050565b61249b612f49565b6000600c60006101000a81548160ff0219169083151502179055507f5db9ee0a495bf2e6ff9c91a7834c1ba4fdd244a5e8aa4e537bd38aeae4b073aa6124df611d47565b6040516124ec9190614b9e565b60405180910390a1565b60006125018261126f565b905061250f81600084612d09565b61251a600083611d4f565b6001600560008373ffffffffffffffffffffffffffffffffffffffff1673ffffffffffffffffffffffffffffffffffffffff168152602001908152602001600020600082825461256a9190615298565b925050819055506004600083815260200190815260200160002060006101000a81549073ffffffffffffffffffffffffffffffffffffffff021916905581600073ffffffffffffffffffffffffffffffffffffffff168273ffffffffffffffffffffffffffffffffffffffff167fddf252ad1be2c89b69c2b068fc378daa952ba7f163c4a11628f55a4df523b3ef60405160405180910390a461260f81600084612d96565b5050565b600073ffffffffffffffffffffffffffffffffffffffff168273ffffffffffffffffffffffffffffffffffffffff161415612683576040517f08c379a000000000000000000000000000000000000000000000000000000000815260040161267a90614ef1565b60405180910390fd5b61268c81612af9565b156126cc576040517f08c379a00000000000000000000000000000000000000000000000000000000081526004016126c390614dd1565b60405180910390fd5b6126d860008383612d09565b6001600560008473ffffffffffffffffffffffffffffffffffffffff1673ffffffffffffffffffffffffffffffffffffffff168152602001908152602001600020600082825461272891906151b7565b92505081905550816004600083815260200190815260200160002060006101000a81548173ffffffffffffffffffffffffffffffffffffffff021916908373ffffffffffffffffffffffffffffffffffffffff160217905550808273ffffffffffffffffffffffffffffffffffffffff16600073ffffffffffffffffffffffffffffffffffffffff167fddf252ad1be2c89b69c2b068fc378daa952ba7f163c4a11628f55a4df523b3ef60405160405180910390a46127e960008383612d96565b5050565b6000600f60009054906101000a900473ffffffffffffffffffffffffffffffffffffffff16905081600f60006101000a81548173ffffffffffffffffffffffffffffffffffffffff021916908373ffffffffffffffffffffffffffffffffffffffff1602179055508173ffffffffffffffffffffffffffffffffffffffff168173ffffffffffffffffffffffffffffffffffffffff167f8be0079c531659141344cd1fd0a4f28419497f9722a3daafe3b4186f6b6457e060405160405180910390a35050565b6128bb612f92565b6001600c60006101000a81548160ff0219169083151502179055507f62e78cea01bee320cd4e420270b5ea74000d11b0c9f74754ebdbfc544b05a2586128ff611d47565b60405161290c9190614b9e565b60405180910390a1565b60006129258360000183612fdc565b60001c905092915050565b8173ffffffffffffffffffffffffffffffffffffffff168373ffffffffffffffffffffffffffffffffffffffff16141561299f576040517f08c379a000000000000000000000000000000000000000000000000000000000815260040161299690614e51565b60405180910390fd5b80600760008573ffffffffffffffffffffffffffffffffffffffff1673ffffffffffffffffffffffffffffffffffffffff16815260200190815260200160002060008473ffffffffffffffffffffffffffffffffffffffff1673ffffffffffffffffffffffffffffffffffffffff16815260200190815260200160002060006101000a81548160ff0219169083151502179055508173ffffffffffffffffffffffffffffffffffffffff168373ffffffffffffffffffffffffffffffffffffffff167f17307eab39ab6107e8899845ad3d59bd9653f200f220920489ca2b5937696c3183604051612a909190614c79565b60405180910390a3505050565b612aa88484846121b0565b612ab48484848461302d565b612af3576040517f08c379a0000000000000000000000000000000000000000000000000000000008152600401612aea90614d71565b60405180910390fd5b50505050565b60008073ffffffffffffffffffffffffffffffffffffffff166004600084815260200190815260200160002060009054906101000a900473ffffffffffffffffffffffffffffffffffffffff1673ffffffffffffffffffffffffffffffffffffffff1614159050919050565b6060612b7082611cfc565b6000612b7a6131c4565b90506000815111612b9a5760405180602001604052806000815250612bc5565b80612ba484613256565b604051602001612bb5929190614b1e565b6040516020818303038152906040525b915050919050565b6000612bdb82600001613403565b9050919050565b6000612bee8383613414565b612c47578260000182908060018154018082558091505060019003906000526020600020016000909190919091505582600001805490508360010160008481526020019081526020016000208190555060019050612c4c565b600090505b92915050565b60007f780e9d63000000000000000000000000000000000000000000000000000000007bffffffffffffffffffffffffffffffffffffffffffffffffffffffff1916827bffffffffffffffffffffffffffffffffffffffffffffffffffffffff19161480612cc55750612cc482613437565b5b9050919050565b7f3fa96d7b6bcbfe71ef171666d84db3cf52fa2d1c8afdb1cc8e486177f208b7df8282604051612cfd9291906150b5565b60405180910390a15050565b4260126000838152602001908152602001600020541180612d4757506014600082815260200190815260200160002060009054906101000a900460ff165b612d86576040517f08c379a0000000000000000000000000000000000000000000000000000000008152600401612d7d90615031565b60405180910390fd5b612d91838383613519565b505050565b505050565b612da582826115c5565b612e3457612dca8173ffffffffffffffffffffffffffffffffffffffff166014613529565b612dd88360001c6020613529565b604051602001612de9929190614b64565b6040516020818303038152906040526040517f08c379a0000000000000000000000000000000000000000000000000000000008152600401612e2b9190614caf565b60405180910390fd5b5050565b612e4282826115c5565b15612f1557600080600084815260200190815260200160002060000160008373ffffffffffffffffffffffffffffffffffffffff1673ffffffffffffffffffffffffffffffffffffffff16815260200190815260200160002060006101000a81548160ff021916908315150217905550612eba611d47565b73ffffffffffffffffffffffffffffffffffffffff168173ffffffffffffffffffffffffffffffffffffffff16837ff6391f5c32d9c69d2a47ea670b442974b53935d1edc7fd64eb21e047a839171b60405160405180910390a45b5050565b6000612f41836000018373ffffffffffffffffffffffffffffffffffffffff1660001b613823565b905092915050565b612f51611258565b612f90576040517f08c379a0000000000000000000000000000000000000000000000000000000008152600401612f8790614d31565b60405180910390fd5b565b612f9a611258565b15612fda576040517f08c379a0000000000000000000000000000000000000000000000000000000008152600401612fd190614e91565b60405180910390fd5b565b600082600001828154811061301a577f4e487b7100000000000000000000000000000000000000000000000000000000600052603260045260246000fd5b9060005260206000200154905092915050565b600061304e8473ffffffffffffffffffffffffffffffffffffffff166139a9565b156131b7578373ffffffffffffffffffffffffffffffffffffffff1663150b7a02613077611d47565b8786866040518563ffffffff1660e01b81526004016130999493929190614be2565b602060405180830381600087803b1580156130b357600080fd5b505af19250505080156130e457506040513d601f19601f820116820180604052508101906130e19190614421565b60015b613167573d8060008114613114576040519150601f19603f3d011682016040523d82523d6000602084013e613119565b606091505b5060008151141561315f576040517f08c379a000000000000000000000000000000000000000000000000000000000815260040161315690614d71565b60405180910390fd5b805181602001fd5b63150b7a0260e01b7bffffffffffffffffffffffffffffffffffffffffffffffffffffffff1916817bffffffffffffffffffffffffffffffffffffffffffffffffffffffff1916149150506131bc565b600190505b949350505050565b6060600e80546131d3906153e0565b80601f01602080910402602001604051908101604052809291908181526020018280546131ff906153e0565b801561324c5780601f106132215761010080835404028352916020019161324c565b820191906000526020600020905b81548152906001019060200180831161322f57829003601f168201915b5050505050905090565b6060600082141561329e576040518060400160405280600181526020017f300000000000000000000000000000000000000000000000000000000000000081525090506133fe565b600082905060005b600082146132d05780806132b990615443565b915050600a826132c9919061520d565b91506132a6565b60008167ffffffffffffffff811115613312577f4e487b7100000000000000000000000000000000000000000000000000000000600052604160045260246000fd5b6040519080825280601f01601f1916602001820160405280156133445781602001600182028036833780820191505090505b5090505b600085146133f75760018261335d9190615298565b9150600a8561336c919061548c565b603061337891906151b7565b60f81b8183815181106133b4577f4e487b7100000000000000000000000000000000000000000000000000000000600052603260045260246000fd5b60200101907effffffffffffffffffffffffffffffffffffffffffffffffffffffffffffff1916908160001a905350600a856133f0919061520d565b9450613348565b8093505050505b919050565b600081600001805490509050919050565b600080836001016000848152602001908152602001600020541415905092915050565b60007f80ac58cd000000000000000000000000000000000000000000000000000000007bffffffffffffffffffffffffffffffffffffffffffffffffffffffff1916827bffffffffffffffffffffffffffffffffffffffffffffffffffffffff1916148061350257507f5b5e139f000000000000000000000000000000000000000000000000000000007bffffffffffffffffffffffffffffffffffffffffffffffffffffffff1916827bffffffffffffffffffffffffffffffffffffffffffffffffffffffff1916145b806135125750613511826139cc565b5b9050919050565b613524838383613a46565b505050565b60606000600283600261353c919061523e565b61354691906151b7565b67ffffffffffffffff811115613585577f4e487b7100000000000000000000000000000000000000000000000000000000600052604160045260246000fd5b6040519080825280601f01601f1916602001820160405280156135b75781602001600182028036833780820191505090505b5090507f300000000000000000000000000000000000000000000000000000000000000081600081518110613615577f4e487b7100000000000000000000000000000000000000000000000000000000600052603260045260246000fd5b60200101907effffffffffffffffffffffffffffffffffffffffffffffffffffffffffffff1916908160001a9053507f78000000000000000000000000000000000000000000000000000000000000008160018151811061369f577f4e487b7100000000000000000000000000000000000000000000000000000000600052603260045260246000fd5b60200101907effffffffffffffffffffffffffffffffffffffffffffffffffffffffffffff1916908160001a905350600060018460026136df919061523e565b6136e991906151b7565b90505b60018111156137d5577f3031323334353637383961626364656600000000000000000000000000000000600f861660108110613751577f4e487b7100000000000000000000000000000000000000000000000000000000600052603260045260246000fd5b1a60f81b82828151811061378e577f4e487b7100000000000000000000000000000000000000000000000000000000600052603260045260246000fd5b60200101907effffffffffffffffffffffffffffffffffffffffffffffffffffffffffffff1916908160001a905350600485901c9450806137ce906153b6565b90506136ec565b5060008414613819576040517f08c379a000000000000000000000000000000000000000000000000000000000815260040161381090614cd1565b60405180910390fd5b8091505092915050565b6000808360010160008481526020019081526020016000205490506000811461399d5760006001826138559190615298565b905060006001866000018054905061386d9190615298565b90508181146139285760008660000182815481106138b4577f4e487b7100000000000000000000000000000000000000000000000000000000600052603260045260246000fd5b90600052602060002001549050808760000184815481106138fe577f4e487b7100000000000000000000000000000000000000000000000000000000600052603260045260246000fd5b90600052602060002001819055508387600101600083815260200190815260200160002081905550505b85600001805480613962577f4e487b7100000000000000000000000000000000000000000000000000000000600052603160045260246000fd5b6001900381819060005260206000200160009055905585600101600086815260200190815260200160002060009055600193505050506139a3565b60009150505b92915050565b6000808273ffffffffffffffffffffffffffffffffffffffff163b119050919050565b60007f5a05180f000000000000000000000000000000000000000000000000000000007bffffffffffffffffffffffffffffffffffffffffffffffffffffffff1916827bffffffffffffffffffffffffffffffffffffffffffffffffffffffff19161480613a3f5750613a3e82613a9e565b5b9050919050565b613a51838383613b18565b613a59611258565b15613a99576040517f08c379a0000000000000000000000000000000000000000000000000000000008152600401613a9090614d11565b60405180910390fd5b505050565b60007f7965db0b000000000000000000000000000000000000000000000000000000007bffffffffffffffffffffffffffffffffffffffffffffffffffffffff1916827bffffffffffffffffffffffffffffffffffffffffffffffffffffffff19161480613b115750613b1082613c2c565b5b9050919050565b613b23838383613c96565b600073ffffffffffffffffffffffffffffffffffffffff168373ffffffffffffffffffffffffffffffffffffffff161415613b6657613b6181613c9b565b613ba5565b8173ffffffffffffffffffffffffffffffffffffffff168373ffffffffffffffffffffffffffffffffffffffff1614613ba457613ba38382613ce4565b5b5b600073ffffffffffffffffffffffffffffffffffffffff168273ffffffffffffffffffffffffffffffffffffffff161415613be857613be381613e51565b613c27565b8273ffffffffffffffffffffffffffffffffffffffff168273ffffffffffffffffffffffffffffffffffffffff1614613c2657613c258282613f94565b5b5b505050565b60007f01ffc9a7000000000000000000000000000000000000000000000000000000007bffffffffffffffffffffffffffffffffffffffffffffffffffffffff1916827bffffffffffffffffffffffffffffffffffffffffffffffffffffffff1916149050919050565b505050565b600a80549050600b600083815260200190815260200160002081905550600a81908060018154018082558091505060019003906000526020600020016000909190919091505550565b60006001613cf1846113b1565b613cfb9190615298565b9050600060096000848152602001908152602001600020549050818114613de0576000600860008673ffffffffffffffffffffffffffffffffffffffff1673ffffffffffffffffffffffffffffffffffffffff168152602001908152602001600020600084815260200190815260200160002054905080600860008773ffffffffffffffffffffffffffffffffffffffff1673ffffffffffffffffffffffffffffffffffffffff168152602001908152602001600020600084815260200190815260200160002081905550816009600083815260200190815260200160002081905550505b6009600084815260200190815260200160002060009055600860008573ffffffffffffffffffffffffffffffffffffffff1673ffffffffffffffffffffffffffffffffffffffff16815260200190815260200160002060008381526020019081526020016000206000905550505050565b60006001600a80549050613e659190615298565b90506000600b60008481526020019081526020016000205490506000600a8381548110613ebb577f4e487b7100000000000000000000000000000000000000000000000000000000600052603260045260246000fd5b9060005260206000200154905080600a8381548110613f03577f4e487b7100000000000000000000000000000000000000000000000000000000600052603260045260246000fd5b906000526020600020018190555081600b600083815260200190815260200160002081905550600b600085815260200190815260200160002060009055600a805480613f78577f4e487b7100000000000000000000000000000000000000000000000000000000600052603160045260246000fd5b6001900381819060005260206000200160009055905550505050565b6000613f9f836113b1565b905081600860008573ffffffffffffffffffffffffffffffffffffffff1673ffffffffffffffffffffffffffffffffffffffff168152602001908152602001600020600083815260200190815260200160002081905550806009600084815260200190815260200160002081905550505050565b6040518060400160405280600073ffffffffffffffffffffffffffffffffffffffff16815260200160006bffffffffffffffffffffffff1681525090565b600061406461405f8461510a565b6150e5565b90508281526020810184848401111561407c57600080fd5b614087848285615374565b509392505050565b60008135905061409e81615d56565b92915050565b6000813590506140b381615d6d565b92915050565b6000813590506140c881615d84565b92915050565b6000813590506140dd81615d9b565b92915050565b6000813590506140f281615db2565b92915050565b60008151905061410781615db2565b92915050565b600082601f83011261411e57600080fd5b813561412e848260208601614051565b91505092915050565b60008135905061414681615dc9565b92915050565b60008135905061415b81615de0565b92915050565b60006020828403121561417357600080fd5b60006141818482850161408f565b91505092915050565b6000806040838503121561419d57600080fd5b60006141ab8582860161408f565b92505060206141bc8582860161408f565b9150509250929050565b6000806000606084860312156141db57600080fd5b60006141e98682870161408f565b93505060206141fa8682870161408f565b925050604061420b86828701614137565b9150509250925092565b6000806000806080858703121561422b57600080fd5b60006142398782880161408f565b945050602061424a8782880161408f565b935050604061425b87828801614137565b925050606085013567ffffffffffffffff81111561427857600080fd5b6142848782880161410d565b91505092959194509250565b600080604083850312156142a357600080fd5b60006142b18582860161408f565b92505060206142c2858286016140b9565b9150509250929050565b600080604083850312156142df57600080fd5b60006142ed8582860161408f565b92505060206142fe85828601614137565b9150509250929050565b60008060006060848603121561431d57600080fd5b600061432b8682870161408f565b935050602061433c86828701614137565b925050604061434d868287016140ce565b9150509250925092565b60006020828403121561436957600080fd5b6000614377848285016140ce565b91505092915050565b6000806040838503121561439357600080fd5b60006143a1858286016140ce565b92505060206143b28582860161408f565b9150509250929050565b600080604083850312156143cf57600080fd5b60006143dd858286016140ce565b92505060206143ee85828601614137565b9150509250929050565b60006020828403121561440a57600080fd5b6000614418848285016140e3565b91505092915050565b60006020828403121561443357600080fd5b6000614441848285016140f8565b91505092915050565b60006020828403121561445c57600080fd5b600061446a84828501614137565b91505092915050565b60008060006060848603121561448857600080fd5b600061449686828701614137565b93505060206144a7868287016140a4565b92505060406144b88682870161414c565b9150509250925092565b600080604083850312156144d557600080fd5b60006144e385828601614137565b92505060206144f485828601614137565b9150509250929050565b600061450a8383614ac2565b60408301905092915050565b61451f816152de565b82525050565b61452e816152de565b82525050565b61453d816152cc565b82525050565b600061454e8261514b565b6145588185615179565b93506145638361513b565b8060005b8381101561459457815161457b88826144fe565b97506145868361516c565b925050600181019050614567565b5085935050505092915050565b6145aa816152f0565b82525050565b6145b9816152fc565b82525050565b60006145ca82615156565b6145d4818561518a565b93506145e4818560208601615383565b6145ed81615579565b840191505092915050565b600061460382615161565b61460d818561519b565b935061461d818560208601615383565b61462681615579565b840191505092915050565b600061463c82615161565b61464681856151ac565b9350614656818560208601615383565b80840191505092915050565b600061466f60208361519b565b915061467a8261558a565b602082019050919050565b600061469260328361519b565b915061469d826155b3565b604082019050919050565b60006146b5602b8361519b565b91506146c082615602565b604082019050919050565b60006146d860148361519b565b91506146e382615651565b602082019050919050565b60006146fb602b8361519b565b91506147068261567a565b604082019050919050565b600061471e60328361519b565b9150614729826156c9565b604082019050919050565b600061474160268361519b565b915061474c82615718565b604082019050919050565b60006147646005836151ac565b915061476f82615767565b600582019050919050565b600061478760258361519b565b915061479282615790565b604082019050919050565b60006147aa601c8361519b565b91506147b5826157df565b602082019050919050565b60006147cd60248361519b565b91506147d882615808565b604082019050919050565b60006147f0603e8361519b565b91506147fb82615857565b604082019050919050565b600061481360248361519b565b915061481e826158a6565b604082019050919050565b600061483660198361519b565b9150614841826158f5565b602082019050919050565b600061485960208361519b565b91506148648261591e565b602082019050919050565b600061487c60108361519b565b915061488782615947565b602082019050919050565b600061489f60298361519b565b91506148aa82615970565b604082019050919050565b60006148c2603e8361519b565b91506148cd826159bf565b604082019050919050565b60006148e560208361519b565b91506148f082615a0e565b602082019050919050565b600061490860208361519b565b915061491382615a37565b602082019050919050565b600061492b602f8361519b565b915061493682615a60565b604082019050919050565b600061494e60188361519b565b915061495982615aaf565b602082019050919050565b600061497160218361519b565b915061497c82615ad8565b604082019050919050565b6000614994602c8361519b565b915061499f82615b27565b604082019050919050565b60006149b76017836151ac565b91506149c282615b76565b601782019050919050565b60006149da603d8361519b565b91506149e582615b9f565b604082019050919050565b60006149fd602e8361519b565b9150614a0882615bee565b604082019050919050565b6000614a20601b8361519b565b9150614a2b82615c3d565b602082019050919050565b6000614a4360408361519b565b9150614a4e82615c66565b604082019050919050565b6000614a66601b8361519b565b9150614a7182615cb5565b602082019050919050565b6000614a896011836151ac565b9150614a9482615cde565b601182019050919050565b6000614aac602f8361519b565b9150614ab782615d07565b604082019050919050565b604082016000820151614ad86000850182614516565b506020820151614aeb6020850182614b00565b50505050565b614afa81615352565b82525050565b614b098161535c565b82525050565b614b188161535c565b82525050565b6000614b2a8285614631565b9150614b368284614631565b91508190509392505050565b6000614b4e8284614631565b9150614b5982614757565b915081905092915050565b6000614b6f826149aa565b9150614b7b8285614631565b9150614b8682614a7c565b9150614b928284614631565b91508190509392505050565b6000602082019050614bb36000830184614534565b92915050565b6000604082019050614bce6000830185614525565b614bdb6020830184614b0f565b9392505050565b6000608082019050614bf76000830187614534565b614c046020830186614534565b614c116040830185614af1565b8181036060830152614c2381846145bf565b905095945050505050565b6000604082019050614c436000830185614534565b614c506020830184614af1565b9392505050565b60006020820190508181036000830152614c718184614543565b905092915050565b6000602082019050614c8e60008301846145a1565b92915050565b6000602082019050614ca960008301846145b0565b92915050565b60006020820190508181036000830152614cc981846145f8565b905092915050565b60006020820190508181036000830152614cea81614662565b9050919050565b60006020820190508181036000830152614d0a81614685565b9050919050565b60006020820190508181036000830152614d2a816146a8565b9050919050565b60006020820190508181036000830152614d4a816146cb565b9050919050565b60006020820190508181036000830152614d6a816146ee565b9050919050565b60006020820190508181036000830152614d8a81614711565b9050919050565b60006020820190508181036000830152614daa81614734565b9050919050565b60006020820190508181036000830152614dca8161477a565b9050919050565b60006020820190508181036000830152614dea8161479d565b9050919050565b60006020820190508181036000830152614e0a816147c0565b9050919050565b60006020820190508181036000830152614e2a816147e3565b9050919050565b60006020820190508181036000830152614e4a81614806565b9050919050565b60006020820190508181036000830152614e6a81614829565b9050919050565b60006020820190508181036000830152614e8a8161484c565b9050919050565b60006020820190508181036000830152614eaa8161486f565b9050919050565b60006020820190508181036000830152614eca81614892565b9050919050565b60006020820190508181036000830152614eea816148b5565b9050919050565b60006020820190508181036000830152614f0a816148d8565b9050919050565b60006020820190508181036000830152614f2a816148fb565b9050919050565b60006020820190508181036000830152614f4a8161491e565b9050919050565b60006020820190508181036000830152614f6a81614941565b9050919050565b60006020820190508181036000830152614f8a81614964565b9050919050565b60006020820190508181036000830152614faa81614987565b9050919050565b60006020820190508181036000830152614fca816149cd565b9050919050565b60006020820190508181036000830152614fea816149f0565b9050919050565b6000602082019050818103600083015261500a81614a13565b9050919050565b6000602082019050818103600083015261502a81614a36565b9050919050565b6000602082019050818103600083015261504a81614a59565b9050919050565b6000602082019050818103600083015261506a81614a9f565b9050919050565b60006020820190506150866000830184614af1565b92915050565b60006040820190506150a16000830185614af1565b6150ae6020830184614534565b9392505050565b60006040820190506150ca6000830185614af1565b81810360208301526150dc8184614543565b90509392505050565b60006150ef615100565b90506150fb8282615412565b919050565b6000604051905090565b600067ffffffffffffffff8211156151255761512461554a565b5b61512e82615579565b9050602081019050919050565b6000819050602082019050919050565b600081519050919050565b600081519050919050565b600081519050919050565b6000602082019050919050565b600082825260208201905092915050565b600082825260208201905092915050565b600082825260208201905092915050565b600081905092915050565b60006151c282615352565b91506151cd83615352565b9250827fffffffffffffffffffffffffffffffffffffffffffffffffffffffffffffffff03821115615202576152016154bd565b5b828201905092915050565b600061521882615352565b915061522383615352565b925082615233576152326154ec565b5b828204905092915050565b600061524982615352565b915061525483615352565b9250817fffffffffffffffffffffffffffffffffffffffffffffffffffffffffffffffff048311821515161561528d5761528c6154bd565b5b828202905092915050565b60006152a382615352565b91506152ae83615352565b9250828210156152c1576152c06154bd565b5b828203905092915050565b60006152d782615332565b9050919050565b60006152e982615332565b9050919050565b60008115159050919050565b6000819050919050565b60007fffffffff0000000000000000000000000000000000000000000000000000000082169050919050565b600073ffffffffffffffffffffffffffffffffffffffff82169050919050565b6000819050919050565b60006bffffffffffffffffffffffff82169050919050565b82818337600083830152505050565b60005b838110156153a1578082015181840152602081019050615386565b838111156153b0576000848401525b50505050565b60006153c182615352565b915060008214156153d5576153d46154bd565b5b600182039050919050565b600060028204905060018216806153f857607f821691505b6020821081141561540c5761540b61551b565b5b50919050565b61541b82615579565b810181811067ffffffffffffffff8211171561543a5761543961554a565b5b80604052505050565b600061544e82615352565b91507fffffffffffffffffffffffffffffffffffffffffffffffffffffffffffffffff821415615481576154806154bd565b5b600182019050919050565b600061549782615352565b91506154a283615352565b9250826154b2576154b16154ec565b5b828206905092915050565b7f4e487b7100000000000000000000000000000000000000000000000000000000600052601160045260246000fd5b7f4e487b7100000000000000000000000000000000000000000000000000000000600052601260045260246000fd5b7f4e487b7100000000000000000000000000000000000000000000000000000000600052602260045260246000fd5b7f4e487b7100000000000000000000000000000000000000000000000000000000600052604160045260246000fd5b6000601f19601f8301169050919050565b7f537472696e67733a20686578206c656e67746820696e73756666696369656e74600082015250565b7f426f6e6166796465546f6b656e3a204f6e6c7920746865204f776e657220636160008201527f6e20756e6c6f636b2074686520546f6b656e0000000000000000000000000000602082015250565b7f4552433732315061757361626c653a20746f6b656e207472616e73666572207760008201527f68696c6520706175736564000000000000000000000000000000000000000000602082015250565b7f5061757361626c653a206e6f7420706175736564000000000000000000000000600082015250565b7f455243373231456e756d657261626c653a206f776e657220696e646578206f7560008201527f74206f6620626f756e6473000000000000000000000000000000000000000000602082015250565b7f4552433732313a207472616e7366657220746f206e6f6e20455243373231526560008201527f63656976657220696d706c656d656e7465720000000000000000000000000000602082015250565b7f4f776e61626c653a206e6577206f776e657220697320746865207a65726f206160008201527f6464726573730000000000000000000000000000000000000000000000000000602082015250565b7f2e68746d6c000000000000000000000000000000000000000000000000000000600082015250565b7f4552433732313a207472616e736665722066726f6d20696e636f72726563742060008201527f6f776e6572000000000000000000000000000000000000000000000000000000602082015250565b7f4552433732313a20746f6b656e20616c7265616479206d696e74656400000000600082015250565b7f426f6e6166796465546f6b656e3a20556e6c6f636b20436f646520496e636f7260008201527f7265637400000000000000000000000000000000000000000000000000000000602082015250565b7f4552433732315072657365744d696e7465725061757365724175746f49643a2060008201527f6d75737420686176652070617573657220726f6c6520746f2070617573650000602082015250565b7f4552433732313a207472616e7366657220746f20746865207a65726f2061646460008201527f7265737300000000000000000000000000000000000000000000000000000000602082015250565b7f4552433732313a20617070726f766520746f2063616c6c657200000000000000600082015250565b7f526f79616c74792076616c75652073686f756c6420626520706f736974697665600082015250565b7f5061757361626c653a2070617573656400000000000000000000000000000000600082015250565b7f4552433732313a2061646472657373207a65726f206973206e6f74206120766160008201527f6c6964206f776e65720000000000000000000000000000000000000000000000602082015250565b7f4552433732313a20617070726f76652063616c6c6572206973206e6f7420746f60008201527f6b656e206f776e6572206e6f7220617070726f76656420666f7220616c6c0000602082015250565b7f4552433732313a206d696e7420746f20746865207a65726f2061646472657373600082015250565b7f4f776e61626c653a2063616c6c6572206973206e6f7420746865206f776e6572600082015250565b7f4552433732314d657461646174613a2055524920717565727920666f72206e6f60008201527f6e6578697374656e7420746f6b656e0000000000000000000000000000000000602082015250565b7f4552433732313a20696e76616c696420746f6b656e2049440000000000000000600082015250565b7f4552433732313a20617070726f76616c20746f2063757272656e74206f776e6560008201527f7200000000000000000000000000000000000000000000000000000000000000602082015250565b7f455243373231456e756d657261626c653a20676c6f62616c20696e646578206f60008201527f7574206f6620626f756e64730000000000000000000000000000000000000000602082015250565b7f416363657373436f6e74726f6c3a206163636f756e7420000000000000000000600082015250565b7f4552433732315072657365744d696e7465725061757365724175746f49643a2060008201527f6d7573742068617665206d696e74657220726f6c6520746f206d696e74000000602082015250565b7f4552433732313a2063616c6c6572206973206e6f7420746f6b656e206f776e6560008201527f72206e6f7220617070726f766564000000000000000000000000000000000000602082015250565b7f526563697069656e742073686f756c642062652070726573656e740000000000600082015250565b7f4552433732315072657365744d696e7465725061757365724175746f49643a2060008201527f6d75737420686176652070617573657220726f6c6520746f20756e7061757365602082015250565b7f426f6e6166796465546f6b656e3a20546f6b656e206c6f636b65640000000000600082015250565b7f206973206d697373696e6720726f6c6520000000000000000000000000000000600082015250565b7f416363657373436f6e74726f6c3a2063616e206f6e6c792072656e6f756e636560008201527f20726f6c657320666f722073656c660000000000000000000000000000000000602082015250565b615d5f816152cc565b8114615d6a57600080fd5b50565b615d76816152de565b8114615d8157600080fd5b50565b615d8d816152f0565b8114615d9857600080fd5b50565b615da4816152fc565b8114615daf57600080fd5b50565b615dbb81615306565b8114615dc657600080fd5b50565b615dd281615352565b8114615ddd57600080fd5b50565b615de98161535c565b8114615df457600080fd5b5056fea2646970667358221220ef6d62b22907f9ab5a2f13f22869b332caf2b892103afede50dc89ab0b637fbd64736f6c63430008030033",
  "immutableReferences": {},
  "source": "// SPDX-License-Identifier: MIT\r\npragma solidity 0.8.3;\r\nimport \"@openzeppelin/contracts/token/ERC721/presets/ERC721PresetMinterPauserAutoId.sol\";\r\n// import \"@openzeppelin/contracts/token/ERC721/extensions/ERC721URIStorage.sol\";\r\nimport \"@openzeppelin/contracts/utils/Counters.sol\";\r\nimport \"@openzeppelin/contracts/access/Ownable.sol\";\r\n// import \"@openzeppelin/token/ERC721/ERC721.sol\";\r\nimport \"./@rarible/royalties/contracts/impl/RoyaltiesV2Impl.sol\";\r\nimport \"./@rarible/royalties/contracts/LibPart.sol\";\r\nimport \"./@rarible/royalties/contracts/LibRoyaltiesV2.sol\";\r\n\r\n// Need to implement gas costs adjustment (https://github.com/AboldUSER/ERC721A)\r\n// Deploy NFT on a test net (https://ropsten.rarible.com/) and use the Rarible Marketplace UI to make sure everything works properly\r\n// https://medium.com/rarible-dao/rarible-nft-royalties-in-your-custom-smart-contract-b07550e89ef4\r\n\r\n//https://wizard.openzeppelin.com/#erc721\r\n\r\ncontract BonafydeToken is ERC721PresetMinterPauserAutoId, Ownable, RoyaltiesV2Impl {\r\n    // uint256 private value;\r\n    using Counters for Counters.Counter;\r\n    Counters.Counter private _tokenIds;\r\n    mapping (uint => uint) public tokenLockedFromTimestamp;\r\n    mapping (uint => bytes32) public tokenUnlockCodeHashes;\r\n    mapping (uint => bool) public tokenUnlocked;\r\n    event TokenUnlocked(uint tokenId, address unlockerAddress);\r\n\r\n    //Mintable\r\n    bytes4 private constant _INTERFACE_ID_ERC2981 = 0x2a55205a;\r\n    constructor() ERC721PresetMinterPauserAutoId(\"BonaFyde Token\", \"BFT\", \"https://bonafyde.io/metadata/\") {}\r\n\r\n    function _beforeTokenTransfer(address from, address to, uint256 tokenId) internal override {\r\n        require(tokenLockedFromTimestamp[tokenId] > block.timestamp || tokenUnlocked[tokenId], \"BonafydeToken: Token locked\");\r\n        super._beforeTokenTransfer(from, to, tokenId);\r\n    }\r\n\r\n    function unlockToken(bytes32 unlockHash, uint256 tokenId) public {\r\n        require(msg.sender == ownerOf(tokenId), \"BonafydeToken: Only the Owner can unlock the Token\"); //not 100% sure about that one yet\r\n        require(keccak256(abi.encode(unlockHash)) == tokenUnlockCodeHashes[tokenId], \"BonafydeToken: Unlock Code Incorrect\");\r\n        tokenUnlocked[tokenId] = true;\r\n        emit TokenUnlocked(tokenId, msg.sender);\r\n    }\r\n\r\n    /**\r\n    * This is the mint function that sets the unlock code, then calls the parent mint\r\n    */\r\n    //, string memory tokenuri\r\n    function mint(address to, uint lockedFromTimestamp, bytes32 unlockHash) public onlyOwner {\r\n        tokenLockedFromTimestamp[_tokenIds.current()] = lockedFromTimestamp;\r\n        tokenUnlockCodeHashes[_tokenIds.current()] = unlockHash;\r\n        // _setTokenURI(_tokenIds.current(), tokenuri);\r\n        _tokenIds.increment();\r\n        super.mint(to);\r\n        //call royalties\r\n    }\r\n\r\n    // function getCurrentID() public returns (uint256){\r\n    //     return _tokenIds.current();\r\n    // }\r\n\r\n    function tokenURI(uint256 tokenId) public view virtual override returns (string memory) {\r\n        require( _exists(tokenId), \"ERC721Metadata: URI query for nonexistent token\");\r\n        return string(abi.encodePacked(super.tokenURI(tokenId), \".html\"));\r\n    }\r\n\r\n    //Royalties\r\n    function setRoyalties(uint _tokenId, address payable _royaltiesReceipientAddress, uint96 _percentageBasisPoints) public onlyOwner {\r\n        LibPart.Part[] memory _royalties = new LibPart.Part[](1);\r\n        _royalties[0].value = _percentageBasisPoints;\r\n        _royalties[0].account = _royaltiesReceipientAddress;\r\n        _saveRoyalties(_tokenId, _royalties);\r\n    }\r\n\r\n    //Mintable\r\n    function royaltyInfo(uint256 _tokenId, uint256 _salePrice) external view returns (address receiver, uint256 royaltyAmount) {\r\n        LibPart.Part[] memory _royalties = royalties[_tokenId];\r\n        if(_royalties.length > 0) {\r\n            return (_royalties[0].account, (_salePrice * _royalties[0].value)/10000);\r\n        }\r\n        return (address(0), 0);\r\n    }\r\n\r\n    function supportsInterface(bytes4 interfaceId) public view virtual override(ERC721PresetMinterPauserAutoId) returns (bool) {\r\n        if(interfaceId == LibRoyaltiesV2._INTERFACE_ID_ROYALTIES) {\r\n            return true;\r\n        }\r\n        //Mintable\r\n        if(interfaceId == _INTERFACE_ID_ERC2981) {\r\n            return true;\r\n        }\r\n        return super.supportsInterface(interfaceId);\r\n    } \r\n}",
  "sourcePath": "C:\\Users\\raymo\\OneDrive\\Documents\\BonaFyde\\BFT\\contracts\\BonafydeToken.sol",
  "compiler": {
    "name": "solc",
    "version": "0.8.3+commit.8d00100c.Emscripten.clang"
  },
  "schemaVersion": "3.4.11",
  "updatedAt": "2023-02-15T01:48:18.995Z",
  "devdoc": {
    "kind": "dev",
    "methods": {
      "approve(address,uint256)": {
        "details": "See {IERC721-approve}."
      },
      "balanceOf(address)": {
        "details": "See {IERC721-balanceOf}."
      },
      "burn(uint256)": {
        "details": "Burns `tokenId`. See {ERC721-_burn}. Requirements: - The caller must own `tokenId` or be an approved operator."
      },
      "getApproved(uint256)": {
        "details": "See {IERC721-getApproved}."
      },
      "getRoleAdmin(bytes32)": {
        "details": "Returns the admin role that controls `role`. See {grantRole} and {revokeRole}. To change a role's admin, use {_setRoleAdmin}."
      },
      "getRoleMember(bytes32,uint256)": {
        "details": "Returns one of the accounts that have `role`. `index` must be a value between 0 and {getRoleMemberCount}, non-inclusive. Role bearers are not sorted in any particular way, and their ordering may change at any point. WARNING: When using {getRoleMember} and {getRoleMemberCount}, make sure you perform all queries on the same block. See the following https://forum.openzeppelin.com/t/iterating-over-elements-on-enumerableset-in-openzeppelin-contracts/2296[forum post] for more information."
      },
      "getRoleMemberCount(bytes32)": {
        "details": "Returns the number of accounts that have `role`. Can be used together with {getRoleMember} to enumerate all bearers of a role."
      },
      "grantRole(bytes32,address)": {
        "details": "Grants `role` to `account`. If `account` had not been already granted `role`, emits a {RoleGranted} event. Requirements: - the caller must have ``role``'s admin role. May emit a {RoleGranted} event."
      },
      "hasRole(bytes32,address)": {
        "details": "Returns `true` if `account` has been granted `role`."
      },
      "isApprovedForAll(address,address)": {
        "details": "See {IERC721-isApprovedForAll}."
      },
      "mint(address)": {
        "details": "Creates a new token for `to`. Its token ID will be automatically assigned (and available on the emitted {IERC721-Transfer} event), and the token URI autogenerated based on the base URI passed at construction. See {ERC721-_mint}. Requirements: - the caller must have the `MINTER_ROLE`."
      },
      "name()": {
        "details": "See {IERC721Metadata-name}."
      },
      "owner()": {
        "details": "Returns the address of the current owner."
      },
      "ownerOf(uint256)": {
        "details": "See {IERC721-ownerOf}."
      },
      "pause()": {
        "details": "Pauses all token transfers. See {ERC721Pausable} and {Pausable-_pause}. Requirements: - the caller must have the `PAUSER_ROLE`."
      },
      "paused()": {
        "details": "Returns true if the contract is paused, and false otherwise."
      },
      "renounceOwnership()": {
        "details": "Leaves the contract without owner. It will not be possible to call `onlyOwner` functions anymore. Can only be called by the current owner. NOTE: Renouncing ownership will leave the contract without an owner, thereby removing any functionality that is only available to the owner."
      },
      "renounceRole(bytes32,address)": {
        "details": "Revokes `role` from the calling account. Roles are often managed via {grantRole} and {revokeRole}: this function's purpose is to provide a mechanism for accounts to lose their privileges if they are compromised (such as when a trusted device is misplaced). If the calling account had been revoked `role`, emits a {RoleRevoked} event. Requirements: - the caller must be `account`. May emit a {RoleRevoked} event."
      },
      "revokeRole(bytes32,address)": {
        "details": "Revokes `role` from `account`. If `account` had been granted `role`, emits a {RoleRevoked} event. Requirements: - the caller must have ``role``'s admin role. May emit a {RoleRevoked} event."
      },
      "safeTransferFrom(address,address,uint256)": {
        "details": "See {IERC721-safeTransferFrom}."
      },
      "safeTransferFrom(address,address,uint256,bytes)": {
        "details": "See {IERC721-safeTransferFrom}."
      },
      "setApprovalForAll(address,bool)": {
        "details": "See {IERC721-setApprovalForAll}."
      },
      "supportsInterface(bytes4)": {
        "details": "See {IERC165-supportsInterface}."
      },
      "symbol()": {
        "details": "See {IERC721Metadata-symbol}."
      },
      "tokenByIndex(uint256)": {
        "details": "See {IERC721Enumerable-tokenByIndex}."
      },
      "tokenOfOwnerByIndex(address,uint256)": {
        "details": "See {IERC721Enumerable-tokenOfOwnerByIndex}."
      },
      "tokenURI(uint256)": {
        "details": "See {IERC721Metadata-tokenURI}."
      },
      "totalSupply()": {
        "details": "See {IERC721Enumerable-totalSupply}."
      },
      "transferFrom(address,address,uint256)": {
        "details": "See {IERC721-transferFrom}."
      },
      "transferOwnership(address)": {
        "details": "Transfers ownership of the contract to a new account (`newOwner`). Can only be called by the current owner."
      },
      "unpause()": {
        "details": "Unpauses all token transfers. See {ERC721Pausable} and {Pausable-_unpause}. Requirements: - the caller must have the `PAUSER_ROLE`."
      }
    },
    "version": 1
  },
  "userdoc": {
    "kind": "user",
    "methods": {
      "mint(address,uint256,bytes32)": {
        "notice": "This is the mint function that sets the unlock code, then calls the parent mint"
      }
    },
    "version": 1
  }
}