{
  "contractName": "BonafydeToken",
  "abi": [
    {
      "inputs": [],
      "stateMutability": "nonpayable",
      "type": "constructor"
    },
    {
      "anonymous": false,
      "inputs": [
        {
          "indexed": true,
          "internalType": "address",
          "name": "owner",
          "type": "address"
        },
        {
          "indexed": true,
          "internalType": "address",
          "name": "approved",
          "type": "address"
        },
        {
          "indexed": true,
          "internalType": "uint256",
          "name": "tokenId",
          "type": "uint256"
        }
      ],
      "name": "Approval",
      "type": "event"
    },
    {
      "anonymous": false,
      "inputs": [
        {
          "indexed": true,
          "internalType": "address",
          "name": "owner",
          "type": "address"
        },
        {
          "indexed": true,
          "internalType": "address",
          "name": "operator",
          "type": "address"
        },
        {
          "indexed": false,
          "internalType": "bool",
          "name": "approved",
          "type": "bool"
        }
      ],
      "name": "ApprovalForAll",
      "type": "event"
    },
    {
      "anonymous": false,
      "inputs": [
        {
          "indexed": false,
          "internalType": "address",
          "name": "account",
          "type": "address"
        }
      ],
      "name": "Paused",
      "type": "event"
    },
    {
      "anonymous": false,
      "inputs": [
        {
          "indexed": true,
          "internalType": "bytes32",
          "name": "role",
          "type": "bytes32"
        },
        {
          "indexed": true,
          "internalType": "bytes32",
          "name": "previousAdminRole",
          "type": "bytes32"
        },
        {
          "indexed": true,
          "internalType": "bytes32",
          "name": "newAdminRole",
          "type": "bytes32"
        }
      ],
      "name": "RoleAdminChanged",
      "type": "event"
    },
    {
      "anonymous": false,
      "inputs": [
        {
          "indexed": true,
          "internalType": "bytes32",
          "name": "role",
          "type": "bytes32"
        },
        {
          "indexed": true,
          "internalType": "address",
          "name": "account",
          "type": "address"
        },
        {
          "indexed": true,
          "internalType": "address",
          "name": "sender",
          "type": "address"
        }
      ],
      "name": "RoleGranted",
      "type": "event"
    },
    {
      "anonymous": false,
      "inputs": [
        {
          "indexed": true,
          "internalType": "bytes32",
          "name": "role",
          "type": "bytes32"
        },
        {
          "indexed": true,
          "internalType": "address",
          "name": "account",
          "type": "address"
        },
        {
          "indexed": true,
          "internalType": "address",
          "name": "sender",
          "type": "address"
        }
      ],
      "name": "RoleRevoked",
      "type": "event"
    },
    {
      "anonymous": false,
      "inputs": [
        {
          "indexed": true,
          "internalType": "address",
          "name": "from",
          "type": "address"
        },
        {
          "indexed": true,
          "internalType": "address",
          "name": "to",
          "type": "address"
        },
        {
          "indexed": true,
          "internalType": "uint256",
          "name": "tokenId",
          "type": "uint256"
        }
      ],
      "name": "Transfer",
      "type": "event"
    },
    {
      "anonymous": false,
      "inputs": [
        {
          "indexed": false,
          "internalType": "address",
          "name": "account",
          "type": "address"
        }
      ],
      "name": "Unpaused",
      "type": "event"
    },
    {
      "inputs": [],
      "name": "DEFAULT_ADMIN_ROLE",
      "outputs": [
        {
          "internalType": "bytes32",
          "name": "",
          "type": "bytes32"
        }
      ],
      "stateMutability": "view",
      "type": "function",
      "constant": true
    },
    {
      "inputs": [],
      "name": "MINTER_ROLE",
      "outputs": [
        {
          "internalType": "bytes32",
          "name": "",
          "type": "bytes32"
        }
      ],
      "stateMutability": "view",
      "type": "function",
      "constant": true
    },
    {
      "inputs": [],
      "name": "PAUSER_ROLE",
      "outputs": [
        {
          "internalType": "bytes32",
          "name": "",
          "type": "bytes32"
        }
      ],
      "stateMutability": "view",
      "type": "function",
      "constant": true
    },
    {
      "inputs": [
        {
          "internalType": "address",
          "name": "to",
          "type": "address"
        },
        {
          "internalType": "uint256",
          "name": "tokenId",
          "type": "uint256"
        }
      ],
      "name": "approve",
      "outputs": [],
      "stateMutability": "nonpayable",
      "type": "function"
    },
    {
      "inputs": [
        {
          "internalType": "address",
          "name": "owner",
          "type": "address"
        }
      ],
      "name": "balanceOf",
      "outputs": [
        {
          "internalType": "uint256",
          "name": "",
          "type": "uint256"
        }
      ],
      "stateMutability": "view",
      "type": "function",
      "constant": true
    },
    {
      "inputs": [
        {
          "internalType": "uint256",
          "name": "tokenId",
          "type": "uint256"
        }
      ],
      "name": "burn",
      "outputs": [],
      "stateMutability": "nonpayable",
      "type": "function"
    },
    {
      "inputs": [
        {
          "internalType": "uint256",
          "name": "tokenId",
          "type": "uint256"
        }
      ],
      "name": "getApproved",
      "outputs": [
        {
          "internalType": "address",
          "name": "",
          "type": "address"
        }
      ],
      "stateMutability": "view",
      "type": "function",
      "constant": true
    },
    {
      "inputs": [
        {
          "internalType": "bytes32",
          "name": "role",
          "type": "bytes32"
        }
      ],
      "name": "getRoleAdmin",
      "outputs": [
        {
          "internalType": "bytes32",
          "name": "",
          "type": "bytes32"
        }
      ],
      "stateMutability": "view",
      "type": "function",
      "constant": true
    },
    {
      "inputs": [
        {
          "internalType": "bytes32",
          "name": "role",
          "type": "bytes32"
        },
        {
          "internalType": "uint256",
          "name": "index",
          "type": "uint256"
        }
      ],
      "name": "getRoleMember",
      "outputs": [
        {
          "internalType": "address",
          "name": "",
          "type": "address"
        }
      ],
      "stateMutability": "view",
      "type": "function",
      "constant": true
    },
    {
      "inputs": [
        {
          "internalType": "bytes32",
          "name": "role",
          "type": "bytes32"
        }
      ],
      "name": "getRoleMemberCount",
      "outputs": [
        {
          "internalType": "uint256",
          "name": "",
          "type": "uint256"
        }
      ],
      "stateMutability": "view",
      "type": "function",
      "constant": true
    },
    {
      "inputs": [
        {
          "internalType": "bytes32",
          "name": "role",
          "type": "bytes32"
        },
        {
          "internalType": "address",
          "name": "account",
          "type": "address"
        }
      ],
      "name": "grantRole",
      "outputs": [],
      "stateMutability": "nonpayable",
      "type": "function"
    },
    {
      "inputs": [
        {
          "internalType": "bytes32",
          "name": "role",
          "type": "bytes32"
        },
        {
          "internalType": "address",
          "name": "account",
          "type": "address"
        }
      ],
      "name": "hasRole",
      "outputs": [
        {
          "internalType": "bool",
          "name": "",
          "type": "bool"
        }
      ],
      "stateMutability": "view",
      "type": "function",
      "constant": true
    },
    {
      "inputs": [
        {
          "internalType": "address",
          "name": "owner",
          "type": "address"
        },
        {
          "internalType": "address",
          "name": "operator",
          "type": "address"
        }
      ],
      "name": "isApprovedForAll",
      "outputs": [
        {
          "internalType": "bool",
          "name": "",
          "type": "bool"
        }
      ],
      "stateMutability": "view",
      "type": "function",
      "constant": true
    },
    {
      "inputs": [
        {
          "internalType": "address",
          "name": "to",
          "type": "address"
        }
      ],
      "name": "mint",
      "outputs": [],
      "stateMutability": "nonpayable",
      "type": "function"
    },
    {
      "inputs": [],
      "name": "name",
      "outputs": [
        {
          "internalType": "string",
          "name": "",
          "type": "string"
        }
      ],
      "stateMutability": "view",
      "type": "function",
      "constant": true
    },
    {
      "inputs": [
        {
          "internalType": "uint256",
          "name": "tokenId",
          "type": "uint256"
        }
      ],
      "name": "ownerOf",
      "outputs": [
        {
          "internalType": "address",
          "name": "",
          "type": "address"
        }
      ],
      "stateMutability": "view",
      "type": "function",
      "constant": true
    },
    {
      "inputs": [],
      "name": "pause",
      "outputs": [],
      "stateMutability": "nonpayable",
      "type": "function"
    },
    {
      "inputs": [],
      "name": "paused",
      "outputs": [
        {
          "internalType": "bool",
          "name": "",
          "type": "bool"
        }
      ],
      "stateMutability": "view",
      "type": "function",
      "constant": true
    },
    {
      "inputs": [
        {
          "internalType": "bytes32",
          "name": "role",
          "type": "bytes32"
        },
        {
          "internalType": "address",
          "name": "account",
          "type": "address"
        }
      ],
      "name": "renounceRole",
      "outputs": [],
      "stateMutability": "nonpayable",
      "type": "function"
    },
    {
      "inputs": [
        {
          "internalType": "bytes32",
          "name": "role",
          "type": "bytes32"
        },
        {
          "internalType": "address",
          "name": "account",
          "type": "address"
        }
      ],
      "name": "revokeRole",
      "outputs": [],
      "stateMutability": "nonpayable",
      "type": "function"
    },
    {
      "inputs": [
        {
          "internalType": "address",
          "name": "from",
          "type": "address"
        },
        {
          "internalType": "address",
          "name": "to",
          "type": "address"
        },
        {
          "internalType": "uint256",
          "name": "tokenId",
          "type": "uint256"
        }
      ],
      "name": "safeTransferFrom",
      "outputs": [],
      "stateMutability": "nonpayable",
      "type": "function"
    },
    {
      "inputs": [
        {
          "internalType": "address",
          "name": "from",
          "type": "address"
        },
        {
          "internalType": "address",
          "name": "to",
          "type": "address"
        },
        {
          "internalType": "uint256",
          "name": "tokenId",
          "type": "uint256"
        },
        {
          "internalType": "bytes",
          "name": "data",
          "type": "bytes"
        }
      ],
      "name": "safeTransferFrom",
      "outputs": [],
      "stateMutability": "nonpayable",
      "type": "function"
    },
    {
      "inputs": [
        {
          "internalType": "address",
          "name": "operator",
          "type": "address"
        },
        {
          "internalType": "bool",
          "name": "approved",
          "type": "bool"
        }
      ],
      "name": "setApprovalForAll",
      "outputs": [],
      "stateMutability": "nonpayable",
      "type": "function"
    },
    {
      "inputs": [
        {
          "internalType": "bytes4",
          "name": "interfaceId",
          "type": "bytes4"
        }
      ],
      "name": "supportsInterface",
      "outputs": [
        {
          "internalType": "bool",
          "name": "",
          "type": "bool"
        }
      ],
      "stateMutability": "view",
      "type": "function",
      "constant": true
    },
    {
      "inputs": [],
      "name": "symbol",
      "outputs": [
        {
          "internalType": "string",
          "name": "",
          "type": "string"
        }
      ],
      "stateMutability": "view",
      "type": "function",
      "constant": true
    },
    {
      "inputs": [
        {
          "internalType": "uint256",
          "name": "index",
          "type": "uint256"
        }
      ],
      "name": "tokenByIndex",
      "outputs": [
        {
          "internalType": "uint256",
          "name": "",
          "type": "uint256"
        }
      ],
      "stateMutability": "view",
      "type": "function",
      "constant": true
    },
    {
      "inputs": [
        {
          "internalType": "address",
          "name": "owner",
          "type": "address"
        },
        {
          "internalType": "uint256",
          "name": "index",
          "type": "uint256"
        }
      ],
      "name": "tokenOfOwnerByIndex",
      "outputs": [
        {
          "internalType": "uint256",
          "name": "",
          "type": "uint256"
        }
      ],
      "stateMutability": "view",
      "type": "function",
      "constant": true
    },
    {
      "inputs": [],
      "name": "totalSupply",
      "outputs": [
        {
          "internalType": "uint256",
          "name": "",
          "type": "uint256"
        }
      ],
      "stateMutability": "view",
      "type": "function",
      "constant": true
    },
    {
      "inputs": [
        {
          "internalType": "address",
          "name": "from",
          "type": "address"
        },
        {
          "internalType": "address",
          "name": "to",
          "type": "address"
        },
        {
          "internalType": "uint256",
          "name": "tokenId",
          "type": "uint256"
        }
      ],
      "name": "transferFrom",
      "outputs": [],
      "stateMutability": "nonpayable",
      "type": "function"
    },
    {
      "inputs": [],
      "name": "unpause",
      "outputs": [],
      "stateMutability": "nonpayable",
      "type": "function"
    },
    {
      "inputs": [
        {
          "internalType": "uint256",
          "name": "tokenId",
          "type": "uint256"
        }
      ],
      "name": "tokenURI",
      "outputs": [
        {
          "internalType": "string",
          "name": "",
          "type": "string"
        }
      ],
      "stateMutability": "view",
      "type": "function",
      "constant": true
    }
  ],
  "bytecode": "0x60806040523480156200001157600080fd5b506040518060400160405280600d81526020017f426f6e6166796465546f6b656e000000000000000000000000000000000000008152506040518060400160405280600381526020017f42465400000000000000000000000000000000000000000000000000000000008152506040518060400160405280601d81526020017f68747470733a2f2f626f6e61667964652e696f2f6d657461646174612f00000081525082828160029080519060200190620000ce92919062000463565b508060039080519060200190620000e792919062000463565b5050506000600c60006101000a81548160ff02191690831515021790555080600e90805190602001906200011d92919062000463565b50620001426000801b62000136620001cd60201b60201c565b620001d560201b60201c565b620001837f9f2df0fed2c77648de5860a4cc508cd0818c85b8b8a1ab4ceeef8d981c8956a662000177620001cd60201b60201c565b620001d560201b60201c565b620001c47f65d7a28e3265b37a6474929f336521b332c1681b933f6cb9f3376673440d862a620001b8620001cd60201b60201c565b620001d560201b60201c565b50505062000578565b600033905090565b620001e78282620001eb60201b60201c565b5050565b6200020282826200023360201b620011131760201c565b6200022e81600160008581526020019081526020016000206200032460201b620011f31790919060201c565b505050565b6200024582826200035c60201b60201c565b6200032057600160008084815260200190815260200160002060000160008373ffffffffffffffffffffffffffffffffffffffff1673ffffffffffffffffffffffffffffffffffffffff16815260200190815260200160002060006101000a81548160ff021916908315150217905550620002c5620001cd60201b60201c565b73ffffffffffffffffffffffffffffffffffffffff168173ffffffffffffffffffffffffffffffffffffffff16837f2f8788117e7eff1d82e926ec794901d17c78024a50270940304540a733656f0d60405160405180910390a45b5050565b600062000354836000018373ffffffffffffffffffffffffffffffffffffffff1660001b620003c660201b60201c565b905092915050565b600080600084815260200190815260200160002060000160008373ffffffffffffffffffffffffffffffffffffffff1673ffffffffffffffffffffffffffffffffffffffff16815260200190815260200160002060009054906101000a900460ff16905092915050565b6000620003da83836200044060201b60201c565b620004355782600001829080600181540180825580915050600190039060005260206000200160009091909190915055826000018054905083600101600084815260200190815260200160002081905550600190506200043a565b600090505b92915050565b600080836001016000848152602001908152602001600020541415905092915050565b828054620004719062000513565b90600052602060002090601f016020900481019282620004955760008555620004e1565b82601f10620004b057805160ff1916838001178555620004e1565b82800160010185558215620004e1579182015b82811115620004e0578251825591602001919060010190620004c3565b5b509050620004f09190620004f4565b5090565b5b808211156200050f576000816000905550600101620004f5565b5090565b600060028204905060018216806200052c57607f821691505b6020821081141562000543576200054262000549565b5b50919050565b7f4e487b7100000000000000000000000000000000000000000000000000000000600052602260045260246000fd5b61475c80620005886000396000f3fe608060405234801561001057600080fd5b50600436106101e55760003560e01c80636352211e1161010f578063a22cb465116100a2578063d539139311610071578063d5391393146105a0578063d547741f146105be578063e63ab1e9146105da578063e985e9c5146105f8576101e5565b8063a22cb46514610508578063b88d4fde14610524578063c87b56dd14610540578063ca15c87314610570576101e5565b80639010d07c116100de5780639010d07c1461046c57806391d148541461049c57806395d89b41146104cc578063a217fddf146104ea576101e5565b80636352211e146103e65780636a6278421461041657806370a08231146104325780638456cb5914610462576101e5565b80632f2ff15d1161018757806342842e0e1161015657806342842e0e1461036057806342966c681461037c5780634f6ccce7146103985780635c975abb146103c8576101e5565b80632f2ff15d146102ee5780632f745c591461030a57806336568abe1461033a5780633f4ba83a14610356576101e5565b8063095ea7b3116101c3578063095ea7b31461026857806318160ddd1461028457806323b872dd146102a2578063248a9ca3146102be576101e5565b806301ffc9a7146101ea57806306fdde031461021a578063081812fc14610238575b600080fd5b61020460048036038101906101ff91906133e9565b610628565b6040516102119190613972565b60405180910390f35b61022261063a565b60405161022f91906139a8565b60405180910390f35b610252600480360381019061024d919061343b565b6106cc565b60405161025f919061390b565b60405180910390f35b610282600480360381019061027d919061330c565b610712565b005b61028c61082a565b6040516102999190613c6a565b60405180910390f35b6102bc60048036038101906102b79190613206565b610837565b005b6102d860048036038101906102d39190613348565b610897565b6040516102e5919061398d565b60405180910390f35b61030860048036038101906103039190613371565b6108b6565b005b610324600480360381019061031f919061330c565b6108d7565b6040516103319190613c6a565b60405180910390f35b610354600480360381019061034f9190613371565b61097c565b005b61035e6109ff565b005b61037a60048036038101906103759190613206565b610a79565b005b6103966004803603810190610391919061343b565b610a99565b005b6103b260048036038101906103ad919061343b565b610af5565b6040516103bf9190613c6a565b60405180910390f35b6103d0610b8c565b6040516103dd9190613972565b60405180910390f35b61040060048036038101906103fb919061343b565b610ba3565b60405161040d919061390b565b60405180910390f35b610430600480360381019061042b91906131a1565b610c55565b005b61044c600480360381019061044791906131a1565b610ce5565b6040516104599190613c6a565b60405180910390f35b61046a610d9d565b005b610486600480360381019061048191906133ad565b610e17565b604051610493919061390b565b60405180910390f35b6104b660048036038101906104b19190613371565b610e46565b6040516104c39190613972565b60405180910390f35b6104d4610eb0565b6040516104e191906139a8565b60405180910390f35b6104f2610f42565b6040516104ff919061398d565b60405180910390f35b610522600480360381019061051d91906132d0565b610f49565b005b61053e60048036038101906105399190613255565b610f5f565b005b61055a6004803603810190610555919061343b565b610fc1565b60405161056791906139a8565b60405180910390f35b61058a60048036038101906105859190613348565b610ff2565b6040516105979190613c6a565b60405180910390f35b6105a8611016565b6040516105b5919061398d565b60405180910390f35b6105d860048036038101906105d39190613371565b61103a565b005b6105e261105b565b6040516105ef919061398d565b60405180910390f35b610612600480360381019061060d91906131ca565b61107f565b60405161061f9190613972565b60405180910390f35b600061063382611223565b9050919050565b60606002805461064990613f1d565b80601f016020809104026020016040519081016040528092919081815260200182805461067590613f1d565b80156106c25780601f10610697576101008083540402835291602001916106c2565b820191906000526020600020905b8154815290600101906020018083116106a557829003601f168201915b5050505050905090565b60006106d78261129d565b6006600083815260200190815260200160002060009054906101000a900473ffffffffffffffffffffffffffffffffffffffff169050919050565b600061071d82610ba3565b90508073ffffffffffffffffffffffffffffffffffffffff168373ffffffffffffffffffffffffffffffffffffffff16141561078e576040517f08c379a000000000000000000000000000000000000000000000000000000000815260040161078590613baa565b60405180910390fd5b8073ffffffffffffffffffffffffffffffffffffffff166107ad6112e8565b73ffffffffffffffffffffffffffffffffffffffff1614806107dc57506107db816107d66112e8565b61107f565b5b61081b576040517f08c379a000000000000000000000000000000000000000000000000000000000815260040161081290613b4a565b60405180910390fd5b61082583836112f0565b505050565b6000600a80549050905090565b6108486108426112e8565b826113a9565b610887576040517f08c379a000000000000000000000000000000000000000000000000000000000815260040161087e90613c0a565b60405180910390fd5b61089283838361143e565b505050565b6000806000838152602001908152602001600020600101549050919050565b6108bf82610897565b6108c8816116a5565b6108d283836116b9565b505050565b60006108e283610ce5565b8210610923576040517f08c379a000000000000000000000000000000000000000000000000000000000815260040161091a90613a2a565b60405180910390fd5b600860008473ffffffffffffffffffffffffffffffffffffffff1673ffffffffffffffffffffffffffffffffffffffff168152602001908152602001600020600083815260200190815260200160002054905092915050565b6109846112e8565b73ffffffffffffffffffffffffffffffffffffffff168173ffffffffffffffffffffffffffffffffffffffff16146109f1576040517f08c379a00000000000000000000000000000000000000000000000000000000081526004016109e890613c4a565b60405180910390fd5b6109fb82826116ed565b5050565b610a307f65d7a28e3265b37a6474929f336521b332c1681b933f6cb9f3376673440d862a610a2b6112e8565b610e46565b610a6f576040517f08c379a0000000000000000000000000000000000000000000000000000000008152600401610a6690613c2a565b60405180910390fd5b610a77611721565b565b610a9483838360405180602001604052806000815250610f5f565b505050565b610aaa610aa46112e8565b826113a9565b610ae9576040517f08c379a0000000000000000000000000000000000000000000000000000000008152600401610ae090613c0a565b60405180910390fd5b610af281611784565b50565b6000610aff61082a565b8210610b40576040517f08c379a0000000000000000000000000000000000000000000000000000000008152600401610b3790613bca565b60405180910390fd5b600a8281548110610b7a577f4e487b7100000000000000000000000000000000000000000000000000000000600052603260045260246000fd5b90600052602060002001549050919050565b6000600c60009054906101000a900460ff16905090565b6000806004600084815260200190815260200160002060009054906101000a900473ffffffffffffffffffffffffffffffffffffffff169050600073ffffffffffffffffffffffffffffffffffffffff168173ffffffffffffffffffffffffffffffffffffffff161415610c4c576040517f08c379a0000000000000000000000000000000000000000000000000000000008152600401610c4390613b8a565b60405180910390fd5b80915050919050565b610c867f9f2df0fed2c77648de5860a4cc508cd0818c85b8b8a1ab4ceeef8d981c8956a6610c816112e8565b610e46565b610cc5576040517f08c379a0000000000000000000000000000000000000000000000000000000008152600401610cbc90613bea565b60405180910390fd5b610cd881610cd3600d6118a1565b6118af565b610ce2600d611a89565b50565b60008073ffffffffffffffffffffffffffffffffffffffff168273ffffffffffffffffffffffffffffffffffffffff161415610d56576040517f08c379a0000000000000000000000000000000000000000000000000000000008152600401610d4d90613b2a565b60405180910390fd5b600560008373ffffffffffffffffffffffffffffffffffffffff1673ffffffffffffffffffffffffffffffffffffffff168152602001908152602001600020549050919050565b610dce7f65d7a28e3265b37a6474929f336521b332c1681b933f6cb9f3376673440d862a610dc96112e8565b610e46565b610e0d576040517f08c379a0000000000000000000000000000000000000000000000000000000008152600401610e0490613aaa565b60405180910390fd5b610e15611a9f565b565b6000610e3e8260016000868152602001908152602001600020611b0290919063ffffffff16565b905092915050565b600080600084815260200190815260200160002060000160008373ffffffffffffffffffffffffffffffffffffffff1673ffffffffffffffffffffffffffffffffffffffff16815260200190815260200160002060009054906101000a900460ff16905092915050565b606060038054610ebf90613f1d565b80601f0160208091040260200160405190810160405280929190818152602001828054610eeb90613f1d565b8015610f385780601f10610f0d57610100808354040283529160200191610f38565b820191906000526020600020905b815481529060010190602001808311610f1b57829003601f168201915b5050505050905090565b6000801b81565b610f5b610f546112e8565b8383611b1c565b5050565b610f70610f6a6112e8565b836113a9565b610faf576040517f08c379a0000000000000000000000000000000000000000000000000000000008152600401610fa690613c0a565b60405180910390fd5b610fbb84848484611c89565b50505050565b6060610fcc82611ce5565b604051602001610fdc91906138af565b6040516020818303038152906040529050919050565b600061100f60016000848152602001908152602001600020611d4d565b9050919050565b7f9f2df0fed2c77648de5860a4cc508cd0818c85b8b8a1ab4ceeef8d981c8956a681565b61104382610897565b61104c816116a5565b61105683836116ed565b505050565b7f65d7a28e3265b37a6474929f336521b332c1681b933f6cb9f3376673440d862a81565b6000600760008473ffffffffffffffffffffffffffffffffffffffff1673ffffffffffffffffffffffffffffffffffffffff16815260200190815260200160002060008373ffffffffffffffffffffffffffffffffffffffff1673ffffffffffffffffffffffffffffffffffffffff16815260200190815260200160002060009054906101000a900460ff16905092915050565b61111d8282610e46565b6111ef57600160008084815260200190815260200160002060000160008373ffffffffffffffffffffffffffffffffffffffff1673ffffffffffffffffffffffffffffffffffffffff16815260200190815260200160002060006101000a81548160ff0219169083151502179055506111946112e8565b73ffffffffffffffffffffffffffffffffffffffff168173ffffffffffffffffffffffffffffffffffffffff16837f2f8788117e7eff1d82e926ec794901d17c78024a50270940304540a733656f0d60405160405180910390a45b5050565b600061121b836000018373ffffffffffffffffffffffffffffffffffffffff1660001b611d62565b905092915050565b60007f780e9d63000000000000000000000000000000000000000000000000000000007bffffffffffffffffffffffffffffffffffffffffffffffffffffffff1916827bffffffffffffffffffffffffffffffffffffffffffffffffffffffff19161480611296575061129582611dd2565b5b9050919050565b6112a681611eb4565b6112e5576040517f08c379a00000000000000000000000000000000000000000000000000000000081526004016112dc90613b8a565b60405180910390fd5b50565b600033905090565b816006600083815260200190815260200160002060006101000a81548173ffffffffffffffffffffffffffffffffffffffff021916908373ffffffffffffffffffffffffffffffffffffffff160217905550808273ffffffffffffffffffffffffffffffffffffffff1661136383610ba3565b73ffffffffffffffffffffffffffffffffffffffff167f8c5be1e5ebec7d5bd14f71427d1e84f3dd0314c0f7b2291e5b200ac8c7c3b92560405160405180910390a45050565b6000806113b583610ba3565b90508073ffffffffffffffffffffffffffffffffffffffff168473ffffffffffffffffffffffffffffffffffffffff1614806113f757506113f6818561107f565b5b8061143557508373ffffffffffffffffffffffffffffffffffffffff1661141d846106cc565b73ffffffffffffffffffffffffffffffffffffffff16145b91505092915050565b8273ffffffffffffffffffffffffffffffffffffffff1661145e82610ba3565b73ffffffffffffffffffffffffffffffffffffffff16146114b4576040517f08c379a00000000000000000000000000000000000000000000000000000000081526004016114ab90613a6a565b60405180910390fd5b600073ffffffffffffffffffffffffffffffffffffffff168273ffffffffffffffffffffffffffffffffffffffff161415611524576040517f08c379a000000000000000000000000000000000000000000000000000000000815260040161151b90613aca565b60405180910390fd5b61152f838383611f20565b61153a6000826112f0565b6001600560008573ffffffffffffffffffffffffffffffffffffffff1673ffffffffffffffffffffffffffffffffffffffff168152602001908152602001600020600082825461158a9190613dff565b925050819055506001600560008473ffffffffffffffffffffffffffffffffffffffff1673ffffffffffffffffffffffffffffffffffffffff16815260200190815260200160002060008282546115e19190613d1e565b92505081905550816004600083815260200190815260200160002060006101000a81548173ffffffffffffffffffffffffffffffffffffffff021916908373ffffffffffffffffffffffffffffffffffffffff160217905550808273ffffffffffffffffffffffffffffffffffffffff168473ffffffffffffffffffffffffffffffffffffffff167fddf252ad1be2c89b69c2b068fc378daa952ba7f163c4a11628f55a4df523b3ef60405160405180910390a46116a0838383611f30565b505050565b6116b6816116b16112e8565b611f35565b50565b6116c38282611113565b6116e881600160008581526020019081526020016000206111f390919063ffffffff16565b505050565b6116f78282611fd2565b61171c81600160008581526020019081526020016000206120b390919063ffffffff16565b505050565b6117296120e3565b6000600c60006101000a81548160ff0219169083151502179055507f5db9ee0a495bf2e6ff9c91a7834c1ba4fdd244a5e8aa4e537bd38aeae4b073aa61176d6112e8565b60405161177a919061390b565b60405180910390a1565b600061178f82610ba3565b905061179d81600084611f20565b6117a86000836112f0565b6001600560008373ffffffffffffffffffffffffffffffffffffffff1673ffffffffffffffffffffffffffffffffffffffff16815260200190815260200160002060008282546117f89190613dff565b925050819055506004600083815260200190815260200160002060006101000a81549073ffffffffffffffffffffffffffffffffffffffff021916905581600073ffffffffffffffffffffffffffffffffffffffff168273ffffffffffffffffffffffffffffffffffffffff167fddf252ad1be2c89b69c2b068fc378daa952ba7f163c4a11628f55a4df523b3ef60405160405180910390a461189d81600084611f30565b5050565b600081600001549050919050565b600073ffffffffffffffffffffffffffffffffffffffff168273ffffffffffffffffffffffffffffffffffffffff16141561191f576040517f08c379a000000000000000000000000000000000000000000000000000000000815260040161191690613b6a565b60405180910390fd5b61192881611eb4565b15611968576040517f08c379a000000000000000000000000000000000000000000000000000000000815260040161195f90613a8a565b60405180910390fd5b61197460008383611f20565b6001600560008473ffffffffffffffffffffffffffffffffffffffff1673ffffffffffffffffffffffffffffffffffffffff16815260200190815260200160002060008282546119c49190613d1e565b92505081905550816004600083815260200190815260200160002060006101000a81548173ffffffffffffffffffffffffffffffffffffffff021916908373ffffffffffffffffffffffffffffffffffffffff160217905550808273ffffffffffffffffffffffffffffffffffffffff16600073ffffffffffffffffffffffffffffffffffffffff167fddf252ad1be2c89b69c2b068fc378daa952ba7f163c4a11628f55a4df523b3ef60405160405180910390a4611a8560008383611f30565b5050565b6001816000016000828254019250508190555050565b611aa761212c565b6001600c60006101000a81548160ff0219169083151502179055507f62e78cea01bee320cd4e420270b5ea74000d11b0c9f74754ebdbfc544b05a258611aeb6112e8565b604051611af8919061390b565b60405180910390a1565b6000611b118360000183612176565b60001c905092915050565b8173ffffffffffffffffffffffffffffffffffffffff168373ffffffffffffffffffffffffffffffffffffffff161415611b8b576040517f08c379a0000000000000000000000000000000000000000000000000000000008152600401611b8290613aea565b60405180910390fd5b80600760008573ffffffffffffffffffffffffffffffffffffffff1673ffffffffffffffffffffffffffffffffffffffff16815260200190815260200160002060008473ffffffffffffffffffffffffffffffffffffffff1673ffffffffffffffffffffffffffffffffffffffff16815260200190815260200160002060006101000a81548160ff0219169083151502179055508173ffffffffffffffffffffffffffffffffffffffff168373ffffffffffffffffffffffffffffffffffffffff167f17307eab39ab6107e8899845ad3d59bd9653f200f220920489ca2b5937696c3183604051611c7c9190613972565b60405180910390a3505050565b611c9484848461143e565b611ca0848484846121c7565b611cdf576040517f08c379a0000000000000000000000000000000000000000000000000000000008152600401611cd690613a4a565b60405180910390fd5b50505050565b6060611cf08261129d565b6000611cfa61235e565b90506000815111611d1a5760405180602001604052806000815250611d45565b80611d24846123f0565b604051602001611d3592919061388b565b6040516020818303038152906040525b915050919050565b6000611d5b8260000161259d565b9050919050565b6000611d6e83836125ae565b611dc7578260000182908060018154018082558091505060019003906000526020600020016000909190919091505582600001805490508360010160008481526020019081526020016000208190555060019050611dcc565b600090505b92915050565b60007f80ac58cd000000000000000000000000000000000000000000000000000000007bffffffffffffffffffffffffffffffffffffffffffffffffffffffff1916827bffffffffffffffffffffffffffffffffffffffffffffffffffffffff19161480611e9d57507f5b5e139f000000000000000000000000000000000000000000000000000000007bffffffffffffffffffffffffffffffffffffffffffffffffffffffff1916827bffffffffffffffffffffffffffffffffffffffffffffffffffffffff1916145b80611ead5750611eac826125d1565b5b9050919050565b60008073ffffffffffffffffffffffffffffffffffffffff166004600084815260200190815260200160002060009054906101000a900473ffffffffffffffffffffffffffffffffffffffff1673ffffffffffffffffffffffffffffffffffffffff1614159050919050565b611f2b83838361264b565b505050565b505050565b611f3f8282610e46565b611fce57611f648173ffffffffffffffffffffffffffffffffffffffff1660146126a3565b611f728360001c60206126a3565b604051602001611f839291906138d1565b6040516020818303038152906040526040517f08c379a0000000000000000000000000000000000000000000000000000000008152600401611fc591906139a8565b60405180910390fd5b5050565b611fdc8282610e46565b156120af57600080600084815260200190815260200160002060000160008373ffffffffffffffffffffffffffffffffffffffff1673ffffffffffffffffffffffffffffffffffffffff16815260200190815260200160002060006101000a81548160ff0219169083151502179055506120546112e8565b73ffffffffffffffffffffffffffffffffffffffff168173ffffffffffffffffffffffffffffffffffffffff16837ff6391f5c32d9c69d2a47ea670b442974b53935d1edc7fd64eb21e047a839171b60405160405180910390a45b5050565b60006120db836000018373ffffffffffffffffffffffffffffffffffffffff1660001b61299d565b905092915050565b6120eb610b8c565b61212a576040517f08c379a000000000000000000000000000000000000000000000000000000000815260040161212190613a0a565b60405180910390fd5b565b612134610b8c565b15612174576040517f08c379a000000000000000000000000000000000000000000000000000000000815260040161216b90613b0a565b60405180910390fd5b565b60008260000182815481106121b4577f4e487b7100000000000000000000000000000000000000000000000000000000600052603260045260246000fd5b9060005260206000200154905092915050565b60006121e88473ffffffffffffffffffffffffffffffffffffffff16612b23565b15612351578373ffffffffffffffffffffffffffffffffffffffff1663150b7a026122116112e8565b8786866040518563ffffffff1660e01b81526004016122339493929190613926565b602060405180830381600087803b15801561224d57600080fd5b505af192505050801561227e57506040513d601f19601f8201168201806040525081019061227b9190613412565b60015b612301573d80600081146122ae576040519150601f19603f3d011682016040523d82523d6000602084013e6122b3565b606091505b506000815114156122f9576040517f08c379a00000000000000000000000000000000000000000000000000000000081526004016122f090613a4a565b60405180910390fd5b805181602001fd5b63150b7a0260e01b7bffffffffffffffffffffffffffffffffffffffffffffffffffffffff1916817bffffffffffffffffffffffffffffffffffffffffffffffffffffffff191614915050612356565b600190505b949350505050565b6060600e805461236d90613f1d565b80601f016020809104026020016040519081016040528092919081815260200182805461239990613f1d565b80156123e65780601f106123bb576101008083540402835291602001916123e6565b820191906000526020600020905b8154815290600101906020018083116123c957829003601f168201915b5050505050905090565b60606000821415612438576040518060400160405280600181526020017f30000000000000000000000000000000000000000000000000000000000000008152509050612598565b600082905060005b6000821461246a57808061245390613f80565b915050600a826124639190613d74565b9150612440565b60008167ffffffffffffffff8111156124ac577f4e487b7100000000000000000000000000000000000000000000000000000000600052604160045260246000fd5b6040519080825280601f01601f1916602001820160405280156124de5781602001600182028036833780820191505090505b5090505b60008514612591576001826124f79190613dff565b9150600a856125069190613fc9565b60306125129190613d1e565b60f81b81838151811061254e577f4e487b7100000000000000000000000000000000000000000000000000000000600052603260045260246000fd5b60200101907effffffffffffffffffffffffffffffffffffffffffffffffffffffffffffff1916908160001a905350600a8561258a9190613d74565b94506124e2565b8093505050505b919050565b600081600001805490509050919050565b600080836001016000848152602001908152602001600020541415905092915050565b60007f5a05180f000000000000000000000000000000000000000000000000000000007bffffffffffffffffffffffffffffffffffffffffffffffffffffffff1916827bffffffffffffffffffffffffffffffffffffffffffffffffffffffff19161480612644575061264382612b46565b5b9050919050565b612656838383612bc0565b61265e610b8c565b1561269e576040517f08c379a0000000000000000000000000000000000000000000000000000000008152600401612695906139ea565b60405180910390fd5b505050565b6060600060028360026126b69190613da5565b6126c09190613d1e565b67ffffffffffffffff8111156126ff577f4e487b7100000000000000000000000000000000000000000000000000000000600052604160045260246000fd5b6040519080825280601f01601f1916602001820160405280156127315781602001600182028036833780820191505090505b5090507f30000000000000000000000000000000000000000000000000000000000000008160008151811061278f577f4e487b7100000000000000000000000000000000000000000000000000000000600052603260045260246000fd5b60200101907effffffffffffffffffffffffffffffffffffffffffffffffffffffffffffff1916908160001a9053507f780000000000000000000000000000000000000000000000000000000000000081600181518110612819577f4e487b7100000000000000000000000000000000000000000000000000000000600052603260045260246000fd5b60200101907effffffffffffffffffffffffffffffffffffffffffffffffffffffffffffff1916908160001a905350600060018460026128599190613da5565b6128639190613d1e565b90505b600181111561294f577f3031323334353637383961626364656600000000000000000000000000000000600f8616601081106128cb577f4e487b7100000000000000000000000000000000000000000000000000000000600052603260045260246000fd5b1a60f81b828281518110612908577f4e487b7100000000000000000000000000000000000000000000000000000000600052603260045260246000fd5b60200101907effffffffffffffffffffffffffffffffffffffffffffffffffffffffffffff1916908160001a905350600485901c94508061294890613ef3565b9050612866565b5060008414612993576040517f08c379a000000000000000000000000000000000000000000000000000000000815260040161298a906139ca565b60405180910390fd5b8091505092915050565b60008083600101600084815260200190815260200160002054905060008114612b175760006001826129cf9190613dff565b90506000600186600001805490506129e79190613dff565b9050818114612aa2576000866000018281548110612a2e577f4e487b7100000000000000000000000000000000000000000000000000000000600052603260045260246000fd5b9060005260206000200154905080876000018481548110612a78577f4e487b7100000000000000000000000000000000000000000000000000000000600052603260045260246000fd5b90600052602060002001819055508387600101600083815260200190815260200160002081905550505b85600001805480612adc577f4e487b7100000000000000000000000000000000000000000000000000000000600052603160045260246000fd5b600190038181906000526020600020016000905590558560010160008681526020019081526020016000206000905560019350505050612b1d565b60009150505b92915050565b6000808273ffffffffffffffffffffffffffffffffffffffff163b119050919050565b60007f7965db0b000000000000000000000000000000000000000000000000000000007bffffffffffffffffffffffffffffffffffffffffffffffffffffffff1916827bffffffffffffffffffffffffffffffffffffffffffffffffffffffff19161480612bb95750612bb882612cd4565b5b9050919050565b612bcb838383612d3e565b600073ffffffffffffffffffffffffffffffffffffffff168373ffffffffffffffffffffffffffffffffffffffff161415612c0e57612c0981612d43565b612c4d565b8173ffffffffffffffffffffffffffffffffffffffff168373ffffffffffffffffffffffffffffffffffffffff1614612c4c57612c4b8382612d8c565b5b5b600073ffffffffffffffffffffffffffffffffffffffff168273ffffffffffffffffffffffffffffffffffffffff161415612c9057612c8b81612ef9565b612ccf565b8273ffffffffffffffffffffffffffffffffffffffff168273ffffffffffffffffffffffffffffffffffffffff1614612cce57612ccd828261303c565b5b5b505050565b60007f01ffc9a7000000000000000000000000000000000000000000000000000000007bffffffffffffffffffffffffffffffffffffffffffffffffffffffff1916827bffffffffffffffffffffffffffffffffffffffffffffffffffffffff1916149050919050565b505050565b600a80549050600b600083815260200190815260200160002081905550600a81908060018154018082558091505060019003906000526020600020016000909190919091505550565b60006001612d9984610ce5565b612da39190613dff565b9050600060096000848152602001908152602001600020549050818114612e88576000600860008673ffffffffffffffffffffffffffffffffffffffff1673ffffffffffffffffffffffffffffffffffffffff168152602001908152602001600020600084815260200190815260200160002054905080600860008773ffffffffffffffffffffffffffffffffffffffff1673ffffffffffffffffffffffffffffffffffffffff168152602001908152602001600020600084815260200190815260200160002081905550816009600083815260200190815260200160002081905550505b6009600084815260200190815260200160002060009055600860008573ffffffffffffffffffffffffffffffffffffffff1673ffffffffffffffffffffffffffffffffffffffff16815260200190815260200160002060008381526020019081526020016000206000905550505050565b60006001600a80549050612f0d9190613dff565b90506000600b60008481526020019081526020016000205490506000600a8381548110612f63577f4e487b7100000000000000000000000000000000000000000000000000000000600052603260045260246000fd5b9060005260206000200154905080600a8381548110612fab577f4e487b7100000000000000000000000000000000000000000000000000000000600052603260045260246000fd5b906000526020600020018190555081600b600083815260200190815260200160002081905550600b600085815260200190815260200160002060009055600a805480613020577f4e487b7100000000000000000000000000000000000000000000000000000000600052603160045260246000fd5b6001900381819060005260206000200160009055905550505050565b600061304783610ce5565b905081600860008573ffffffffffffffffffffffffffffffffffffffff1673ffffffffffffffffffffffffffffffffffffffff168152602001908152602001600020600083815260200190815260200160002081905550806009600084815260200190815260200160002081905550505050565b60006130ce6130c984613caa565b613c85565b9050828152602081018484840111156130e657600080fd5b6130f1848285613eb1565b509392505050565b600081359050613108816146b3565b92915050565b60008135905061311d816146ca565b92915050565b600081359050613132816146e1565b92915050565b600081359050613147816146f8565b92915050565b60008151905061315c816146f8565b92915050565b600082601f83011261317357600080fd5b81356131838482602086016130bb565b91505092915050565b60008135905061319b8161470f565b92915050565b6000602082840312156131b357600080fd5b60006131c1848285016130f9565b91505092915050565b600080604083850312156131dd57600080fd5b60006131eb858286016130f9565b92505060206131fc858286016130f9565b9150509250929050565b60008060006060848603121561321b57600080fd5b6000613229868287016130f9565b935050602061323a868287016130f9565b925050604061324b8682870161318c565b9150509250925092565b6000806000806080858703121561326b57600080fd5b6000613279878288016130f9565b945050602061328a878288016130f9565b935050604061329b8782880161318c565b925050606085013567ffffffffffffffff8111156132b857600080fd5b6132c487828801613162565b91505092959194509250565b600080604083850312156132e357600080fd5b60006132f1858286016130f9565b92505060206133028582860161310e565b9150509250929050565b6000806040838503121561331f57600080fd5b600061332d858286016130f9565b925050602061333e8582860161318c565b9150509250929050565b60006020828403121561335a57600080fd5b600061336884828501613123565b91505092915050565b6000806040838503121561338457600080fd5b600061339285828601613123565b92505060206133a3858286016130f9565b9150509250929050565b600080604083850312156133c057600080fd5b60006133ce85828601613123565b92505060206133df8582860161318c565b9150509250929050565b6000602082840312156133fb57600080fd5b600061340984828501613138565b91505092915050565b60006020828403121561342457600080fd5b60006134328482850161314d565b91505092915050565b60006020828403121561344d57600080fd5b600061345b8482850161318c565b91505092915050565b61346d81613e33565b82525050565b61347c81613e45565b82525050565b61348b81613e51565b82525050565b600061349c82613cdb565b6134a68185613cf1565b93506134b6818560208601613ec0565b6134bf816140b6565b840191505092915050565b60006134d582613ce6565b6134df8185613d02565b93506134ef818560208601613ec0565b6134f8816140b6565b840191505092915050565b600061350e82613ce6565b6135188185613d13565b9350613528818560208601613ec0565b80840191505092915050565b6000613541602083613d02565b915061354c826140c7565b602082019050919050565b6000613564602b83613d02565b915061356f826140f0565b604082019050919050565b6000613587601483613d02565b91506135928261413f565b602082019050919050565b60006135aa602b83613d02565b91506135b582614168565b604082019050919050565b60006135cd603283613d02565b91506135d8826141b7565b604082019050919050565b60006135f0602583613d02565b91506135fb82614206565b604082019050919050565b6000613613601c83613d02565b915061361e82614255565b602082019050919050565b6000613636603e83613d02565b91506136418261427e565b604082019050919050565b6000613659602483613d02565b9150613664826142cd565b604082019050919050565b600061367c601983613d02565b91506136878261431c565b602082019050919050565b600061369f601083613d02565b91506136aa82614345565b602082019050919050565b60006136c2602983613d02565b91506136cd8261436e565b604082019050919050565b60006136e5603e83613d02565b91506136f0826143bd565b604082019050919050565b6000613708602083613d02565b91506137138261440c565b602082019050919050565b600061372b600583613d13565b915061373682614435565b600582019050919050565b600061374e601883613d02565b91506137598261445e565b602082019050919050565b6000613771602183613d02565b915061377c82614487565b604082019050919050565b6000613794602c83613d02565b915061379f826144d6565b604082019050919050565b60006137b7601783613d13565b91506137c282614525565b601782019050919050565b60006137da603d83613d02565b91506137e58261454e565b604082019050919050565b60006137fd602e83613d02565b91506138088261459d565b604082019050919050565b6000613820604083613d02565b915061382b826145ec565b604082019050919050565b6000613843601183613d13565b915061384e8261463b565b601182019050919050565b6000613866602f83613d02565b915061387182614664565b604082019050919050565b61388581613ea7565b82525050565b60006138978285613503565b91506138a38284613503565b91508190509392505050565b60006138bb8284613503565b91506138c68261371e565b915081905092915050565b60006138dc826137aa565b91506138e88285613503565b91506138f382613836565b91506138ff8284613503565b91508190509392505050565b60006020820190506139206000830184613464565b92915050565b600060808201905061393b6000830187613464565b6139486020830186613464565b613955604083018561387c565b81810360608301526139678184613491565b905095945050505050565b60006020820190506139876000830184613473565b92915050565b60006020820190506139a26000830184613482565b92915050565b600060208201905081810360008301526139c281846134ca565b905092915050565b600060208201905081810360008301526139e381613534565b9050919050565b60006020820190508181036000830152613a0381613557565b9050919050565b60006020820190508181036000830152613a238161357a565b9050919050565b60006020820190508181036000830152613a438161359d565b9050919050565b60006020820190508181036000830152613a63816135c0565b9050919050565b60006020820190508181036000830152613a83816135e3565b9050919050565b60006020820190508181036000830152613aa381613606565b9050919050565b60006020820190508181036000830152613ac381613629565b9050919050565b60006020820190508181036000830152613ae38161364c565b9050919050565b60006020820190508181036000830152613b038161366f565b9050919050565b60006020820190508181036000830152613b2381613692565b9050919050565b60006020820190508181036000830152613b43816136b5565b9050919050565b60006020820190508181036000830152613b63816136d8565b9050919050565b60006020820190508181036000830152613b83816136fb565b9050919050565b60006020820190508181036000830152613ba381613741565b9050919050565b60006020820190508181036000830152613bc381613764565b9050919050565b60006020820190508181036000830152613be381613787565b9050919050565b60006020820190508181036000830152613c03816137cd565b9050919050565b60006020820190508181036000830152613c23816137f0565b9050919050565b60006020820190508181036000830152613c4381613813565b9050919050565b60006020820190508181036000830152613c6381613859565b9050919050565b6000602082019050613c7f600083018461387c565b92915050565b6000613c8f613ca0565b9050613c9b8282613f4f565b919050565b6000604051905090565b600067ffffffffffffffff821115613cc557613cc4614087565b5b613cce826140b6565b9050602081019050919050565b600081519050919050565b600081519050919050565b600082825260208201905092915050565b600082825260208201905092915050565b600081905092915050565b6000613d2982613ea7565b9150613d3483613ea7565b9250827fffffffffffffffffffffffffffffffffffffffffffffffffffffffffffffffff03821115613d6957613d68613ffa565b5b828201905092915050565b6000613d7f82613ea7565b9150613d8a83613ea7565b925082613d9a57613d99614029565b5b828204905092915050565b6000613db082613ea7565b9150613dbb83613ea7565b9250817fffffffffffffffffffffffffffffffffffffffffffffffffffffffffffffffff0483118215151615613df457613df3613ffa565b5b828202905092915050565b6000613e0a82613ea7565b9150613e1583613ea7565b925082821015613e2857613e27613ffa565b5b828203905092915050565b6000613e3e82613e87565b9050919050565b60008115159050919050565b6000819050919050565b60007fffffffff0000000000000000000000000000000000000000000000000000000082169050919050565b600073ffffffffffffffffffffffffffffffffffffffff82169050919050565b6000819050919050565b82818337600083830152505050565b60005b83811015613ede578082015181840152602081019050613ec3565b83811115613eed576000848401525b50505050565b6000613efe82613ea7565b91506000821415613f1257613f11613ffa565b5b600182039050919050565b60006002820490506001821680613f3557607f821691505b60208210811415613f4957613f48614058565b5b50919050565b613f58826140b6565b810181811067ffffffffffffffff82111715613f7757613f76614087565b5b80604052505050565b6000613f8b82613ea7565b91507fffffffffffffffffffffffffffffffffffffffffffffffffffffffffffffffff821415613fbe57613fbd613ffa565b5b600182019050919050565b6000613fd482613ea7565b9150613fdf83613ea7565b925082613fef57613fee614029565b5b828206905092915050565b7f4e487b7100000000000000000000000000000000000000000000000000000000600052601160045260246000fd5b7f4e487b7100000000000000000000000000000000000000000000000000000000600052601260045260246000fd5b7f4e487b7100000000000000000000000000000000000000000000000000000000600052602260045260246000fd5b7f4e487b7100000000000000000000000000000000000000000000000000000000600052604160045260246000fd5b6000601f19601f8301169050919050565b7f537472696e67733a20686578206c656e67746820696e73756666696369656e74600082015250565b7f4552433732315061757361626c653a20746f6b656e207472616e73666572207760008201527f68696c6520706175736564000000000000000000000000000000000000000000602082015250565b7f5061757361626c653a206e6f7420706175736564000000000000000000000000600082015250565b7f455243373231456e756d657261626c653a206f776e657220696e646578206f7560008201527f74206f6620626f756e6473000000000000000000000000000000000000000000602082015250565b7f4552433732313a207472616e7366657220746f206e6f6e20455243373231526560008201527f63656976657220696d706c656d656e7465720000000000000000000000000000602082015250565b7f4552433732313a207472616e736665722066726f6d20696e636f72726563742060008201527f6f776e6572000000000000000000000000000000000000000000000000000000602082015250565b7f4552433732313a20746f6b656e20616c7265616479206d696e74656400000000600082015250565b7f4552433732315072657365744d696e7465725061757365724175746f49643a2060008201527f6d75737420686176652070617573657220726f6c6520746f2070617573650000602082015250565b7f4552433732313a207472616e7366657220746f20746865207a65726f2061646460008201527f7265737300000000000000000000000000000000000000000000000000000000602082015250565b7f4552433732313a20617070726f766520746f2063616c6c657200000000000000600082015250565b7f5061757361626c653a2070617573656400000000000000000000000000000000600082015250565b7f4552433732313a2061646472657373207a65726f206973206e6f74206120766160008201527f6c6964206f776e65720000000000000000000000000000000000000000000000602082015250565b7f4552433732313a20617070726f76652063616c6c6572206973206e6f7420746f60008201527f6b656e206f776e6572206e6f7220617070726f76656420666f7220616c6c0000602082015250565b7f4552433732313a206d696e7420746f20746865207a65726f2061646472657373600082015250565b7f2e6a736f6e000000000000000000000000000000000000000000000000000000600082015250565b7f4552433732313a20696e76616c696420746f6b656e2049440000000000000000600082015250565b7f4552433732313a20617070726f76616c20746f2063757272656e74206f776e6560008201527f7200000000000000000000000000000000000000000000000000000000000000602082015250565b7f455243373231456e756d657261626c653a20676c6f62616c20696e646578206f60008201527f7574206f6620626f756e64730000000000000000000000000000000000000000602082015250565b7f416363657373436f6e74726f6c3a206163636f756e7420000000000000000000600082015250565b7f4552433732315072657365744d696e7465725061757365724175746f49643a2060008201527f6d7573742068617665206d696e74657220726f6c6520746f206d696e74000000602082015250565b7f4552433732313a2063616c6c6572206973206e6f7420746f6b656e206f776e6560008201527f72206e6f7220617070726f766564000000000000000000000000000000000000602082015250565b7f4552433732315072657365744d696e7465725061757365724175746f49643a2060008201527f6d75737420686176652070617573657220726f6c6520746f20756e7061757365602082015250565b7f206973206d697373696e6720726f6c6520000000000000000000000000000000600082015250565b7f416363657373436f6e74726f6c3a2063616e206f6e6c792072656e6f756e636560008201527f20726f6c657320666f722073656c660000000000000000000000000000000000602082015250565b6146bc81613e33565b81146146c757600080fd5b50565b6146d381613e45565b81146146de57600080fd5b50565b6146ea81613e51565b81146146f557600080fd5b50565b61470181613e5b565b811461470c57600080fd5b50565b61471881613ea7565b811461472357600080fd5b5056fea2646970667358221220c949e0b4b435a5db6bbee6d4c6bb71402181591004488660cef429d9b77da8b364736f6c63430008030033",
  "immutableReferences": {},
  "source": "// SPDX-License-Identifier: MIT\r\npragma solidity 0.8.3;\r\nimport \"@openzeppelin/contracts/token/ERC721/presets/ERC721PresetMinterPauserAutoId.sol\";\r\nimport \"@openzeppelin/contracts/utils/Counters.sol\";\r\n\r\ncontract BonafydeToken is ERC721PresetMinterPauserAutoId {\r\n    constructor() ERC721PresetMinterPauserAutoId(\"BonafydeToken\", \"BFT\", \"https://bonafyde.io/metadata/\") {}\r\n        \r\n    function tokenURI(uint256 tokenId) public view virtual override returns (string memory) {\r\n       return string(abi.encodePacked(super.tokenURI(tokenId),\".json\"));\r\n    }\r\n}",
  "sourcePath": "C:\\Users\\raymo\\OneDrive\\Documents\\BonaFyde\\BFT\\contracts\\BonafydeToken.sol",
  "compiler": {
    "name": "solc",
    "version": "0.8.3+commit.8d00100c.Emscripten.clang"
  },
  "schemaVersion": "3.4.8",
  "updatedAt": "2022-08-02T05:44:58.144Z",
  "networkType": "ethereum",
  "devdoc": {
    "kind": "dev",
    "methods": {
      "approve(address,uint256)": {
        "details": "See {IERC721-approve}."
      },
      "balanceOf(address)": {
        "details": "See {IERC721-balanceOf}."
      },
      "burn(uint256)": {
        "details": "Burns `tokenId`. See {ERC721-_burn}. Requirements: - The caller must own `tokenId` or be an approved operator."
      },
      "getApproved(uint256)": {
        "details": "See {IERC721-getApproved}."
      },
      "getRoleAdmin(bytes32)": {
        "details": "Returns the admin role that controls `role`. See {grantRole} and {revokeRole}. To change a role's admin, use {_setRoleAdmin}."
      },
      "getRoleMember(bytes32,uint256)": {
        "details": "Returns one of the accounts that have `role`. `index` must be a value between 0 and {getRoleMemberCount}, non-inclusive. Role bearers are not sorted in any particular way, and their ordering may change at any point. WARNING: When using {getRoleMember} and {getRoleMemberCount}, make sure you perform all queries on the same block. See the following https://forum.openzeppelin.com/t/iterating-over-elements-on-enumerableset-in-openzeppelin-contracts/2296[forum post] for more information."
      },
      "getRoleMemberCount(bytes32)": {
        "details": "Returns the number of accounts that have `role`. Can be used together with {getRoleMember} to enumerate all bearers of a role."
      },
      "grantRole(bytes32,address)": {
        "details": "Grants `role` to `account`. If `account` had not been already granted `role`, emits a {RoleGranted} event. Requirements: - the caller must have ``role``'s admin role. May emit a {RoleGranted} event."
      },
      "hasRole(bytes32,address)": {
        "details": "Returns `true` if `account` has been granted `role`."
      },
      "isApprovedForAll(address,address)": {
        "details": "See {IERC721-isApprovedForAll}."
      },
      "mint(address)": {
        "details": "Creates a new token for `to`. Its token ID will be automatically assigned (and available on the emitted {IERC721-Transfer} event), and the token URI autogenerated based on the base URI passed at construction. See {ERC721-_mint}. Requirements: - the caller must have the `MINTER_ROLE`."
      },
      "name()": {
        "details": "See {IERC721Metadata-name}."
      },
      "ownerOf(uint256)": {
        "details": "See {IERC721-ownerOf}."
      },
      "pause()": {
        "details": "Pauses all token transfers. See {ERC721Pausable} and {Pausable-_pause}. Requirements: - the caller must have the `PAUSER_ROLE`."
      },
      "paused()": {
        "details": "Returns true if the contract is paused, and false otherwise."
      },
      "renounceRole(bytes32,address)": {
        "details": "Revokes `role` from the calling account. Roles are often managed via {grantRole} and {revokeRole}: this function's purpose is to provide a mechanism for accounts to lose their privileges if they are compromised (such as when a trusted device is misplaced). If the calling account had been revoked `role`, emits a {RoleRevoked} event. Requirements: - the caller must be `account`. May emit a {RoleRevoked} event."
      },
      "revokeRole(bytes32,address)": {
        "details": "Revokes `role` from `account`. If `account` had been granted `role`, emits a {RoleRevoked} event. Requirements: - the caller must have ``role``'s admin role. May emit a {RoleRevoked} event."
      },
      "safeTransferFrom(address,address,uint256)": {
        "details": "See {IERC721-safeTransferFrom}."
      },
      "safeTransferFrom(address,address,uint256,bytes)": {
        "details": "See {IERC721-safeTransferFrom}."
      },
      "setApprovalForAll(address,bool)": {
        "details": "See {IERC721-setApprovalForAll}."
      },
      "supportsInterface(bytes4)": {
        "details": "See {IERC165-supportsInterface}."
      },
      "symbol()": {
        "details": "See {IERC721Metadata-symbol}."
      },
      "tokenByIndex(uint256)": {
        "details": "See {IERC721Enumerable-tokenByIndex}."
      },
      "tokenOfOwnerByIndex(address,uint256)": {
        "details": "See {IERC721Enumerable-tokenOfOwnerByIndex}."
      },
      "tokenURI(uint256)": {
        "details": "See {IERC721Metadata-tokenURI}."
      },
      "totalSupply()": {
        "details": "See {IERC721Enumerable-totalSupply}."
      },
      "transferFrom(address,address,uint256)": {
        "details": "See {IERC721-transferFrom}."
      },
      "unpause()": {
        "details": "Unpauses all token transfers. See {ERC721Pausable} and {Pausable-_unpause}. Requirements: - the caller must have the `PAUSER_ROLE`."
      }
    },
    "version": 1
  },
  "userdoc": {
    "kind": "user",
    "methods": {},
    "version": 1
  }
}