{
  "contractName": "LibPart",
  "abi": [
    {
      "inputs": [],
      "name": "TYPE_HASH",
      "outputs": [
        {
          "internalType": "bytes32",
          "name": "",
          "type": "bytes32"
        }
      ],
      "stateMutability": "view",
      "type": "function"
    }
  ],
  "bytecode": "0x60dc610052600b82828239805160001a607314610045577f4e487b7100000000000000000000000000000000000000000000000000000000600052600060045260246000fd5b30600052607381538281f3fe730000000000000000000000000000000000000000301460806040526004361060335760003560e01c806364d4c819146038575b600080fd5b603e6052565b604051604991906083565b60405180910390f35b7f397e04204c1e1a60ee8724b71f8244e10ab5f2e9009854d80f602bda21b59ebb81565b607d81609c565b82525050565b6000602082019050609660008301846076565b92915050565b600081905091905056fea264697066735822122021e3e204b2d40c16883a6d39e1c7f5bf3b426f4d695c9fc984e9df61a951348964736f6c63430008030033",
  "immutableReferences": {},
  "source": "// SPDX-License-Identifier: MIT \r\npragma solidity ^0.8.0; \r\nlibrary LibPart { \r\n    bytes32 public constant TYPE_HASH = keccak256(\"Part(address account,uint96 value)\");\r\n\r\n    struct Part { \r\n        address payable account;\r\n        uint96 value; \r\n    }\r\n\r\n    function hash(Part memory part) internal pure returns (bytes32){ \r\n        return keccak256(abi.encode(TYPE_HASH, part.account, part.value));\r\n    }\r\n}",
  "sourcePath": "/mnt/c/Users/raymo/OneDrive/Documents/BonaFyde/BFT/contracts/@rarible/royalties/contracts/LibPart.sol",
  "compiler": {
    "name": "solc",
    "version": "0.8.3+commit.8d00100c.Emscripten.clang"
  },
  "schemaVersion": "3.4.11",
  "updatedAt": "2023-04-21T06:49:40.678Z",
  "devdoc": {
    "kind": "dev",
    "methods": {},
    "version": 1
  },
  "userdoc": {
    "kind": "user",
    "methods": {},
    "version": 1
  }
}